S01700004445564943455F4558414D504C45312E73726563C1
S113000038680020D1490000CD490000CD490000E6
S113001000000000000000000000000000000000DC
S1130020000000000000000000000000CD490000B6
S11300300000000000000000CD490000CD49000090
S1130040CD490000CD490000CD490000CD49000054
S11300505D170000CD490000CD490000F5410000C6
S1130060CD490000C91C0000D91C0000E91C000097
S1130070F91C0000091D0000191D0000CD490000F5
S1130080CD490000CD490000712A0000812A0000FA
S1130090912A0000A12A0000B12A0000F5150000F1
S11300A0CD490000CD490000CD490000CD490000F4
S11300B00000000010B5064C2378002B07D1054B37
S11300C0002B02D0044800E000BF0123237010BDC0
S11300D0EC00002000000000A0570000084B10B501
S11300E0002B03D00749084800E000BF0748036815
S11300F0002B00D110BD064B002BFBD09847F9E72D
S113010000000000F0000020A0570000A0570000ED
S11301100000000010B5034B98478022D205024B23
S11301205A6110BD213900008044004110B584B0EB
S113013001AC20000E4B98470F230193002363600A
S113014001332372A3720133E37221000F20094BA0
S1130150984700220F210848084B984700210F2098
S1130160074B98478022D205064B9A6104B010BD14
S1130170351800004918000015010000F1160000B0
S11301801D170000804400418022D205014B9A6172
S11301907047C0468044004110B500210F20014B38
S11301A0984710BD1D17000010B500210F20014B0A
S11301B0984710BD3D1700008022D205014B5A61BB
S11301C07047C0468044004170477047704770478D
S11301D0704770477047000010B5FA218900094B39
S11301E0984789B2002904D18022D205064B5A616E
S11301F010BDFA235B009942FAD18022D205024B4A
S11302009A61F5E7CD52000080440041024A137818
S1130210013BDBB2137070471301002000207047CC
S11302200020704710B502490020024B984710BDCA
S11302300C010020BD4F000010B50022124B1A70B3
S11302400020124B1A80124BA12119708139597068
S11302505A809A801E39D9801A810E49E1235B02A3
S11302600B600871487108238B7100200A4B984772
S113027000200A4B9847002804D0034A137801331E
S1130280DBB2137010BDC04613010020AC01002086
S1130290440200200C010020BD4F0000754E0000F8
S11302A070B584B0464B1B78002B01D004B070BDF0
S11302B0444B9847002843D0434B1C88434B9847F2
S11302C08442F3D0EFF310835A425341039372B63E
S11302D0BFF35F8F00223E4B1A70039D3D4B1C7889
S11302E0E4B262003C4BD35A002B30D000223B4B8B
S11302F01A803B4B1B78002B48D163426341DBB22D
S1130300344A137001222E4B1A70002D04D0304B46
S11303101A70BFF35F8F62B6260063002E4A9B5AA1
S11303201D00403D6A1E9541EDB2402B37D0254B50
S1130330984700282ED0254B9847234B188031E04E
S1130340214B1C88274B98478442BBD1AEE7234AF4
S11303501388013313801B4B9847002803D11F4B8C
S11303601B88632B08D9174B98470028BED01E4B17
S11303701A4A12889A42B9D8002D00D196E7012270
S1130380134B1A70BFF35F8F62B68FE7624254411A
S1130390E4B2B7E7134B98470B4B188002E00022F6
S11303A0094B1A8076000C4BF35AA4010F4A141916
S11303B00F4A00922200290081200E4CA04775E7C5
S11303C0400200201D3400003C02002031340000B3
S11303D0E800002038020020340200200801002038
S11303E0B0010020213400001F030000B4010020EC
S11303F0F90300002937000010B5002800D010BD13
S1130400074B1B785A4253415B000022054958525E
S1130410054B1A70054B1A70054B9847EFE7C04619
S11304203802002034020020B001002040020020E5
S1130430A102000010B50020014B984710BDC04632
S1130440A102000010B582B008000C4B1B78002BF1
S113045012D10B4B1B889BB20A4A12899A420BD0C9
S1130460074B1B88074A1381074B00930A2300217B
S1130470064CA047014B187002B010BDA801002023
S1130480AC01002044020020ED04000029370000E4
S113049000B583B0EFF3108358424341019372B621
S11304A0BFF35F8F00200E4B1870019B002911D001
S11304B00C4801880A430280002B05D00122084B16
S11304C01A70BFF35F8F62B683210020064B9847F2
S11304D003B000BD0348018891430180ECE7C046A6
S11304E0E8000020AC0100204504000010B5002104
S11304F0074B1970074803887C24A34303800648EC
S11305000389A343038111000020044B984710BDC5
S1130510A8010020AC010020440200204504000092
S113052010B5064A1378013BDBB213701078C0B2E1
S1130530034B98470022034B1A7010BD140100208E
S11305408D4E00000A01002010B5204B1A7853B2DA
S1130550002B05DB602313400020202B14D010BD9A
S1130560602313400020202BF9D1184B5B78212BFA
S113057029D1164BDB88072BF1D1144B144A9A600E
S113058007229A810130EAE7104B5B78202B03D0D5
S1130590222B0FD00020E2E70C4BDB880020072B36
S11305A0DDD10A4B0B4A1A61094A9A6007229A81E3
S11305B00130D4E7054B5B88012119400020064B2C
S11305C098470120CBE70020C9E7C046E805002092
S11305D00C01002025020000A54E000010B54022A9
S11305E001210020014B984710BDC0469104000032
S11305F082B0EFF310835A425341019372B6BFF3B2
S11306005F8F00220A4B1A70019A0A4B19880A4B11
S11306101B785B000948185A401A002A05D00122A9
S1130620034B1A70BFF35F8F62B602B07047C046C7
S1130630E8000020A00100209C0100209801002077
S113064010B5034B9847431E9841C0B210BDC04635
S1130650F105000010B584B0EFF310835A42534102
S1130660039372B6BFF35F8F0022224B1A70039B71
S1130670214A1478E4B2214A1278002A07D1204A88
S1130680128861001F48095A92B28A420AD2002095
S1130690002B05D00122174B1A70BFF35F8F62B68F
S11306A004B010BD0021164A118062426241D2B2E8
S11306B011490A700121114A1170002B05D0012241
S11306C00C4B1A70BFF35F8F62B600200E4B984735
S11306D000280AD1A4010D4A12190D4B009340239E
S11306E0012102200B4CA047DAE700200A4B98476F
S11306F0F0E7C046E80000209C010020A40100208F
S1130700A0010020980100204106000018010020EB
S1130710AD07000029370000754F000070B50024B4
S1130720154B1C70154B1C70154B1C70154B1C7015
S1130730154B00251C805C80144B1C800020144B3E
S11307409847144B1D70144B1D70144B1C805C8017
S1130750134B1C800020134B9847002807D0064AEF
S113076013780133DBB213701378012B00D070BD02
S113077001220D4B1A70FAE71401002040020020F8
S1130780B001002038020020340200203C02002086
S1130790A1020000A40100209C0100209801002077
S11307A0A0010020550600000A01002010B582B007
S11307B01400002810D10F4B1A7853425A41D2B278
S11307C000290BD089B252000B4BD15200220B4BA3
S11307D01A7000200A4B984702B010BD9201094BD1
S11307E09A18094B0093402301312000074CA0477D
S11307F0F2E7C0469C01002098010020A4010020DB
S11308005506000018010020AD070000293700003C
S113081010B50020014B984710BDC04641060000AA
S1130820F0B5D6464F464646C0B582B0274B9B79B5
S1130830093B5A425341DBB2994600239C46244B60
S113084098460027234E244C05E08B4229D3234BA2
S11308501B78002B1DD0EFF310835A4253410193B0
S113086072B6BFF35F8F43461F70019833889BB203
S11308702278D2B255001A49695A89B20028E4D0C4
S113088001208246124855460570BFF35F8F62B659
S1130890DBE70025280002B01CBC90469946A2461E
S11308A0F0BD92010F498A18D25C654615430133A5
S11308B09BB2084A138000200B4B98474B46002BF1
S11308C0E8D02B029C4600239946C4E70C01002083
S11308D0E8000020A00100209C0100200A01002063
S11308E098010020180100205506000010B50020D2
S11308F0014B984710BDC0462108000082B0EFF3B9
S113090010835A425341019372B6BFF35F8F0022A2
S1130910144B1A700199144B1B78DBB25800134A1C
S1130920825A402A0BD04020801A002905D0012287
S11309300C4B1A70BFF35F8F62B602B070470C485D
S113094000780028EFD10B4800780028EBD1013063
S1130950084A10705A425341DBB2034A1370002212
S1130960E1E7C046E80000203802002034020020FD
S113097040020020B001002010B5034B9847431EED
S11309809841C0B210BDC046FD08000010B500205B
S1130990014B984710BDC04679090000F0B5DE460A
S11309A057464E464546E0B583B00C00224B9D7930
S11309B0093D6B425D41EDB2204E214B9846214BDF
S11309C09A4627E0EFF310835A425341019372B6DB
S11309D0BFF35F8F002342461370019B9B4653462F
S11309E01B78DBB2184A94465F00B95A4A1C604629
S11309F03A529B01154AD3185C545B46002B05D030
S1130A0001220F4B1A70BFF35F8F62B6002D10D016
S1130A10241200250020B0470028D3D10C4B1B78AA
S1130A20002BF7D103B03CBC90469946A246AB4696
S1130A30F0BD0120F6E7C0460C0100207909000052
S1130A40E80000203802002034020020B401002015
S1130A500A01002010B501000020014B984710BD89
S1130A609D09000010B5114B1B681A689478D3785F
S1130A701B022343D2180378C018904210D2437843
S1130A80042B0FD08B420AD00378C018904205D2B1
S1130A904378042B08D08B42F6D100E0002010BD2F
S1130AA00020FCE70020FAE70020F8E75C020020C1
S1130AB010B5034B5B887F201840024B984710BD4C
S1130AC0E80500200139000070B5194B1B7800229D
S1130AD0002B29D0174B1B681B681C79844223D92F
S1130AE0154A13609A78DC78240214431C19A34233
S1130AF01CD20025012607E00F4A13600FE01A7884
S1130B009B183500A3420CD25A78042AF7D19A785C
S1130B108242F4D1DA788A42F1D1002DECD101225B
S1130B2002E0054A13600022100070BD0022FBE7BA
S1130B30580200205C02002060020020F0B5C64686
S1130B4000B504000021134B9847051E03D128006B
S1130B5004BC9046F0BD104B1B685B68A200D358E0
S1130B609846DB689847010020000A4B9847051E09
S1130B70EDD00A4B1C680A4E0A4F05212000B047ED
S1130B80041E02D08078B847F7E743465B6898476D
S1130B90DDE7C046C90A00005C02002060020020B4
S1130BA0650A000041340000F8B505000F4B984772
S1130BB0002819D00E4B1C680E4E0F4F0521200043
S1130BC0B047041E09D00379427912021A43C1784E
S1130BD08078B8470028F1D106E0084B1B685B68B1
S1130BE0AD00EB581B689847F8BDC046C90A000021
S1130BF060020020650A0000993400005C020020B5
S1130C0010B5014B984710BD653A000070B50E4B06
S1130C101B78002B11D00D4B1B681B681B79002B14
S1130C200BD000240A4E094D2000B0470134E4B231
S1130C302B681B681B79A342F6D80022024B1A705A
S1130C400132044B1A8070BD580200205C0200205F
S1130C503D0B00004E02002070B50E4B1B78002B9C
S1130C6017D00D4B1B681A681279002A11D0002482
S1130C70094D06E00134E4B22B681A681279A242E5
S1130C8007D95B68A200D3581B69002BF2D09847A0
S1130C90F0E770BD580200205C020020F8B5AA4BB2
S1130CA000229A811A615A611B785AB2002A13DB16
S1130CB060221A4200D1D6E0A34B1A781F231340B6
S1130CC0012B00D172E1A04B1A781F23134000209E
S1130CD0022B00D1C8E1F8BD9B4AD2880020002A2B
S1130CE0F9D060211942E7D11F210B4008D1964960
S1130CF04978062923D0082900D183E0002917D098
S1130D00012B00D186E0022BD6D18F4B5B780020DB
S1130D10002B00D0A4E1022AD5D18B4B18798B4B40
S1130D2098478B4B1880022118008A4B9847FBE0A8
S1130D30022AC8D102318848864B9847F4E0824B96
S1130D405A88130A022B23D0D9B202290FD9032BB4
S1130D5034D00F2B00D080E1804B98680028B2D0AB
S1130D608378C178090219437A4B984707E0012B2D
S1130D7000D072E1794B18680178764B9847724B32
S1130D80DA889B89934200D8CEE06F4B9A81CBE0FE
S1130D90D2B2724B1B685B7C934200D893E76F4BD3
S1130DA05B68D200D0588378C17809021943694B33
S1130DB09847654B9B6802225A70E0E7FF231A406C
S1130DC0012A1CD0002A15D0022A00D074E7644CF2
S1130DD00F21644A0023E05C508001330232D8B210
S1130DE08842F8D3490002315E48017089B2594BF8
S1130DF09847C4E704215C48564B9847BFE75B4CCF
S1130E000921E6E7012A00D05DE701215848514B4A
S1130E10984789E04C4949780A2900D073E7012AA8
S1130E2000D0C3E0524B1B78002B00D1BEE0464BF0
S1130E301C79504B1D682B681B79A34200D8B5E080
S1130E40002120004C4B9847002800D134E76B6800
S1130E50A400E358DB689847484B18700121180038
S1130E603C4B984760E01F2213405FD1364A5278CA
S1130E70032A00D1F3E0D1B203293BD9052A4BD090
S1130E80092A53D1304BDB88002B00D01BE73C4BA5
S1130E909847002800D10FE72B4B9A782F4B1B68FB
S1130EA05B7C9A4200DD07E7364B9847264B9B78DC
S1130EB02F4A1370002B37D0334A94466344DB0027
S1130EC0264A5268D3182B4A13601B681B79002BDF
S1130ED02AD000242D4D160000212000A847002808
S1130EE000D1E9E60134E4B233681B681B79A342FC
S1130EF0F2D819E0012A19D1134BDB88002B00D05A
S1130F00E1E6114B5B88012B00D0DCE6124A138822
S1130F1002218B43138007E00B4BDB88002B00D0AE
S1130F20D1E61B4A084B1A610120D4E6012B31D0CB
S1130F30022B00D0C0E6044B5B78012B6CD0032B52
S1130F4000D178E000208BE0E8050020A135000006
S1130F5050020020793900004E02002028000020B1
S1130F60D8000020A8000020C8000020CC000020E9
S1130F70580200205C020020C90A0000540200202C
S1130F80113900000D0C0000FFFFFF1FA90B00002A
S1130F90B10A0000484A52780B2AC9D1464BDB8873
S1130FA0002B03D1454B1B78002B27D1434B1B78D7
S1130FB00020002B00D18EE63F4B1C79404B1D686E
S1130FC02B681B79A34200D885E6002120003D4B05
S1130FD09847002800D176E66B68A200D558EB68E4
S1130FE0984701002000374B9847002800D16AE653
S1130FF0AB689847002800D06DE664E62E4B1D7957
S11310005C882800304B9847002800D154E6E1B2B0
S113101028002E4B984723E0274BDB88002B00D079
S113102051E6254B5B88002B00D04CE6224B187907
S1131030274B984714E0204BDB88002B00D042E676
S11310401D4B5B88002B00D03DE61B4C2079214BC7
S113105098472079204B984702E0002000E00020C8
S1131060002800D037E627E6144B1B78002B00D16C
S113107031E6134B1B681A681279002A1AD000252E
S1131080104E0F4F5B68AA00D458E36898470100DC
S11310902800B047002800D11DE6A368984700281F
S11310A000D018E60135EDB23B681A681279AA42FD
S11310B0E8D810E600200EE6E805002058020020DB
S11310C05C020020C90A00003D0B0000A90B0000CF
S11310D0E5360000E1330000B53500000C4B1B6819
S11310E0002B06D1EFF31083002B07D00022094B0D
S11310F01A70074A136801331360704772B6BFF35E
S11311005F8F0022044B1A700132024B1A70F0E711
S11311106402002068020020E8000020084B1A68DE
S1131120013A1A601B68002B09D1064B1B78002B6F
S113113005D00122044B1A70BFF35F8F62B670476B
S11311406402002068020020E8000020F0B583B0AB
S113115001AC012565700027A770257021003E2091
S1131160064EB0478022D205054B9A612770657000
S113117021000F20B04703B0F0BDC046C1180000E5
S11311808044004110B50022002302704270002107
S11311904280017103760262C26182600373C024DB
S11311A06401C481037443748374C37403752A246F
S11311B0035543758375063C0355C2840285C17586
S11311C02B23C1540133C15410BD0000F0B5D646E1
S11311D04F464646C0B596B0070016000160C64AA1
S11311E0106A80235B02034313620B780520DB073C
S11311F005D516B01CBC90469946A246F0BD0B78A6
S113120017309B07F5D473783B71002B04D1BB4A8C
S1131210136C04210B4313640023BB60FB603B612C
S1131220BB76FB763B833B77B54B1F602A23F35C8D
S1131230002B05D1337D002B02D101337B7701E0F4
S113124000237B773B68984633786A461370694677
S11312501E20AC4B98471E20AB4B98472C23F25CC6
S1131260002A54D0013BF55C337BEB18DBB2D11878
S1131270C9B28B4221D25219D3B29946A34B9A4692
S113128003E00135EDB24D4517D00F242C40337BDC
S1131290E41850229E4902A8D047132CF1D8A40088
S11312A002ABE05801A900234B70CB708B70013363
S11312B00B70C0B2974B9847E3E7F48950229449E6
S11312C002A8924B9847132C13D9737D9B00DBB271
S11312D042461370B37DDB0172781343DBB242469E
S11312E053703379342B00D97BE19B008A4AD3585D
S11312F09F46A40002ABE05801A900234B70CB70B9
S11313008B7001330B70C0B2824B9847DDE7347B9E
S113131050227F4902A87D4B9847132C15D9F48994
S113132050227B4902A8794B9847132CCDD8A400AE
S113133002ABE05801A900234B70CB708B700133D2
S11313400B70C0B2734B9847BFE7A40002ABE058E0
S113135001A900234B70CB708B7001330B70C0B2AA
S11313606C4B9847DBE70423102402211AE0717CBC
S1131370337C102416E006231024012112E00823F4
S1131380102400210EE00023302400210AE0002371
S11313902024002106E000230024002102E002238F
S11313A010240121090170220A401343424693701C
S11313B0F37D17203F2B00D91BE7D3703A68537E87
S11313C05BB2002BFBDBF37C728813432422B25CF8
S11313D0D2001343327D92001343B27C5200134374
S11313E0234342469380337E002B20D0102C00D11F
S11313F0D9E000D898E0202C00D1B6E0302C16D1EA
S1131400F27C002A0AD0F26980321720FF2A00D920
S1131410EFE6326A8032FF2A00D9EAE61720F26941
S1131420FF2A00DDE5E6326AFF2A00DDE1E63968DD
S11314304A7E52B2002AFBDB424613723A68537E5C
S11314405BB2002BFBDBB38B424693833A68537E3B
S11314505BB2002BFBDB338C424613842C23F35CFE
S1131460002B05D0013BDBB217200F2B00D9C0E6BF
S11314702B22B15C17200F2900D9BAE63868427EC6
S113148052B2002AFBDBF289307B0243B06802438C
S113149009050A431B041343424613612A23F35CE0
S11314A013750F2393751533F35C002B12D0F38C53
S11314B01A4A1720934200D99BE642469384328D00
S11314C080231B01D31815499BB28B4200D990E6A7
S11314D04346DA84124B1B685B01E022D2001340BE
S11314E0104A516849011268D20E0A43D2B213431A
S11314F04246138500207CE60004004000080040BA
S11315004C030020292800009D2700008955000075
S11315108056000079290000AC550000FF0F000040
S11315202460800020608000002C00D07FE7F27CE3
S1131530002A0FD0F269802109018C4662442A49AD
S113154017208A4200D954E6326A624426498A4204
S113155000D94EE6244A1720F169914200DD48E69D
S1131560316A914200DD44E661E7F27C002A0FD043
S1131570F269802189008C4662441C4917208A4202
S113158000D936E6326A624418498A4200D930E604
S1131590164A1720F169914200DD2AE6316A914228
S11315A000DD26E643E7F27C002A0FD0F2698021B1
S11315B009028C4662440E4917208A4200D918E673
S11315C0326A62440A498A4200D912E6084A17205C
S11315D0F169914200DD0CE6316A914200DD08E6D2
S11315E025E7172005E6C046FF0F0000FF030000B3
S11315F0FFFF000070B5254B1C6823681D7EEDB20B
S1131600EA0705D5E27ED20702D5A27ED20716D418
S11316106B0708D5042322681376E37E9B0702D563
S1131620A37E9B072AD4AB0708D50223226813762E
S1131630E37E5B0702D5A37E5B0723D470BD012242
S11316401A762268537E5BB2002BFBDB61698B1C2C
S11316506361538B9BB20B80238B013B9BB223832F
S1131660002BD5D1237F052BD2D10023237701333F
S1131670226893752000A3689847C9E72000E368AF
S11316809847D0E7236920009847D7E74C03002008
S1131690931C9B001950012393401A00837E13432B
S11316A08376704710B5038B9BB20524002B01D0C1
S11316B0200010BD037F052BFAD005230377028396
S11316C04161043B0268D375437F0024002BEFD0B3
S11316D00268537E5BB2002BFBDB137B02210B43BE
S11316E013730268537E5BB2002BFBDB0024DFE73D
S11316F01723002A01D0180070478B00064A9B5814
S1131700002B03D0834205D01D23F4E789008850C1
S11317100023F0E70023EEE75403002017230029F9
S113172001D01800704700221F2800D8024A012364
S11317308340D3600023F4E70018004017230029F6
S113174001D01800704700221F2800D8024A012344
S1131750834093600023F4E70018004070B5002232
S1131760104B1A70002310491F25104E0D4C0AE02F
S11317700D4908E023780133DBB223700F2B10D816
S113178000211F2BF4D92800184001228240086947
S11317901042EFD00A619B009B59002BEAD0984776
S11317A0E8E770BD500300200018004054030020F7
S11317B0044A137802210B43137053785BB2002B55
S11317C0FBDB70470018004000B583B0124A9369F0
S11317D040210B43936101A900230B7005200F4B9B
S11317E0984705200E4B98470E4A137801210B4366
S11317F0137053785BB2002BFBDB0B4B19004031A9
S1131800002204C39942FCD11022084B1A60084BF1
S1131810984703B000BDC0460004004029280000DA
S11318209D270000001800405403002000E100E060
S1131830B117000000230360436001220272427268
S113184083720233C3727047F0B583B005000C0095
S113185001A900234B70CB7023790B70237A8B7012
S11318602078154B984700201F2D00D813480722D5
S11318702A409200E77AA37A002B01D008231F4361
S1131880EB089B00C31899690F269640B143974013
S11318903A000A439A61637A002B06D14369012214
S11318A0AA409343436103B0F0BD42690123AB40B6
S11318B013434361F7E7C04679290000001800404C
S11318C000B583B001AB80221A700A785A704A7846
S11318D09A708A78DA701900014B984703B000BDFA
S11318E079290000F0B5DE4657464E464546E0B538
S11318F087B08046049116001F00002200230021B7
S11319008B463F2401202100009601975C460394F6
S11319104446059413E02024641A0500E540A846D3
S113192014E0009C019D121BAB415C464D462C43C8
S1131930A346039C45462C430394013925D3202414
S113194064420C19E7D40500A540A84604008C4065
S1131950A14692185B4114001D00059E4F463E406F
S1131960B446049E47463E40B246664657463E430A
S113197003D00600264332002B00009C019D9D42AB
S1131980DBD8CED19442D8D8CBE7039B5846190074
S113199007B03CBC90469946A246AB46F0BD10B594
S11319A0490840230024814202D2180010BD1C00C3
S11319B0091A631C9BB28842F9D94023FF2CF4D83E
S11319C014800023F1E70000F0B583B00F00160087
S11319D008AA117804004C434022BC4202D91000EA
S11319E003B0F0BD002B14D1020008000021194CF3
S11319F0A04701003A0000230020174CA047002212
S1131A000123121A8B41120C1B041A433280002248
S1131A10E5E70022012BF9D10A00002300210D4C37
S1131A20A04702000B0000920193380000210A4CE9
S1131A30A047050080239B0140229842CFD8790F0C
S1131A40F800009A019BA047EA00821AD2B252031E
S1131A502A43DBE7ED540000E518000010B582B01E
S1131A6004000E4B1B78002B07D0002905D10B4B2B
S1131A705B78834210D01D200CE001A90C70132068
S1131A80074B98471320074B9847044B5C7001227F
S1131A901A70002002B010BD0020FBE76C02002089
S1131AA0292800009D270000404B984231D00AD9D4
S1131AB03F4B98424DD03F4B98425AD03E4B9842B0
S1131AC037D0002070473D4B98420CD03C4B984295
S1131AD0F7D1012917D000295DD0022915D0032997
S1131AE015D00020EEE7012907D0002951D00229A2
S1131AF005D0032905D00020E4E73248E2E7324864
S1131B00E0E73248DEE73248DCE73248DAE73248D9
S1131B10D8E7012907D000293FD0022905D003299D
S1131B2005D00020CEE72D48CCE72D48CAE72D4844
S1131B30C8E7012907D0002931D0022905D003299B
S1131B4005D00020BEE72848BCE72848BAE7284863
S1131B50B8E7012907D0002923D0022905D0032999
S1131B6005D00020AEE72348ACE72348AAE7234882
S1131B70A8E7012907D0002915D0022905D0032997
S1131B8005D000209EE71E489CE71E489AE71E48A1
S1131B9098E71E4896E7032094E71D4892E71D48FE
S1131BA090E71D488EE71D488CE7C04600100042B0
S1131BB000180042001C00420014004200080042C9
S1131BC0000C0042030005000300060003000700A8
S1131BD00300010003001E0003001F0003000900AE
S1131BE003000A0003000B000300110003001200AD
S1131BF00300130003000D0003000E0003000F0098
S1131C000300170003001800030019000300040078
S1131C10030008000300100003000C00030016007A
S1131C2030B587B00B4B6A4632CB32C232CB32C2AC
S1131C30009B83420BD001239A006946525882428A
S1131C4006D00133062BF7D1002007B030BD0023A6
S1131C50D8B2FAE7D056000070470000F0B50A4B3E
S1131C601B78002B0CD1094F094E0A4D0024DE517C
S1131C705A1914600433182BF9D10122024B1A703B
S1131C808000024BC150F0BD6E02002070020020A3
S1131C90591C00009403002000B583B009236A4650
S1131CA0137001335370013393700133D3700133D4
S1131CB0137101335371034B98476B46185603B0A5
S1131CC000BDC046211C000010B5024B1B6800205B
S1131CD0984710BD7002002010B5024B5B680120CC
S1131CE0984710BD7002002010B5024B9B6802207B
S1131CF0984710BD7002002010B5024BDB6803202A
S1131D00984710BD7002002010B5024B1B690420D7
S1131D10984710BD7002002010B5024B5B69052086
S1131D20984710BD70020020F0B5DE4657464E4677
S1131D304546E0B591B005000C0016002960080086
S1131D40BC4B9847020023680520DB0706D511B079
S1131D503CBC90469946A246AB46F0BD236817307A
S1131D609B07F4D4B449086A971C0123BB4003437E
S1131D700B620FA92D27F35D0B701432D3B20293BB
S1131D801800AE4B98470298AD4B9847F05D002180
S1131D90AC4B9847F37A6B712423F35CAB71252326
S1131DA0F35CEB71F37E2B72337F6B722B68984676
S1131DB01800A04B9847143000220E2306A98C4625
S1131DC063441A80328A02928023DB019A4200D152
S1131DD09EE00FD9C023DB01029A9A4200D192E01F
S1131DE080231B029A4200D01FE1032306930023A1
S1131DF0079308E080239B019A4200D015E1102349
S1131E0006930F3B079333680593F3680393736951
S1131E100493337E9B462623F35C9A467368994663
S1131E20002B00D1A0E080235B05994500D184E01C
S1131E30737E002B02D0B37E424693732A68029FBE
S1131E40D369002BFCD10E3306AA944663441B8845
S1131E5042469381059B039A1343049A13434A46CB
S1131E6013431F435B461B021F4353465B071F4339
S1131E702723F35C002B01D104331F43737E9B02A1
S1131E80327F52021343727F120213432422B25C44
S1131E90520413432522B25C12041343B17AF27A3A
S1131EA0114319433389FF2B00D181E0802252046E
S1131EB0174319432C23F35C002B03D1624B9B780B
S1131EC09B0701D580231F432A68D369002BFCD1CB
S1131ED0434659602A68D369002BFCD143461F60EE
S1131EE00EAB80221A7000225A70DA709A70336B2B
S1131EF00A93736B0B93B36B0C93F36B02930D9375
S1131F0000270AAE63E008230693073B07937AE7AA
S1131F1033680593F368039373690493337E9B4694
S1131F202623F35C9A4673689946002B18D08023C5
S1131F305B05994501D0002025E02723F35C002BA5
S1131F4000D075E7336A1F00C0B2404B98470100C8
S1131F500E2206AB9C46624438003D4B984712E083
S1131F6008230693002307932723F35C002B0ED04A
S1131F70069B0093079B0E2206A98C466244B16A15
S1131F80306A344FB847002800D0E0E650E7336A9F
S1131F901F00C0B22D4B98470100069B0093079B7E
S1131FA00E2206A88446624438002A4FB847EAE75E
S1131FB0F37E002B00D17DE78023DB041F4379E708
S1131FC02000254B984707E00137042F0DD0F9B2C4
S1131FD0BB0098590028F3D0431CF5D00EA9087013
S1131FE0000CC0B21D4B9847EEE70023EB602B6159
S1131FF06B61AB61EB612B62AB626B620022EB85C0
S1132000AB853033EA540133EA540133EA540133E3
S1132010EA542868074B984704001149114B984724
S1132020A400114BE550002091E6102306930023F1
S11320300793E8E6211C0000000400402928000062
S11320409D2700005D1A0000002000414528000083
S11320509F190000C9190000A91A0000792900007D
S1132060512100005D1C000094030020F8B5060017
S11320700C00150007680A4B9847F38D9BB2002BA0
S113208003D0084B98470520F8BDF585054B9847C4
S1132090B46205223323F254323BBB750020F3E7CC
S11320A0DD1000001D110000F8B504000D0016003D
S11320B007680F4B9847A38D9BB2002B03D00D4BA1
S11320C098470520F8BDA6850A4B98476562052206
S11320D03223E2542E3BBB75237A002B01D02023FC
S11320E0BB75637A0020002BECD00823BB75E9E7AD
S11320F0DD1000001D110000931C9B00C3185960E3
S11321003021012393401A00435C13434354704726
S113211010B51723002A01D1180010BDC479053366
S1132120002CF9D0014B98470300F5E76D2000001F
S113213010B51723002A01D1180010BD8479053386
S1132140002CF9D0014B98470300F5E7A9200000C3
S1132150F8B58000624BC5582C68E369002BFCD1AC
S1132160237EA67D1E403023EB5C3122AF5C1F40F2
S1132170F30722D5EB8D9BB2002B1CD0AA6A1378EF
S1132180DBB2511CA962697901290ED09BB2DB052F
S1132190DB0D2385EB8D013B9BB2EB85002B0CD132
S11321A0013323750133A37507E0517809020B430A
S11321B00232AA62EBE701232375B30706D5022393
S11321C0237500223133EA54FB071AD4730765D50B
S11321D0AB8D9BB2002B5FD0638BDBB21A0714D498
S11321E03F221340002B34D09A0711D51A223223F0
S11321F0EA54303B63837B0750D528006B699847CA
S11322004CE02800EB689847E0E737221340E9E701
S11322105A0705D51E223223EA542E3B6383EAE78C
S1132220DA0705D513223223EA54313B6383E2E70C
S1132230DA0605D542223223EA54223B6383DAE7E5
S113224020221A42D7D021323223EA54123B63832C
S1132250D1E7238DDB05DB0DDAB2696A0A706A6A9D
S1132260511C69626979012910D0AB8D013B9BB285
S1132270AB85002B12D10433237500222E33EA548C
S1132280BB070BD528002B69984707E01B0A53703E
S11322906B6A01336B62E8E704232375F30604D504
S11322A0102323752376FB060ED4B30604D520230E
S11322B0237523763B070BD4330704D508232375F2
S11322C02376BB0608D4F8BD2800EB699847ECE7F1
S11322D02800AB699847EFE72B6A28009847F2E794
S11322E09403002010B5082803D880001B4B1B580A
S11322F09F46002030E01A4B18692DE0194B1B6AE9
S11323009B059B0F1848D84026E0154B586923E0DD
S1132310134B1B6800209B071ED512491022CB6863
S11323201A42FCD00E4B1B685B0701D40F4813E024
S113233000200F4B98470A4B9B681B041B0C584307
S11323400AE05023074AD35C00205B0704D5044B02
S1132350D86801E08020000210BDC046E8560000A5
S1132360880200200008004000127A00006CDC02A1
S11323704528000070B50C490B6A047885784078CC
S11323800122104080014026B34303432A40D20176
S11323908020834313430322224012020348034054
S11323A013430B6270BDC04600080040FFFCFFFFF2
S11323B010B5037A9B061B0C42899205920D1343B8
S11323C018494B608379C279134342888488224335
S11323D013434278D20113430B600378042B11D0CA
S11323E0202B0ED1037B9B06028A1343C28912045D
S11323F00D490A4013430B4A936011680B4B0B437E
S1132400136010BD037B9B06028A1343C289120426
S113241005490A401343034A9360136804210B439C
S11324201360EEE7880200200000FF03240400008C
S1132430082803D88000254B1B589F46172044E0EA
S1132440234A136A02210B43136200203DE0204A11
S1132450936902210B439361002036E01C4A138ADE
S113246002210B43138200202FE0194A938A022190
S11324700B439382002028E016490B680222134381
S11324800B60134B9A8419000E32CB681A42FCD0AD
S1132490104A91680E4BD96252689A6200229A845B
S11324A019001032CB681A42FCD00A4B1B689BB24D
S11324B0074A9384002008E0054944228B5C0220EB
S11324C003438B54002000E0002070470C570000A9
S11324D0000800408802002070B58AB0C222D200F1
S11324E0364B9A60364A53681E218B431A390B4384
S11324F05360012201AB1A700024324DE0B201A9ED
S1132500A8470134252CF9D105AB002200215980BC
S11325109A71DA71203119705A702B4B1B689B0E1B
S11325203F2B49D005A80372072303730333C381E8
S1132530264B4381FF3B8380254B0382254B9847E1
S113254004A800244470012686700470224B984726
S11325500620224DA847224B984701A94E604C7093
S113256006230B700C724C7203201E4B98470320F9
S11325701D4B98470720A84710491022CB681A42E0
S1132580FCD00E4A938C80210B439384174A00237A
S1132590137253729372D37201A901224A604B7071
S11325A04B7207330B700A7200200E4B98470020C1
S11325B00D4B98470AB070BD203BB3E700080040BC
S11325C0004000412928000024608000FF01000031
S11325D080BBFFFFB12300007523000031240000FD
S11325E0F125000015260000CD260000000400405F
S11325F0064A936908210B4393610122044B1A7024
S113260019000B781342FCD17047C0460004004007
S1132610000C004070B5060004000D782D0205433F
S11326204B78002B02D08023DB021D434B7A002B16
S113263002D080231B031D434868012810D9431E80
S1132640184234D1022830D90223002201325B001F
S11326509842FBD812023243140080235B031D43CB
S11326600B7A002B02D080239B031D43134A53781B
S11326705BB2002BFBDB124B9847124B1E700F4AC8
S113268053785BB2002BFBDB0C4B9C601A00537835
S11326905BB2002BFBDB094A5368802149020B40E3
S11326A01D435560084B984770BD0022D2E70402D1
S11326B0344380239B021D43D2E7C046000C0040F4
S11326C0DD100000080C00401D11000010B50400CE
S11326D00B4A53785BB2002BFBDB0A4B98470A4B3F
S11326E01C70074A53785BB2002BFBDB044A516829
S11326F080235B020B435360044B984710BDC046D4
S1132700000C0040DD100000040C00401D1100000E
S113271070B504001A4A53785BB2002BFBDB194BEB
S11327209847194B1C70164A53785BB2002BFBDB9D
S1132730134E7068C004C00E144B98470500124B2A
S11327401C707668F602F60F114B1C700C4A537815
S11327505BB2002BFBDB0A4B9C682402240C0D4B60
S11327609847002E07D1012C07D9210028000A4BD5
S11327709847050001E00134E540280070BDC046DB
S1132780000C0040DD100000040C0040E5220000B5
S1132790080C00401D110000C151000010B50400D8
S11327A0064B9847064B1C70064A53888021C90182
S11327B00B435380044B984710BDC046DD10000006
S11327C0020C0040000C00401D11000010B5040074
S11327D00F4B98470F4B1C700F4A53881B05180F5B
S11327E053880E490B40538053880D490B40538046
S11327F011008022D2014B881342FCD106494A8839
S113280003020648024013434B80064B984710BD11
S1132810DD100000020C0040000C0040FFF0FFFF40
S1132820FFBFFFFF1D11000010B50C782402044304
S1132830024B9847A4B2024B5C8010BDCD27000028
S1132840000C004010B50400064B9847064B1C7062
S1132850064B5C882405240F054B98472000054B44
S1132860984710BDDD100000020C0040000C004031
S11328701D1100001127000070B500281CDBC317D0
S1132880032632001A401218FF24A40022400E4CE2
S1132890A4466244C025AD0054599B0FC018304073
S11328A0C31ADB000633DBB29E40B4439940214394
S11328B051510023180070BD1723421CFAD1890717
S11328C0024B19620023F5E700E100E000ED00E0AF
S11328D030B5D378002B35D11378802B29D01B0643
S11328E080246402234354780225AC4306D19478AF
S11328F0002C20D18024A402234341605478013C5D
S1132900012C1CD90D042D0CA024E4052C431C43DC
S113291084620D0CD02424062C431C438462D47896
S1132920002C22D15B031CD59378012B1ED041616E
S113293017E00023D7E7C024E4022343DDE70D4C6E
S11329402340DFE741600C04240CA023DB05234370
S113295083620C0CD0231B0623438362D378002BA1
S113296003D15378013B012B02D930BD8161F8E7D3
S11329708160FAE7FFFFFBFF10B50A00C1090023DD
S1132980002904D14309DB0105498C4663441F2413
S11329902040012181401800024B984710BDC046D9
S11329A000440041D12800007047000010B5054BD9
S11329B09847054B9847054B9847054B9847054B57
S11329C0984710BDD92400004D110000A92900002A
S11329D0C9170000A9290000931C9B001950022A62
S11329E009D0032A0CD0012393401A00037E134319
S11329F0037600207047037E102213430376F8E722
S1132A00037E202213430376F3E7000070B58000B1
S1132A10164BC45823689D7B227E637E13401D4061
S1132A20EB0706D4AB070BD4EB0610D4AB0615D4D6
S1132A3070BD2000A3689847012322689373F1E7CF
S1132A402000E3689847022322689373ECE7200090
S1132A5023699847102322689373E7E7200063698A
S1132A609847236820229A73E2E7C046AC0300200B
S1132A7010B50020014B984710BDC0460D2A000038
S1132A8010B50120014B984710BDC0460D2A000027
S1132A9010B50220014B984710BDC0460D2A000016
S1132AA010B50320014B984710BDC0460D2A000005
S1132AB010B50420014B984710BDC0460D2A0000F4
S1132AC030B587B001A90C4B0A0032CB32C212CB0D
S1132AD012C2019B98420BD0012301A99A005258BB
S1132AE0824206D00133052BF8D1002007B030BD57
S1132AF00023D8B2FAE7C04630570000F0B589B0D9
S1132B0004000D0016000800854B9847070006AB2B
S1132B101B221A7001325A709A700132DA701A71DB
S1132B2003AA804B143303CB03C21B8813800023F6
S1132B30A360E3602361636123766376BA007A4B12
S1132B40D4502560B378082B06D023712B88052038
S1132B50DB0705D509B0F0BD1720FA07FAD5F4E76D
S1132B60EB7B1730DB06F5D42B889B07F2D4337C40
S1132B70002B79D1337F002B00D081E06B49086AA8
S1132B807A0003ABD35A03430B62B378082B00D10A
S1132B9086E001A933780B7006ABDF5D3800644B27
S1132BA098473800634B98473189B3880B43B17811
S1132BB0B279114319437378002B02D080231B018F
S1132BC019432268D37B5BB2002BFBDB2980717B2A
S1132BD04B1E99418900B37B002B01D0012319437B
S1132BE02268D37B5BB2002BFBDBFF232B71002914
S1132BF005D02268D37B5BB2002BFBDB6971B17A11
S1132C00F37A002B01D010231943337B002B01D01E
S1132C10202319432268D37B5BB2002BFBDBA97111
S1132C202268D37B5BB2002BFBDB2379042B3FD0E0
S1132C30082B5ED01720002B00D08BE7D37B5BB230
S1132C40002BFBDB338D2B822268D37B5BB2002B02
S1132C50FBDB738D2B832268D37B5BB2002BFBDB06
S1132C60B38D6B83002075E702A901238B700022CA
S1132C70CA70327E0A704B70307D2F4B984779E7CB
S1132C8002A901238B700022CA702432B218127870
S1132C900A704B701F33F3181878274B98476DE769
S1132CA0086A7A1C520003ABD35A03430B6270E7E1
S1132CB0D37B5BB2002BFBDB2823F35C2B742268F1
S1132CC0D37B5BB2002BFBDB2923F35C2B752268DF
S1132CD0D37B5BB2002BFBDB2A23F35C2B762268CD
S1132CE0D37B5BB2002BFBDB2B23F35C6B760020E6
S1132CF030E7D37B5BB2002BFBDBB36A2B6122682A
S1132D00D37B5BB2002BFBDBF36AAB612268D37B22
S1132D105BB2002BFBDB336BEB6100201AE7C04690
S1132D20C12A000030570000AC030020000400401A
S1132D30292800009D2700007929000010B584B0DF
S1132D4003AB00221A7003325A70013A9A70013AA6
S1132D50DA70274B1B78834207D0002807D1244B15
S1132D601B78002B23D1224B187004B010BD03AB89
S1132D701B5C204AD25CFF2A00D1FEE7EFF31082ED
S1132D8051424A41019272B6BFF35F8F00211A4A41
S1132D901170019C1749CA5C0132CA54002CDED060
S1132DA00122154B1A70BFF35F8F62B6D7E703AAEF
S1132DB0D35C104AD25C002A00D1FEE7EFF3108204
S1132DC051424A41029272B6BFF35F8F00210A4A10
S1132DD01170029C0749CA5C013ACA54002CC2D043
S1132DE00122054B1A70BFF35F8F62B6BBE7C04682
S1132DF02003002044030020E800002043060BD0F9
S1132E000F2303405B00C009181802388300181808
S1132E108000024B181870470020FCE7A80200202D
S1132E20F0B5D6464F464646C0B589468D796BB255
S1132E30002B26DB28005E4B984704000F272F4009
S1132E40038A98464B461B889A46837C5B076AD460
S1132E50E36853441E00E360A3689E4200D874E014
S1132E60E360A37C01229343A3742368002B03D063
S1132E70E1682A00002098471CBC90469946A24667
S1132E80F0BD28004A4B984704000F272F40038ABF
S1132E9098464B465E88C3689C466644C660816813
S1132EA08E4225D08D1BADB2424B9D4206D91D00EA
S1132EB041461800404B98476D1AADB2A27C0023DE
S1132EC0920707D5414628003C4B984789B24B42AC
S1132ED04B41DBB25B00A27C02218A431343A374FF
S1132EE0626892192B0039003548364CA047C3E775
S1132EF0837C9B070BD4837C0122934383740368F4
S1132F00002BB9D02A00310000209847B4E7837C15
S1132F10022293438374426892190023390028489B
S1132F20284CA047A8E74368C268944663441E003F
S1132F3041468068214B98470A007B1E9B01224929
S1132F4059183000214B984782E74A4692885245E7
S1132F5000D086E79E4200D183E79B1B9DB2154BB0
S1132F609D4216D91D0041461800134B98476B1A11
S1132F709BB2984514D9A37C04221343A3747A1EEC
S1132F809201114BD218434639000D48104CA0470A
S1132F9072E741462800094B98476B1A9BB2E8E751
S1132FA06268921939000648094CA04764E7C04694
S1132FB0FD2D0000FF1F0000A1540000CD520000B1
S1132FC0800400200D410000C0030020895500004A
S1132FD06141000010B50522054B1A70054C802193
S1132FE02000054B984700212000044B984710BD52
S1132FF0A6020020800400206140000087400000F9
S113300070B50E000E4C062120000E4DA847042179
S11330102000A847022120000B4B984702200B4BAD
S113302098473368002B04D1094B9847094B9847BC
S113303070BD094B98473368002BF7D1F4E7C046BD
S113304080040020A13B0000813B00003D2D0000D6
S11330505D4E0000514E0000694E000070B5134BE8
S11330609B8C9B061CD41149D022CB681340D02BD7
S1133070FBD10F4C022120000E4B98470421200065
S11330800D4DA8470D4A062120000D4B98470621F7
S11330902000A84703200B4B98470B4B984770BD63
S11330A002491022CB681A42FCD0E2E70008004033
S11330B080040020A13B0000813B0000013000009F
S11330C05D3B00003D2D0000214E000030B583B073
S11330D004001E4B984780232268937201AD280098
S11330E01B4B984703236B7029002000194B98470A
S11330F019492000194B9847194B0222002120003E
S1133100184DA847184B002200212000A847174B50
S1133110012200212000A847022200212000144D92
S1133120A847002200212000A847012200212000F6
S1133130A84721680B890F4A1A408023DB001343F8
S11331400B8100220C4B1A7003B030BD0D0C000033
S1133150AD3D0000BD3D000000060020B14100006F
S1133160B5320000BD3B0000E5350000B931000078
S11331700D3C0000FFF3FFFFA602002010B5032260
S1133180074B1A70074C08492000084B9847084B16
S11331909A68002300212000064CA04710BDC046B9
S11331A0A60200208004002000060020B141000097
S11331B0E80500200D41000010B589794BB2002BC1
S11331C006DB0E4B1B78022B0FD0032B11D010BD46
S11331D00A4B1B78012B05D0042BF8D10848094B66
S11331E09847F4E7084B9847F1E70422034B1A7019
S11331F0EDE70348034B9847E9E7C046A6020020E1
S113320080040020614000007D31000070B5204B37
S11332101B88204A9489E41AA4B2002C18D11E4AAF
S113322011885B189BB213801A4AD2889A4223D021
S11332301A4B1B78002B1FD1164B5B69002B23D034
S11332409847002820D00022114B1A80114B9C89EA
S11332503F2C19D90022114B1A7040240C4D2B8895
S11332600C4A9268D218230000210D480D4EB04735
S11332702B88E4182C8070BD04220B4B1A700B4968
S113328007480B4B9847F6E70122044B1A70E5E711
S1133290A2020020E8050020A4020020A0020020D1
S11332A0800400200D410000A6020020000600203A
S11332B0B141000010B50C002C4B1B78002B07D03B
S11332C02B4B1B69002B00D098470022274B1A7008
S11332D02388082B02D0274B984710BD244A264B3D
S11332E01978117059785170D878000299780918B2
S11332F0518058790002197909189180D979090205
S11333009B795B18D3801D4B9847002816D0184B27
S11333101B787F2B15D8164BDB88002B22D000237B
S1133320174A1380174A13800122104B1A70402346
S1133330114A00211448154CA047CEE70D4B98477D
S1133340CBE700230E4A13800E4A13800222074B58
S11333501A704023084A00210B480C4CA0470C4B20
S11333609847BAE70B4B9847B7E7C046A602002038
S1133370E8050020D52F0000000600209D0C000069
S1133380A4020020A2020020800400206141000069
S11333900D3200007D31000010B5024B9847024BFE
S11333A0984710BD590C00002D4E000010B5074C75
S11333B004212000064B984702212000054B984722
S11333C00120054B9847054B984710BD8004002009
S11333D0A13B0000813B00003D2D0000154E000084
S11333E010B5040001000A480A4B984720000A4B14
S11333F09847837CDB070AD5837C0122934383743B
S11334000368002B03D0C16822000120984710BD37
S11334108004002001400000FD2D000000207047C2
S1133420024B1B68188A8004400D704780040020FA
S1133430024B1B68188A80B27047C0468004002083
S113344070B582B0040001AD28000D4B98472000F0
S11334500C4B98472C700023EB700B4E2900300066
S11334600A4B98470F21214000223000084B98470F
S1133470002221003000074B984702B070BDC046BF
S1133480AD3D0000E133000080040020BD3D00009C
S1133490E53B0000DD3C0000F0B583B005000F0003
S11334A0140001AE3000364B98473570082C13D801
S11334B0002201AB5A702800324B98470482032142
S11334C03940012938D0022943D0002303293DD1B2
S11334D0042201ABDA7032E0102C03D8012201ABD4
S11334E05A70E8E7202C03D8022201AB5A70E2E7B5
S11334F0402C03D8032201AB5A70DCE7802C03D89C
S1133500042201AB5A70D6E780235B009C4203D8A7
S1133510052201AB5A70CEE780239B009C4203D85E
S1133520062201AB5A70C6E7174A002394420DD80D
S1133530072201AB5A70BEE7022201ABDA7001A97F
S11335401248134B98470023002806D0180003B0F4
S1133550F0BD032201ABDA70F1E70F2129400B4CD7
S11335600C4B002220000C4EB04700222900200002
S11335700A4EB047012229002000B0470123E5E7A5
S1133580AD3D0000FD2D0000FF030000800400207D
S1133590BD3D0000212E0000BD3B00000D3C00009D
S11335A010B501000148024B984710BD800400206B
S11335B03740000010B504000F2303400020032B04
S11335C000D910BD21000448044B98472000044B47
S11335D098470120F5E7C0468004002061400000C0
S11335E0E133000070B5344B1B78012B0AD0022B59
S11335F05FD0324B1B69002B00D0984700222E4B22
S11336001A7070BD0D882D4B9B892D4A1488621940
S1133610934201DA1D1BADB2284B986800192A00A9
S11336202849294B98476419A4B2254B1C80402D86
S11336300AD0224B9C815B69002B02D0984700285A
S113364014D0224B9847DCE71C4BDA88204B1B88AC
S11336501B199A42EDDD194B9B89A3420CD04023E0
S1133660184A00211B481C4CA047CAE70522124BEC
S11336701A701A4B9847C4E7104B5B69002B0BD0A8
S1133680984700280FD012490D4A0B8810881B1840
S11336900B8000231380E2E70522074B1A700020F9
S11336A00E4B9847ADE70522034B1A700B4B984716
S11336B0A7E70B4B9847A4E7A6020020E8050020E3
S11336C0A202002000060020895500007D31000080
S11336D0A40200208004002061410000B5350000F0
S11336E00D32000070B504000F2303400020032BAB
S11336F000D970BD2000094B9847050021000848F7
S1133700084B9847AB7C0120DB07F2D5AB7C012248
S11337109343AB742B6898470120EAE7FD2D000022
S11337208004002087400000F0B587B005000391B5
S1133730029201930F2606400024032E02D9200092
S113374007B0F0BD644B9847041E00D0BDE02800CC
S1133750624B98470700EFF310835A425341059395
S113376072B6BFF35F8F00225D4B1A70059A837C9B
S1133770DB0708D5002AE2D00122594B1A70BFF3A7
S11337805F8F62B6DBE7837C01210B438374002ADD
S113379005D00122524B1A70BFF35F8F62B6029BB1
S11337A07B60019BBB600023FB600C9B3B6001239F
S11337B0039A13405A00BB7C02218B431343042217
S11337C09343BB746BB2002B20DB019B002B6FD0A7
S11337D09CB2444B9C425AD9398A1C001800424B73
S11337E09847631A9AB23B8A9A4257D2BA7C042108
S11337F00A43BA74721E92013C49521831003C4883
S11338003C4CA04744424441E4B298E7019B002B5E
S113381027D09DB2334B9D4206D9398A1D0018002A
S1133820314B98476B1A9DB2BB7C9B0707D5398AED
S11338302800314B984789B24C424C41E4B20120F4
S113384020404000BC7C02239C430443BC742B00F6
S1133850029A31002648294CA04744424441E4B22C
S11338606DE7BB7C9B0705D5BB7C02229343BB74ED
S11338700025ECE7BB7C01229343BB740C9B002B1B
S113388025D02A00002100209847012457E7398ACF
S11338902000194B9847631A9AB2A4E71300029ABE
S11338A031001348134CA04744424441E4B246E774
S11338B0BB7C01229343BB740C9B002B09D02A00D0
S11338C0002100209847012439E7002437E7012428
S11338D035E7012433E7C046A1350000FD2D000083
S11338E0E8000020FF1F0000A1540000C0030020D6
S11338F08004002061410000CD5200000D41000011
S1133900024B1B6880221043987270478004002089
S1133910024B1B68987A4006400E704780040020D2
S113392010B5124B9B8C9B061AD41049D022CB683D
S11339301340D02BFBD103200D4B98470D4B1A6835
S1133940537B022B0BD005210220138903439BB226
S11339501381537B022B02D001390029F5D110BD0C
S113396002491022CB681A42FCD0E4E70008004068
S11339703D2D000080040020014B98609981704720
S1133980E805002010B5054B1A68138901210B4383
S113399013810120024B984710BDC04680040020CB
S11339A03D2D000070B50320164B9847164C226835
S11339B0138901218B431381144A03312000144ECF
S11339C0B047144A00212000B047134A01212000C7
S11339D0B047124A02212000B04704212000104DB4
S11339E0A84700212000A84701212000A847022160
S11339F02000A8470B4A06212000B04706212000DA
S1133A00A84770BD3D2D000080040020AD330000A8
S1133A105D3B000099330000CD3000005D300000B4
S1133A20813B00000130000010B500210E20084B3E
S1133A309847084B1B6A5B0406D4074B9847002140
S1133A400E20064B984710BD054B9847F7E7C04634
S1133A503D17000000440041853900001D17000097
S1133A60A539000070B586B0EFF310835A42534174
S1133A70019372B6BFF35F8F0026294B1E70019D20
S1133A8005AC2000274B9847A670274E22002749F3
S1133A903000274B98473000264B9847264B9B8C89
S1133AA09B0634D42449D022CB681340D02BFBD1BD
S1133AB00120224B984702AC2000214B98470E234B
S1133AC002930023636023720333E372023BA37205
S1133AD000210E201B4B984721000E201A4B9847BB
S1133AE000220E2119481A4B984700210E20194B29
S1133AF09847194B1B6A5B040FD4002D05D0012293
S1133B00074B1A70BFF35F8F62B606B070BD0A49E7
S1133B101022CB681A42FCD0CAE70C4B9847ECE75A
S1133B20E8000020BD470000800400200050004150
S1133B30CD470000E1410000000800403D2D000099
S1133B40351800003D17000049180000293A00000C
S1133B50F11600001D1700000044004110B50B00D1
S1133B602E339B001A50AA2252004900835A034C58
S1133B70095B0B438352002010BDC046645700000C
S1133B804900064BCB5A02689383AB214900425A41
S1133B901A4342520268138300207047645700009E
S1133BA04900054BCA5AAB214900435A9343435237
S1133BB003689A82002070476457000010B58C0097
S1133BC0A4183434A4000419636040185930FF3039
S1133BD0037803498A5C13430370002010BDC04678
S1133BE07457000010B58B009B1834339B00C31826
S1133BF000245C6040185930FF30034B9A5C037812
S1133C0093430370002010BD7457000070B50F2358
S1133C100B40C4186134FF3425782F4EB65C35430D
S1133C202570002A29D1002B12D103250A24FF3440
S1133C3006683555032A09D149B2002944DB0268D4
S1133C405B01D3180A33FF3320221A70002070BDA1
S1133C504CB2002C08DB5C010568AC4664440A34B1
S1133C60FF3401252570E5E75C010568AC46644432
S1133C700A34FF3402252570DCE7012A1AD1002B0F
S1133C8005D102680C210A23FF33D154DEE749B27F
S1133C90002907DB02685B01D3180A33FF330422CF
S1133CA01A70D3E702685B01D3180A33FF33082282
S1133CB01A70CBE7022ABDD102685B01D3180A331C
S1133CC0FF3310221A70C1E702685B01D3180A336C
S1133CD0FF3340221A70B9E77457000070B50F2300
S1133CE00B40C4186134FF342F4DAE5C2578B543C6
S1133CF02570002A29D1002B12D1032584246400C5
S1133D0006683555032A09D149B2002944DB026803
S1133D105B01D3180933FF3320221A70002070BDD1
S1133D204CB2002C08DB5C010568AC4664440934E1
S1133D30FF3401252570E5E75C010568AC46644461
S1133D400934FF3402252570DCE7012A1AD1002B3F
S1133D5005D102680C210933FF33D154DEE749B29F
S1133D60002907DB02685B01D3180933FF330422FF
S1133D701A70D3E702685B01D3180933FF330822B2
S1133D801A70CBE7022ABDD102685B01D31809334C
S1133D90FF3310221A70C1E702685B01D31809339C
S1133DA0FF3340221A70B9E77457000000230370F0
S1133DB0437083700133C37070470000F0B50C7812
S1133DC00F23234064B2CA78042A70D89200894D24
S1133DD0AA589746026808335B01002199540022CF
S1133DE082E05C0102689446644480225200A55C2F
S1133DF0E43A6D0778D1E432A65C7025E43A2E42A9
S1133E0072D15F3DE432A5541A00083252010468AD
S1133E10A4182F35657100688218802010718A7883
S1133E20002A1FD05801744A1218546880200006D2
S1133E300443546054692043506107254C785A0167
S1133E406D4B9B1858682C4024076C4E304020431F
S1133E50586049785A692940090732400A435A612F
S1133E60002241E05801644A12185068400040089A
S1133E7050605069400040085061DEE7002C35DB9B
S1133E805D0102689446654480225200AE5CE43AC7
S1133E90760729D180267600AA5D02273A43AA55DF
S1133EA00268180008304001121840205071E20FD7
S1133EB04F785D00AD182D014F4E751968680724C1
S1133EC03C4024074D4E30402043686089780029E7
S1133ED000D088E05B009B181B01474AD3185A683E
S1133EE0520052085A6000221000F0BD5D010268C1
S1133EF09446654480225200AF5C7026E43A37420F
S1133F00F2D19036AA5D20273A43AA5502681800D8
S1133F1008304001121880201071C8E7002C17DB0C
S1133F205D0102689446654480225200AE5CE43A26
S1133F307607D9D180267600AA5D03273A43AA558D
S1133F400268180008304001121840205071AEE792
S1133F505D0102689446654480225200AF5C70267D
S1133F60E43A3742C0D19036AA5D30273A43AA5585
S1133F70026818000830400112188020107196E77A
S1133F80002C17DB5D0102689446654480225200D0
S1133F90AE5CE43A7607A7D180267600AA5D0427B2
S1133FA03A43AA550268180008304001121840200C
S1133FB050717CE75D01026894466544802252009A
S1133FC0AF5C7026E43A374200D08DE79036AA5DA4
S1133FD040273A43AA5502681800083040011218D5
S1133FE08020107163E7696880231B060B436B60B4
S1133FF0002279E75057000040060020FFFFFF8FA2
S11340000F230B4049B200290ADB08335B01026825
S1134010D218402151710268D3180122DA71704715
S113402008335B010268D218802111710268D31829
S11340300222DA71F3E70F230B4049B2002907DBB0
S1134040026808335B01D3189879C006C00F704723
S1134050026808335B01D31898798006C00FF6E72D
S11340600F230B4049B2002906DB026808335B01C9
S1134070D31810225A717047026808335B01D318B1
S113408020225A71F7E730B50F230B4049B20029BB
S11340901DDB59010268521883246400145DE40690
S11340A014D510258224640015550268521808217D
S11340B0FF31515C890609D5E43C0821FF31545491
S11340C0026808335B01D31801221A7130BD59010B
S11340D00268521883246400145DA406F6D52025D2
S11340E0822464001555026852180821FF31515C7E
S11340F04906EBD5C43C0821FF3154540268083307
S11341005B01D31802221A71E0E7000030B50C00FD
S1134110083464010568645D6406640F1C25002C82
S113412001D1280030BD4C010B4D2D192C002A6102
S11341306A690A4D2A40626162699B049B0C920B76
S113414092031343636103680831490159188023BA
S11341504B710025E5E7C04640060020FF3F00F014
S113416030B50C00083464010568645D64071C25DF
S1134170002C01D1280030BD0B4C4D012A5162198D
S113418054689B041B09094D2C4023435360536816
S11341909B0B9B0353600368083149015918402362
S11341A00B710025E6E7C04640060020FF3F00F003
S11341B0094B19605A6809491140802292020A4346
S11341C05A605A68920B92035A6002684021822313
S11341D05B00D1540020704740060020FF3F00F0F0
S11341E00268137802210B43137002689378022B40
S11341F0FCD07047F0B5DE4657464E464546E0B51E
S113420083B0C24B1F683D682B78DB0914D12E8C18
S1134210B6B2002E00D0A9E1AE8BB6B2AB235B00E0
S1134220FB5AAA225200BD5A1D4035400024B84F03
S1134230B64B9946984684E12B8C9BB2002B00D157
S1134240DEE0288C80B2B34B984704001F2800D9C5
S1134250D6E0030008335B01ED18ED79EDB2AB074E
S113426041D0AD4A01238340116899431160030092
S113427008335B013A68944663440322DA713B18BD
S1134280AE331B78DB072ED5A44B18703A680300B5
S113429008335B019B5C9B079B0F012B00D181E0E2
S11342A042019F4B9B185A681201920C90B29B4991
S11342B04A805A689204920C8A805A6899490A4042
S11342C05A60002807D16201954B9B185B689B04D8
S11342D09B0C924A53808D4B1868A31C1B01C31876
S11342E05B688E4998476B070ED58B4A0123A34020
S11342F0116899431160854B1B681B6822000832C2
S113430052019B180422DA712B0714D5824A012327
S1134310A3401168994311607C4B1868230008334B
S11343205B010268944663440822DA710319AE33D0
S11343301B789B0747D4EB0614D5774A0123A34087
S1134340116899431160714B1868230008335B01AD
S11343500268944663441022DA710319AE331B7861
S11343605B073ED4AB0600D4B0E06B4A0123A34004
S1134370116899431160654B1868230008335B0189
S11343800268944663442022DA710319AE331B7821
S11343901B0700D49AE061490C7024010419236BB3
S11343A0984793E042015E4B9B185A689204920C22
S11343B05A494A805A681201920C8A805A68920BB0
S11343C092035A6087E755490C706201544B9B185D
S11343D0DB891F2213404B702301C3189B6A984743
S11343E0A9E74E490C7062014D4B9B185B681B0199
S11343F09B0C4B802301C318DB6A00219847B1E76B
S1134400AC8BA4B2630705D50423AB83A133FB5C57
S1134410DB0762D423070BD500223F4B1A603B4BCA
S113442018680823026893839D33C35C9B0758D4A0
S1134430630608D5354B18684023026893836533B7
S1134440C35CDB0650D4A30608D5304B1868202380
S1134450026893838533C35C1B0748D4E30608D5FD
S11344602A4B18681023026893839533C35C5B0757
S113447040D423060BD50022274B1A60234B18681F
S11344808023026893832533C35C9B0635D4E305FC
S11344900CD50022204B1A601C4B186880235B004B
S11344A0026893835B3BC35C5B0629D4A3050DD5EB
S11344B00022194B1A60154B186880239B00026870
S11344C093835C3BFF3BC35C7F2B1CD803B03CBC99
S11344D090469946A246AB46F0BD7B6838009847A3
S11344E098E783689847A3E743699847ABE703696C
S11344F09847B3E7C3689847BBE783699847C6E71B
S1134500C3699847D2E7036A9847DFE7240300208A
S113451064570000AD540000340300203803002029
S113452040060020FF3F00F023002E339B0042464C
S113453012689B589E494246106898470134072CDC
S1134540C4D06300DB5B334203D04A46126812686E
S113455093832B42F2D0062CE6D1964B1B891B0980
S1134560802252001340924A1360DDE73C00593424
S1134570FF340023012294465F329146503A92461A
S11345800D3A9346B8462F00B9E02A003D0047464D
S113459090465B01ED180823FF33EB5C5B0616D5F0
S11345A040220823FF33EA54883BFF3B424613432F
S11345B0814A937160230B4200D187E7019B1B0161
S11345C0FB18E0331B687C49380098477EE70823D2
S11345D0FF33EB5C9B06EDD520220823FF33EA541E
S11345E0754B42469A71E5E73D004746019A130030
S11345F008335B01ED181023EB71BB186133FF33F3
S11346001B78DB0600D461E710005201694B9B184C
S11346105B689B049B0C68490B800301FB18DC332B
S11346201B684046984751E72A003D00474690469C
S11346305B01ED180823FF33EB5C9B071ED50222B8
S11346400823FF33EA545C48883BFF3B424613434C
S11346508371019B5A01574B9B1810335B689B0471
S11346609B0C43808B0700D130E7019B0D331B016A
S1134670FB185B6850493800984727E70823FF3345
S1134680EB5CDB07EED501220823FF33EA544A48EA
S113469043468371019B5B01464AD21853689B04CD
S11346A09B0C038053681B019B0C8380DAE7082270
S11346B0FF329A5C52076ED504200822FF329854C8
S11346C0019842013B4B9B189B7A9B0705D5394BBC
S11346D09B189A7A022082439A72374B42469A7107
S11346E0019B08335B013A6894466344DB79DB073A
S11346F051D5EBE601330134082B00D1E6E6DDB2F7
S1134700019332001A4161461142F3D01A00083273
S11347105201BA18D279D2B2217A114020780140DC
S11347204846104200D030E75046104200D05BE7C4
S11347305846104200D077E70C201042DAD02A0005
S11347403D00474690465B01EB180822FF329A5C15
S11347501207ACD504380822FF329854019842015C
S1134760144B9B189B7E9B0705D5124B9B189A7E76
S1134770022082439A7680235B42424613430E4AC8
S11347809371019B08335B013A6894466344DB7977
S11347909B0700D59AE60C230B4200D196E6019BB9
S11347A01B01FB18D8331B680349380098478DE672
S11347B028030020400600202C0300200022027061
S11347C0012343708270C37070470000F0B5CE4679
S11347D0474680B583B004000D00160000236E4ADE
S11347E013606E4A106021606D49CA69202002433B
S11347F0CA6101AF7B700122BA70FB70063399461F
S11348003B7039000838674B984698474B463B70D5
S113481039001920C047B3786A46137069460620E8
S1134820614B98470620614B98472B78012213432C
S11348302B70AB78DB07FCD45D4AD37803218B4320
S113484002210B43D370D3780C218B4308210B43F3
S1134850D370584B1B689B03DB0E1F2B00D18FE0DA
S11348602A8D9B0154490A4013432B85514B1B68E5
S11348705B02DB0E1F2B00D184E02A8D1F218A43AB
S113488013432B854B4B1B689B015B0F072B00D1FC
S11348907AE02A8D1B0349490A4013432B85327859
S11348A02978D2017F230B4013432B7071782B7826
S11348B001220A40920004218B4313432B70404B86
S11348C06B62F378012B61D0002B06D12268138927
S11348D00C218B4304210B431381802252000021BD
S11348E03748384B9847231D21002431002204C344
S11348F08B42FCD12100A43100221A605A609A60D4
S1134900DA6010338B42F8D10023A422A35401327D
S1134910A3542300A6332100AE3100221A701A7268
S113492001339942FAD12300B8332100D431002253
S113493004C38B42FCD121005531FF3100221A609F
S11349405A609A60DA6010338B42F8D10023AA22AD
S11349505200A3520232A35223005933FF3361346D
S1134960FF3400221A701A720133A342FAD1802252
S1134970154B1A60002003B00CBC90469946F0BD5C
S11349801A3B6DE7023B78E7043B82E72268138910
S113499008318B431381A0E7340300202403002053
S11349A00004004079290000292800009D27000008
S11349B000500041246080003FF8FFFFFF8FFFFF9D
S11349C0400600209B55000000E100E0FEE70000E7
S11349D0F8B52A4A2A4B9A4211D01A00294B9A4216
S11349E00DD2294A03339B1A9B0801339B000022F2
S11349F0234822498C58845004329A42FAD1234ADB
S1134A00234B9A420AD2D34321495B1803218B4397
S1134A1004339B18002102C29342FCD11D4AFF219A
S1134A201D4B8B439360FD3990235B001B4AD1508F
S1134A301B4AD3780325AB4302242343D370D37892
S1134A400C27BB4308263343D370164B987B302284
S1134A509043202210439873997BB943314399734F
S1134A609A7BAA4322439A730F4A536880210B43CB
S1134A7053600E4B98470E4B9847FEE7A057000033
S1134A8000000020EC00002004000020EC000020C6
S1134A903448002000ED00E00000000000700041F8
S1134AA000500041004800410040004141550000D1
S1134AB0614C000003683E2252421A82074B1A6876
S1134AC0537E5BB2002BFBDB137B02210B4313737E
S1134AD0537E5BB2002BFBDB7047C0469C47002033
S1134AE0F0B5C64600B58022920117491748184B05
S1134AF09847184A1368802189018C4663441360DF
S1134B00154A934202D804BC9046F0BD134B984713
S1134B100D4C8023DB01E618114D124B9846124FC1
S1134B2005E00023E05EC0470234B44206D0A84743
S1134B300028F6D1B8470D4B9847F5E70C4B98473A
S1134B400022044B1A60DEE7440700209C47002043
S1134B50A516000044470020FF1F0000D1010000FB
S1134B608D090000550A0000DD050000D501000094
S1134B70D301000010B50C4C00220C4920000C4B52
S1134B80984720680B4B98470B4B1A5C1F23134024
S1134B90012211009940094B1960637E01210B43E6
S1134BA0637623685A7310BD80470020B54A00001D
S1134BB0D9290000C12A00007857000000E100E074
S1134BC010B58CB06846184B984700230293032213
S1134BD069460A706A464B8002334B70013BCB74C2
S1134BE000230B738023DB00CB8132230B710F4C2A
S1134BF00F4920000F4B98472268537E5BB2002B6D
S1134C00FBDB802109040C4B19600F239375137689
S1134C10137802210B431370044B1A68537E5BB262
S1134C20002BFBDB0CB010BD851100009C4700205D
S1134C3000400042CD11000000E100E010B5054C39
S1134C40002205492000054B9847E37E01221343C7
S1134C50E37610BD9C470020E14A00009116000055
S1134C60F0B5DE4657464E464546E0B58FB00122C4
S1134C70544B1A70BFF35F8F62B6534B0024002568
S1134C801C705C709C70DC701A71504B9847504BD0
S1134C909847504B984701AA94709471148100234B
S1134CA053709572D5721573957355731574546159
S1134CB09461157714625462148554859485032392
S1134CC013708023DB009380434C44492000444B01
S1134CD098472368DA7B52B2002AFBDB1A88022148
S1134CE00A431A803F4B9847012117203E4CA047A6
S1134CF000211320A0470122324B1A70BFF35F8FAB
S1134D0062B63A4B98473A4B98473A4B98478022B9
S1134D109201394939483A4B98472A4F0024261CB6
S1134D20294DB84601239C46BB46364B9A460F2371
S1134D3099460EE0190001324B1CDBB210780028B2
S1134D40F8D0002B0FD1434662461A70BFF35F8F31
S1134D5062B672B6BFF35F8F3E702B78002BF2D130
S1134D602100194AE7E772B6BFF35F8F5B461C70F8
S1134D7053469B691B0A4A461340022B05D8224A14
S1134D805068C0239B000343536002290BD90329B5
S1134D9011D00C4B62461A70BFF35F8F62B6BFF33B
S1134DA04F8F30BFD5E7194A136904208343136139
S1134DB0174B5970EDE7154A136904210B4313612E
S1134DC0E7E7C046E800002044030020AD290000C6
S1134DD0C14B00003D4C00008047002000300042E1
S1134DE0FD2A0000754B0000792800002D01000009
S1134DF089010000010C0000440700209C470020AA
S1134E00A5160000002000410040004100ED00E034
S1134E100004004010B5014B984710BD8901000003
S1134E2010B5014B984710BDB901000010B5054BF2
S1134E301B78002B00D110BD034B9847034B9847B8
S1134E40F9E7C0463E03002021340000D9010000E8
S1134E5010B5014B984710BD8901000010B5014BF6
S1134E60984710BDA901000010B5014B984710BD2B
S1134E709901000010B50122024B1A70024B9847A9
S1134E80012010BD3E0300205151000010B5002246
S1134E90024B1A70024B984710BDC0463E030020D7
S1134EA08951000010B5002902D1034B984710BD69
S1134EB0024B9847FBE7C046CB010000C901000044
S1134EC010B50B4B98470B4B984700280BD00A4B57
S1134ED018780A4B98470A4B984701220649094813
S1134EE0094B984710BD094B9847094B9847F2E77F
S1134EF0D10100008D0900003F030020550A000085
S1134F00D30100000048002031210000DD0500002D
S1134F10D501000010B501220E4B1A700E4B9847B4
S1134F2000280BD10D4931228B5C012083438B5423
S1134F300B4B98470022074B1A7010BD094B98473A
S1134F40094B98470949087001220448084B9847BF
S1134F50F0E7C0464003002011080000004800208C
S1134F60CF010000CD010000ED0800004103002046
S1134F701121000010B50B4B1B78002B00D010BD85
S1134F80094B9847094C3122A35C01210B43A354DC
S1134F90074B98470749087001222000064B9847A1
S1134FA0EDE7C04640030020CD010000004800208A
S1134FB0ED080000410300201121000070B5574B9B
S1134FC08022D2051A6000225A60FF201881002036
S1134FD09A72DA729624A4011C62012424255C5579
S1134FE001355C5525341A5501341A559A628824C2
S1134FF06403DC602C241A551A635A639A63DA63D7
S11350005A611A82DA7618761877587613229A76C5
S1135010587703201A3298540B79022B02D1133299
S11350203E4B9A724B79012B67D0022B02D100229E
S11350303A4B1A818B79062B68D0072B6AD0052B43
S113504060D00A784B781B0213438A781204134306
S1135050CA7812061A43314B1A6280225203DA606C
S11350602F4A1A632F4A5A63012252429A63DA631F
S11350702D4D2C6820002D4B98471F2318401E3BB4
S1135080834080222A498B502A68D369002BFCD1A3
S11350902368022293432360234D204A2549280094
S11350A0254B98472C682000204B98471F23184015
S11350B01E3B83401E4A13602A68D369002BFCD12F
S11350C02368022213432360174C00221B4920004B
S11350D01B4EB0473125635D012213436355012202
S11350E018492000B047635D02221343635501222F
S11350F015492000154B984770BD80229201074B3B
S11351001A8197E70522054BDA729AE70622034BC8
S1135110DA7296E70722014BDA7292E7C047002061
S1135120020016000200170000480020991C00002D
S113513000E100E000140042291D0000154F0000AA
S1135140F9200000C14E00003F030020312100007F
S113515070B50A4D2C682000094B98471F2318404E
S11351601E3B8340074A13602A68D369002BFCD195
S1135170236802221343236070BDC0460048002008
S1135180991C000000E100E070B50A4D2C68200075
S1135190094B98471F2318401E3B83408022074930
S11351A08B502A68D369002BFCD1236802229343D5
S11351B0236070BD00480020991C000000E100E05D
S11351C0002243088B4274D303098B425FD3030A42
S11351D08B4244D3030B8B4228D3030C8B420DD355
S11351E0FF22090212BA030C8B4202D312120902E3
S11351F065D0030B8B4219D300E0090AC30B8B4221
S113520001D3CB03C01A5241830B8B4201D38B03CE
S1135210C01A5241430B8B4201D34B03C01A524173
S1135220030B8B4201D30B03C01A5241C30A8B42B6
S113523001D3CB02C01A5241830A8B4201D38B02A1
S1135240C01A5241430A8B4201D34B02C01A524145
S1135250030A8B4201D30B02C01A5241CDD2C309B7
S11352608B4201D3CB01C01A524183098B4201D333
S11352708B01C01A524143098B4201D34B01C01A1E
S1135280524103098B4201D30B01C01A5241C30896
S11352908B4201D3CB00C01A524183088B4201D305
S11352A08B00C01A524143088B4201D34B00C01AF1
S11352B05241411A00D20146524110467047FFE75D
S11352C001B5002000F0F0F802BDC0460029F7D077
S11352D076E7704703460B437FD4002243088B4292
S11352E074D303098B425FD3030A8B4244D3030B69
S11352F08B4228D3030C8B420DD3FF22090212BA2E
S1135300030C8B4202D31212090265D0030B8B42A9
S113531019D300E0090AC30B8B4201D3CB03C01A93
S11353205241830B8B4201D38B03C01A5241430B6E
S11353308B4201D34B03C01A5241030B8B4201D35E
S11353400B03C01A5241C30A8B4201D3CB02C01AC9
S11353505241830A8B4201D38B02C01A5241430A41
S11353608B4201D34B02C01A5241030A8B4201D330
S11353700B02C01A5241CDD2C3098B4201D3CB01D7
S1135380C01A524183098B4201D38B01C01A524186
S113539043098B4201D34B01C01A524103098B428A
S11353A001D30B01C01A5241C3088B4201D3CB0075
S11353B0C01A524183088B4201D38B00C01A524158
S11353C043088B4201D34B00C01A5241411A00D208
S11353D001465241104670475DE0CA0F00D0494271
S11353E0031000D34042534000229C4603098B42E1
S11353F02DD3030A8B4212D3FC22890112BA030A69
S11354008B420CD3890192118B4208D389019211EA
S11354108B4204D389013AD0921100E08909C3096F
S11354208B4201D3CB01C01A524183098B4201D371
S11354308B01C01A524143098B4201D34B01C01A5C
S1135440524103098B4201D30B01C01A5241C308D4
S11354508B4201D3CB00C01A524183088B4201D343
S11354608B00C01A5241D9D243088B4201D34B005E
S1135470C01A5241411A00D20146634652415B10A0
S1135480104601D34042002B00D549427047634681
S11354905B1000D3404201B5002000F005F802BDC6
S11354A00029F8D016E770477047C04641420840CB
S11354B01C2101231B04984201D3000C10391B0A40
S11354C0984201D3000A08391B09984201D3000904
S11354D0043902A2105C401A7047C0461B1C1D1DF3
S11354E01E1E1E1E1F1F1F1F1F1F1F1FF0B5CE468F
S11354F0474615042D0C2E0080B50704140C3F0CF0
S11355009946030C7E435D43674363437F19340C20
S1135510E4199C46A54203D980235B029846C444FF
S11355204B46514343433604360C250C240465444E
S1135530A4195918491920000CBC90469946F0BD8D
S113554070B500260C4D0D4C641BA410A64209D165
S1135550002600F015F90A4D0A4C641BA410A6425B
S113556005D170BDB300EB5898470136EEE7B300A0
S1135570EB5898470136F2E78C5700008C5700002F
S11355808C57000090570000002310B59A4200D1B8
S113559010BDCC5CC4540133F8E703008218934275
S11355A000D1704719700133F9E700009613000029
S11355B0E2150000E2150000E2150000E21500000B
S11355C0E2150000E2150000E2150000E2150000FB
S11355D0E2150000E2150000E2150000E2150000EB
S11355E0E2150000E2150000E21500007E13000041
S11355F0E2150000E2150000E2150000E2150000CB
S1135600E2150000E2150000E2150000E2150000BA
S1135610E2150000E2150000E2150000E2150000AA
S1135620E2150000E2150000E21500008E130000F0
S1135630E2150000E2150000E2150000E21500008A
S1135640E2150000E2150000E2150000E21500007A
S1135650E2150000E2150000E2150000E21500006A
S1135660E2150000E2150000E215000086130000B8
S11356709E13000066130000761300006E130000F2
S113568002000000030000002800000029000000C0
S113569004000000050000000600000007000000F0
S11356A02000000021000000220000002300000070
S11356B02400000025000000260000002700000050
S11356C008000000090000000A0000000B000000B0
S11356D000080042000C0042001000420014004286
S11356E000180042001C0042F6220000F2220000D2
S11356F0F222000054230000542300000A23000077
S1135700FC22000010230000422300005C2400005F
S11357103C2400003C240000C82400004E24000067
S11357206A2400004024000078240000B82400000B
S1135730002C004200300042003400420038004295
S1135740003C0042000800100020004000800000DF
S1135750D43D0000E23D00007C3E00001C3F000000
S1135760803F000004000800700080000100000178
S113577000020000030C1060121314151600000040
S1135780F8B5C046F8BC08BC9E467047DD00000072
S1135790F8B5C046F8BC08BC9E467047B50000008A
S11357A0390200000D02000049050000210200003A
S11357B0000000001D070000210500001D0200007C
S11357C02102000035040000800000203400002085
S11357D0940000203C000020A000002009024300A7
S11357E0020100C032090400000102020100052484
S11357F0001001042402020524060001052401030B
S1135800010705830340001009040100020A000097
S11358100007058102400000070502024000000065
S11358201201010202000040EB0304240001010202
S113583000010000050F0C00010710020200000027
S113584000000020140000200003000000000000FD
S11358500000000000000000000000000000000044
S113586000000000000000000403090441544D45F9
S11358704C2041534600000043444320566972744F
S10F588075616C20436F6D000100000096
S90349D1E2
