S01700004445564943455F4558414D504C45312E73726563C1
S11300003848002049560000455600004556000077
S113001000000000000000000000000000000000DC
S11300200000000000000000000000004556000031
S11300300000000000000000455600004556000086
S11300404556000045560000455600004556000040
S1130050211E00004556000045560000154E0000C4
S1130060455600009D240000AD240000BD2400007E
S1130070CD240000DD240000ED24000045560000DE
S1130080455600004556000099300000F930000044
S113009059310000B931000019320000B91C0000C8
S11300A045560000455600004556000045560000E0
S11300B00000000010B5064C2378002B07D1054B37
S11300C0002B02D0044800E000BF0123237010BDC0
S11300D0EC0000200000000088630000084B10B50D
S11300E0002B03D00749084800E000BF0748036815
S11300F0002B00D110BD064B002BFBD09847F9E72D
S113010000000000F0000020886300008863000005
S11301100000000010B5034B98478022024BD20523
S11301205A6110BD8D4400008044004110B584B074
S113013001AC20000E4B98470F230193002363600A
S113014001332372A3720133E37221000F20094BA0
S1130150984700220F21084B084898470021084B74
S11301600F2098478022074BD2059A6104B010BD36
S1130170D51E0000E91E0000B11D0000150100009D
S1130180D91D0000804400418022024BD2059A61AF
S11301907047C0468044004110B500210F20014B38
S11301A0984710BDD91D000010B500210F20014B48
S11301B0984710BDFD1D00008022024BD2055A61F4
S11301C07047C046804400417047C0467047C046EF
S11301D07047C0467047C0467047C0467047C04627
S11301E07047C046FA2110B58900094B984789B277
S11301F0002904D18022074BD2055A6110BDFA238D
S11302005B009942FAD18022024BD2059A61F5E74C
S1130210D95E000080440041024A1378013BDBB2FE
S113022013707047130100200020704700207047AE
S113023010B502490020024B984710BD0C01002064
S1130240F55B000010B5064A1378013BDBB213706E
S11302501078044BC0B298470022034B1A7010BDAB
S113026014010020C95A00000A0100200022A12123
S113027010B5114B114C002022701A80104B1970CC
S1130280813959701E39D9805A809A801A81E123A4
S11302900C495B020B600823087148718B710020C4
S11302A0094B98470020094B9847002803D023782E
S11302B00133DBB2237010BDAC0100201301002018
S11302C0440200200C010020F55B0000B15A00003C
S11302D010B519490A7853B2002B12DB60230020B1
S11302E01340202B00D010BD4B78202B19D0222B8B
S11302F0F9D14B88012100201940104B9847012067
S1130300F1E7602300201340202BECD14B78212B04
S1130310E9D1CB88072BE6D1094A8B818A60013069
S1130320E1E7CB88072BDED1064A8B810A61044AB8
S113033001208A60D7E7C046E8050020E15A0000A2
S11303400C01002031020000002330B57C240D494B
S11303500D4D10002B700B880C4AA3430B8013899E
S113036083B0A3430C881381A34208D00B88084CA4
S11303701381084B002100930A23A047287003B07F
S113038030BDC046AC010020A8010020440200207A
S11303904142000049030000F0B5DE4657464E4690
S11303A04546E0B585B0EFF310835A4253410393B9
S11303B072B6BFF35F8F3C4B3C4E994600234A46CE
S11303C01370039B3A4F9A463A4B1C789846E4B212
S11303D06300F35A2500002B44D000233B80364BA6
S11303E01B78002B29D00123344A654265411370E0
S11303F05246002A2CD16F00F35B1C00403C621E65
S11304009441E4B2402B29D02D4B9847002845D085
S11304102C4B98472C4B1880F35B2C49AA018A1863
S11304202B498120009121002A4CA04705B03CBCF7
S113043090469946A246AB46F0BD63425C414346B2
S1130440E4B21C7001231D4A13705246002AD2D014
S11304504A461370BFF35F8F62B6CCE700211A4A95
S11304601180DAE73B8801333B80154B9B46984764
S1130470002802D13B88632B06D9D8470028ACD08A
S1130480154B3A889A42A8D85346002BCED0012364
S11304904A461370BFF35F8F62B6C7E70F4B9847A6
S11304A0094B1880F35BB8E7E80000203402002011
S11304B00801002038020020B00100204002002082
S11304C07D3F0000913F00003C020020B401002069
S11304D0E1040000414200001F030000813F0000CE
S11304E010B5002800D010BD104B11491B785A429A
S11304F0534100225B0058520E4B1A700E4B1A7077
S11305001B78002BEFD10D4B98470D4B1C8800280E
S113051006D00C4B98478442E5D00B4B9847E2E752
S11305200A4B98478442F8D1DDE7C04638020020E0
S113053034020020B0010020400200207D3F000072
S11305403C020020913F000099030000813F00001D
S1130550F0B54546DE4657464E46E0B54A4D87B0AF
S11305602B78002B06D007B03CBC90469946A24697
S1130570AB46F0BD454FB847454B98461C8800280C
S11305804DD1444B98478442EDD0EFF310835A4247
S11305905341059372B6BFF35F8F00233E4A137035
S11305A0059B03933D4B1C789B463D4BE4B2994617
S11305B04A466300D35A2600002B3CD0394B9A4656
S11305C0002352461380384B1B78002B2CD16342F6
S11305D05C415B46E4B21C700123039A2B70002A31
S11305E04AD14B4675005B5B1C00403C621E944143
S11305F0E4B2402B1BD0B847002843D02B4B98477C
S1130600434618804B465B5B294AB6019619294A32
S113061021000092284C32008120A047A3E7234BFD
S113062098478442B1D19EE766426641D4E70022EE
S113063041460A80E8E71B4B9A4652461B88013321
S11306401380B84700280ED153461B88632B0AD861
S1130650039B002B00D186E701230F4A1370BFF3DD
S11306605F8F62B67FE7B8470028A9D05246134B84
S113067012889A42ECD9A3E7074A1370BFF35F8F3D
S113068062B6AEE7034BBAE7400200207D3F0000AC
S11306903C020020813F0000E800002038020020D6
S11306A03402002008010020B0010020913F000026
S11306B0B4010020E1040000414200001F030000D7
S11306C0F0B5D6464F4646460023524A5249534D4A
S11306D0C0B52B7013700B705149524C0B705249BA
S11306E023800B804B80137884B0002B00D16EE004
S11306F000234E494E4E4F484F4F337003700B80CA
S11307004B803B80EFF310835A425341029372B6FD
S1130710BFF35F8F494B9A46002352461370029BE6
S113072004789C463378E4B2DBB2002B05D13A88D6
S1130730914662008A5A914509D26346002B3FD103
S1130740002004B01CBC90469946A246F0BD3B80F4
S113075063426341DBB20370624601233370002AB3
S113076052D1EFF310835E427341039372B6BFF329
S11307705F8F002352461370039B3E889C4662465B
S11307800378B6B25B00CB5A9BB2002A31D19E42A9
S113079036D12B4B2B4AA40112190093012140237B
S11307A00220294CA0470028CAD02B780133DBB2A1
S11307B02B702B78DBB2012BC3D1244A1370C0E712
S11307C0012352461370BFF35F8F62B6B8E7204B24
S11307D098472488002807D11E4B9847844200D1AB
S11307E086E71D4B984783E71C4B98478442F8D112
S11307F07EE7012152461170BFF35F8F62B6C6E7F0
S11308000020174B9847C4E752461370BFF35F8F1D
S113081062B6A6E740020020B001002014010020C7
S1130820380200203C0200203402002098010020FD
S1130830A40100209C010020A0010020E800002069
S11308406508000018010020414200000A01002050
S11308507D3F0000813F000099030000913F0000AC
S1130860B15B0000F0B5CE46474680B5140085B0B4
S1130870002854D13B4B1A7855426A41D2B2002920
S113088052D0394E89B25200B15238490870EFF350
S1130890108254426241029272B6BFF35F8F344AAF
S11308A01070029891461C780A78E4B2D2B2002AF9
S11308B045D1304F3D88A8466500755BA8453ED3B9
S11308C03A8062426241D2B21A7001220A70002850
S11308D03ED1EFF3108251424A41039272B6BFF304
S11308E05F8F002249460A7003993A881B7892B2B6
S11308F05B00F35A9BB2002905D0012148460170E0
S1130900BFF35F8F62B69A4228D11B4B1B4AA401E6
S113091012190093012140230220194CA04705B06D
S11309200CBC90469946F0BD144B92019A18124B98
S11309300131009320004023114CA047EFE7002829
S1130940EDD001234A461370BFF35F8F62B6E6E72A
S113095049460A70BFF35F8F62B6BAE70020094BBD
S11309609847D2E79C01002098010020A4010020B0
S1130970E8000020A0010020650800001801002004
S113098041420000B15B000030B585B0EFF3108345
S11309905A425341039372B6BFF35F8F002340243E
S11309A0114A1249137003980B8823430B800028C3
S11309B014D10F4C2378002B0ED10E4A0B881089CA
S11309C0984209D00B88832013810B4B002100939C
S11309D00A4D0A23A847207005B030BD01231370C7
S11309E0BFF35F8F62B6E4E7E8000020AC010020AB
S11309F0A8010020440200204903000041420000F5
S1130A0010B582B0EFF310835A425341019372B68A
S1130A10BFF35F8F00230C4A0C4C13700C4B0199ED
S1130A2018880C4B80B21B785B001B5B9BB20029BF
S1130A3004D001211170BFF35F8F62B6C01A431E48
S1130A409841C0B202B010BDE80000209801002017
S1130A50A00100209C010020F0B557464E46DE461A
S1130A604546E0B5564B00249B79A446093B5A42BF
S1130A705341DBB29A46534B534D9946534B544E14
S1130A809B46544F89B0EFF310835A425341059368
S1130A9072B6BFF35F8F00234C462B7005983388E2
S1130AA03A789BB2D2B25100615A89B2002800D080
S1130AB06AE08B420CD3484B1B78002BE3D1002413
S1130AC0200009B03CBC90469946A246AB46F0BD16
S1130AD0614692015A44D25C013311439BB20391A3
S1130AE03380EFF310835A425341069372B6BFF337
S1130AF05F8F00232B7006993A78D3B29846374B10
S1130B001B78DBB2002B45D142464846520034885C
S1130B10825A94423ED3338043465A425341DBB215
S1130B203B7001232D4A137000293FD1EFF310834A
S1130B305A425341079372B6BFF35F8F002348466E
S1130B402B70079932883B7892B25B00C35A9BB2F0
S1130B50002904D001212970BFF35F8F62B69A4245
S1130B6029D143469A011E4B5A4400930121402344
S1130B7002201C4CA0475346002B15D0039B1B029C
S1130B809C4600239A467EE701202870BFF35F8FBE
S1130B9062B68EE70029EED001232B70BFF35F8F7E
S1130BA062B65346002BE9D1039C89E72B70BFF34F
S1130BB05F8F62B6BAE700200B4B9847D1E7C04677
S1130BC00C01002098010020E800002018010020FA
S1130BD0A00100209C0100200A010020A4010020A3
S1130BE06508000041420000B15B000070B582B0AE
S1130BF0EFF310835A425341019372B6BFF35F8FF0
S1130C000023144A14491370019C0B781348DBB277
S1130C105D002D5A0120402D08D0002C04D0012362
S1130C201370BFF35F8F62B602B070BD0C480078DA
S1130C30C0B200280BD10B4D2E78002EEDD101301F
S1130C40287058424341DBB20B700120E5E70020D5
S1130C50E3E7C046E8000020380200203402002008
S1130C6040020020B0010020F0B5DE46574645465C
S1130C704E46E0B53D4B00259B7985B0093B5A4271
S1130C805341DBB29C463A4B3A4A9B4601239A466F
S1130C90394C3A480091EFF310835E427341039359
S1130CA072B6BFF35F8F1570039E2378DBB25F00CB
S1130CB0C75B402F27D0002E35D1EFF310835E425F
S1130CC07341029372B6BFF35F8F1570029B019359
S1130CD02378DBB25F00B846C75B9B017E1CB1463C
S1130CE0464649468153694609785B44D955019B78
S1130CF0002B31D16346002B36D0009B1B1200938E
S1130D0000239C46C7E71E490F78002F11D11D49C7
S1130D100F78002F0DD157460F705F427B41DBB235
S1130D202370002EC9D053461370BFF35F8F62B691
S1130D30C3E7002E04D053461370BFF35F8F62B62F
S1130D40114B1B78002BA6D1002005B03CBC90466B
S1130D509946A246AB46F0BD53461370BFF35F8F6E
S1130D6062B66346002BC8D10120EEE70C010020D7
S1130D70B4010020E80000203802002034020020E2
S1130D8040020020B00100200A01002010B501003B
S1130D90014B0020984710BD690C0000F0B54E4689
S1130DA0DE4657464546E0B5434B85B09B79160071
S1130DB0092B00D17DE0414B8B469946404B414F76
S1130DC09846EFF310835A425341039372B6BFF32C
S1130DD05F8F00233B704B464046039A1B78DBB27F
S1130DE05900415A40293BD0002A04D001233B70CA
S1130DF0BFF35F8F62B6EFF310835A4253410293FD
S1130E0072B6BFF35F8F00233B70029B35000193E2
S1130E104B461878C0B243009A46434652469C5A01
S1130E2040231B1B9E4200D91D00274B80019C467A
S1130E3000192A00254B60445946984743465246B8
S1130E4064199C52019B002B2DD1AB44761BB8D165
S1130E50300005B03CBC90469946A246AB46F0BD76
S1130E601B490978002911D11A49087800280DD1A5
S1130E700130087059424B414946DBB20B70002ADD
S1130E80B9D03870BFF35F8F62B6B4E7002A04D0DC
S1130E9001233B70BFF35F8F62B60F4B1B78002BAF
S1130EA000D08EE7D4E701233B70BFF35F8F62B6B7
S1130EB0CBE756007FE7C0460C0100203802002033
S1130EC034020020E8000020B401002095610000F5
S1130ED040020020B00100200A01002010B50A00E1
S1130EE0024B01000020984710BDC0469D0D000034
S1130EF07F2010B5024B5B881840024B984710BD09
S1130F00E80500206D44000070B5144B1B681B6895
S1130F101A7982421DD9124E3360DC789A78240201
S1130F2014431C19A34214D2002504E01A780125A5
S1130F309B189C420CD95A78042AF7D19A78824299
S1130F40F4D1DA788A42F1D1002D04D1012001E0F4
S1130F503360002070BD33600120FBE75C02002099
S1130F6060020020F8B5274D82002B6807005B68FB
S1130F70D658F3689847244B1B78002B01D10020E6
S1130F80F8BD2B681B681A79BA42F8D91F4A136056
S1130F909446DA789C78120222439A189342EED24D
S1130FA01C00002104E023780121E418A24219D98D
S1130FB06378042BF7D1A378BB42F4D1E37883425E
S1130FC0F1D100291BD1124F04E06378042B05D022
S1130FD0052B0AD02378E418A242F6D87368984700
S1130FE00120CDE763461C60C9E7A078B8472B68A9
S1130FF01B68DA78997812020A439A18EAE763467A
S11310001C60E0E75C02002058020020600200201F
S1131010A13F000010B5014B984710BD09470000DF
S1131020F0B5C64600B5254D2A78002A35D0244EA1
S113103033681B68197900292FD022480024804680
S1131040214F04E00134E4B28C4226D22A78002AEB
S1131050F8D042461360D9789A7809021143591896
S11310600020994205D822E01A7801209B18994261
S11310701BD95A78042AF7D19A78A242F4D1DA78A3
S1131080002AF1D1002816D12000B8473368013472
S11310901B68E4B219798C42D8D3002301222B7047
S11310A00A4B1A8004BC9046F0BD42461360336874
S11310B01B681979C6E742461360E5E75802002029
S11310C05C02002060020020650F00004E02002038
S11310D070B50D4B1B78002B14D00C4D2A68136887
S11310E0197900290ED000245068A3001B581B69ED
S11310F0002B03D098472A68136819790134E4B2A5
S11311008C42F1D370BDC046580200205C0200201E
S1131110F0B5DE4657464E4645460023E0B5BA4C88
S113112083B0A3812361636123785AB2002A13DB5D
S113113060221A4200D171E01F221340012B00D11A
S11311408DE0022B23D00025280003B03CBC904640
S11311509946A246AB46F0BDE288002AF3D060214E
S11311601942E9D11F210B4000D0E3E06378062B3C
S113117000D1A9E1082B00D19DE1002BE3D1022A83
S1131180E1D11D39A148A24B98470125DCE7A14FC5
S11311903B78002BD7D0A04E33681A681279002A06
S11311A0D1D09E4A002490465B68A200D558EB68D3
S11311B098473B788446002BC5D033681B681A795E
S11311C0A242C0D942461360D9789A7809021143E1
S11311D059188B42B7D2002004E01A7801209B18DA
S11311E0994218D95A78042AF7D19A78A242F4D1AC
S11311F0DA786245F1D1002800D0A6E2AB689847BE
S1131200002800D082E0336801341A68E4B212790D
S1131210A242C9D897E74246136094E71F252B40A2
S113122058D16378032B00D18DE771D9052B00D1F8
S1131230DEE0092B00D086E7E388002B00D082E7AC
S1131240774B9847002806D0764DA2782B685B7CB4
S11312509A4200DC8FE11F23227813406EE76D4F22
S11312603B78002B00D16EE76B4E336825799C46A2
S11312701B681A79AA4200D865E7684A1360D978CE
S113128090469A780902114359188B421ED20020C5
S113129005E01A7801209B18994200D8B0E05A78EA
S11312A0042AF6D19A78AA42F3D1DA78002AF0D146
S11312B0002800D03EE263465B68AA00D3589946F2
S11312C0DB6898473B78002B00D028E11F23227865
S11312D0134036E7012B45D0022B00D033E7637867
S11312E0012B00D1B0E0032B00D050E7E388002BA2
S11312F000D04CE76388002B00D048E720794A4BA4
S113130098472079494B98470028A4D001251BE72A
S1131310012B00D017E7E388002B00D013E7638884
S1131320012B00D00FE70221384A012513888B4393
S1131330138009E7012B00D192E0022B00D002E7D1
S11313406378002B00D022E7022A00D01FE7384B35
S113135020799847374B0221188018002C4B984766
S11313600125F1E663780B2B00D074E7E388002BAA
S113137000D074E7274B99461B78002B00D1E2E696
S113138027792D4B00213800668898469847002815
S113139000D160E73800294B9847002800D1D1E1FB
S11313A04B461B78002B00D155E7F1B23800C047FB
S11313B0002800D14FE7194B174E1D68204B984663
S11313C030680368DA78997812020A439B1805E0BA
S11313D06A78042A06D0052A00D195E02A78AD1847
S11313E0AB42F5D84368BF00FB581B6898478BE7AE
S11313F0E388002B00D0A6E6124B01252361A3E667
S11314004246136062E7C046E80500204E02002011
S113141099450000580200205C0200206002002070
S11314207D44000028000020F53D000075410000C7
S11314306141000050020020090F0000650F000008
S113144055400000F10E0000E388002B00D09EE61A
S11314506388002B00D09AE62079BF4B984753E766
S113146063780A2B00D0F6E6012A00D0F7E6BB4FDA
S11314703B78002B00D166E62379B94E9846336851
S113148099461B681B79434500D8EEE60021404687
S1131490B44B9847051E00D1DDE64B465A684346D7
S11314A09B009B58DB689847AF4B012118701800CC
S11314B0AE4B984748E6012A00D044E60121A748EC
S11314C0AA4B984701253FE663881D0A022D00D1E7
S11314D01DE100D8CBE0032D00D1D4E00F2D00D0C6
S11314E031E6A34B9868002800D12CE6C1788378B4
S11314F0090219439D4B9847E388A2899A4200D870
S113150004E7A38101251FE66A792B7912021A43A5
S1131510E978A878C047002800D051E79BE63368F3
S11315201B681A79AA4200D8D0E642461360DA78DA
S1131530997812020A439A18934200D3C6E6002609
S113154005E0197801265B189A4200D858E75978C3
S11315500429F6D19978A942F3D1D9788142F0D1FE
S1131560002E00D0F4E04B469B689847002800D139
S1131570ACE60125E8E57F4B9847A378774F3B70AD
S1131580002B00D1C2E67C4A686894466344DB00C1
S1131590C018734E036830601A79002A00D1B5E68A
S11315A000229146754A9046754A934632004E464B
S11315B0B946170042461360D9789A780D0215434C
S11315C0AC469C449C4500D845E600250193009513
S11315D09A461D0005E02B78ED1801230093AC45D5
S11315E04ED96B78042BF6D1AB78B342F3D1EB78B8
S11315F0002BF0D10195009D5346002D04D04246A6
S1131600019911609A78D978019D09020A439A18C0
S113161004E06B78042B05D0052B19D02B78ED183A
S1131620AA42F6D84368B200D3581B6898470028EA
S113163000D110E6386801360368F6B21A79B2426E
S113164000D863E64A461278002A00D103E6B1E7DF
S11316506A792B7912021A43E978A878D8470028C6
S113166000D1F8E5386803689A78D978CDE7012D78
S113167000D068E53E4B18683C4B017898473BE73F
S113168043461D60E7E5FF221340012B37D0002BB2
S113169053D0022B00D0DEE53A4B3B481A78202188
S11316A0428020250F225E7886809E78C680DE7870
S11316B006811E7946815E7986819E79C681DE79AE
S11316C006821E7A4682092A15D05E7A86820A2A02
S11316D011D09E7AC6820B2A0DD0DE7A06830C2A9C
S11316E009D01E7B46830D2A05D05E7B86830F2A94
S11316F001D19B7BC3831D4B05709847FCE6234BAC
S113170021481A781421428014250922CBE7184A6B
S1131710DBB21168497C994200D814E55268DB00B9
S11317209858C178837809021943104B9847A368E5
S11317305D70E1E642461360BDE5042114480B4B9D
S11317409847D9E623782B40F8E44246136055E5E0
S11317504246136007E7C046E541000058020020F6
S11317605C020020090F000054020020994500008B
S11317702800002021100000FFFFFF1F600200204E
S113178055400000D8000020A8000020CC00002014
S1131790C80000200B4B1A68002A05D1EFF3108112
S11317A0002905D008490A701A6801321A60704786
S11317B072B6BFF35F8F054A1170034A013111708D
S11317C0F2E7C0466402002068020020E80000201E
S11317D0084B1A68013A1A601B68002B09D1064BA2
S11317E01B78002B05D00122044B1A70BFF35F8FC6
S11317F062B670476402002068020020E8000020FE
S1131800F0B50125002783B001AC2100084E3E202D
S11318106570A7702570B0478022064BD2059A6187
S113182021000F2027706570B04703B0F0BDC0469B
S1131830611F000080440041C021490100230022AF
S1131840C1812A210270427042800262C2618260B8
S1131850037103760373037443748374C37403754D
S113186043540639437583754354C28402852B322D
S1131870C3758354013283547047C046F0B54E4655
S11318804546DE4657468023E0B59046C94A016086
S11318900600106A5B02034313620B7899B00520BB
S11318A0DB0706D519B03CBC90469946A246AB4628
S11318B0F0BD0B7817309B07F4D443465B78337143
S11318C0002B04D10421BC4A136C0B431364002382
S11318D03383B360F3603361B376F3763377B74B16
S11318E042461E602A23D25C0023002A03D14346C9
S11318F01B7D013253407377336802AA0193434638
S11319001B78110013701E20AD4B9847AD4B1E2061
S113191098472C234246D75C002F00D128E1013B95
S1131920D55C137BEA18D2B2B918C9B28A4200D383
S113193039E17F19FAB2009204AA91461C004B4681
S1131940A14AB1469346A14A03AF92461E0001E064
S113195043461C7B0F232B401C1950225946300050
S1131960D047132C0BDC0023A40030597B70FB7090
S1131970BB7001333B70C0B23900954B98470135B9
S1131980009BEDB29D42E3D133004E469946434657
S1131990DC89502259464846D047132C0CD84B4674
S11319A0A4001859002303A94B70CB708B7001332A
S11319B00B70C0B2864B984743465B7D01999B00F0
S11319C0DBB20B70434642469B7D5278DB011343E6
S11319D0DBB24B7043461B79342B07D87D4A9B00FE
S11319E0D3589F46013BDBB20F2B59D9172059E737
S11319F0102224231021019883704346DB7D3F2B62
S1131A00F4D8C3703068437E5BB2002BFBDB4346E3
S1131A104046DB7C4088444603432420205CC000CD
S1131A200343207D80000343A07C400003431A430A
S1131A30019B9A80237E002B14D0102900D1ECE066
S1131A4000D8CFE0202900D1DEE030290AD1E27CA1
S1131A50002A00D0EAE0E269FF2AC7DC4246126AA3
S1131A60FF2AC3DC31684A7E52B2002AFBDB019AAA
S1131A7013723268537E5BB2002BFBDB4346019A40
S1131A809B8B93833268537E5BB2002BFBDB434614
S1131A90019A1B8C13842C234246D35C002BA1D1C6
S1131AA02B224146895C0F29A0D83068427E52B26D
S1131AB0002AFBDB42464046D289007B09050243EB
S1131AC0404680681B0402430A431343019A41467B
S1131AD013612A23CB5C13750F2393751533CB5CE9
S1131AE0002B11D0CB8C3C498B4200D97EE7019A64
S1131AF0938443461A8D80231B01D3189BB28B42D7
S1131B0000D973E7019BDA84E022344BD2001968D0
S1131B1000204B0119001A40314B1B68DB0E0B43AC
S1131B20DBB21343019A1385BCE610221223102161
S1131B3061E73022002330215DE7202200232021A9
S1131B4059E710220823102155E700220023002121
S1131B5051E743465A7C7023120113404246127CDB
S1131B6010211343102246E710221623102142E7C6
S1131B7004AB9946144B147B9B461900134B50221B
S1131B8048469A469847132C00D900E74B46A400D0
S1131B901859012303A90B70C0B20D4B4F70CF70BD
S1131BA08F709847F3E604AB9946074B9B46074B67
S1131BB09A46ECE600040040000800404C03002074
S1131BC0F12D0000552E00008C620000956100008C
S1131BD0652F0000B8610000FF0F00002460800042
S1131BE020608000002900D03CE7E27C002A3BD141
S1131BF0E2692E498A4200DDF8E64246126A8A42C8
S1131C0000DC2FE717204DE6E27C002A1BD1E269B5
S1131C1027498A42F1DD172044E6E27C002A34D1C8
S1131C20E26924498A42E8DD17203BE6E2691100B3
S1131C308031FF2900D9D9E6216A8031FF2900D8F3
S1131C400AE717202EE68021E26989001848511816
S1131C50814200D9CAE6216A8024A400A4466144D2
S1131C608142D5D917201DE68021E26909010F4878
S1131C705118814200D9B9E6216A80242401A4467E
S1131C8061448142B5D917200CE68021E26909023A
S1131C9008485118814200D9A8E6216A8024240208
S1131CA0A44661448142BCD91720FBE5FF0F000024
S1131CB0FF030000FFFF000070B5244B1C680123E4
S1131CC02268157EEDB22B4202D0E17E0B421CD17C
S1131CD004232B4205D022681376E27E023B134292
S1131CE00CD102232B4208D022681376E27E023301
S1131CF0134202D0A27E134224D170BDA27E1342AD
S1131D00EFD02000E3689847EBE7A17E0B42DFD0D9
S1131D1013762268537E5BB2002BFBDB61698B1C5C
S1131D206361538B9BB20B80238B013B9BB2238358
S1131D30002BCDD1227F052ACAD123772000A368A6
S1131D409847C5E7236920009847D6E74C0300204D
S1131D50931C9B001950012393401A00837E134364
S1131D608376704710B5048B03000520002C00D047
S1131D7010BD1C7F052CFBD018771A8301225961F2
S1131D801968CA755A7F002A01D10020F0E7196842
S1131D904A7E52B2002AFBDB02200A7B02430A730A
S1131DA01A68537E5BB2002BFBDB0020E0E7C046E1
S1131DB01723002A01D018007047064A89008B585F
S1131DC0002B03D0834203D01D23F4E78850F2E7AD
S1131DD00023F0E7540300201723002901D0180042
S1131DE070471F2805D8163B8340034AD36000235D
S1131DF0F5E7C960FFDEC04600180040172300293C
S1131E0001D0180070471F2805D8163B8340034AA9
S1131E1093600023F5E78960FFDEC04600180040A8
S1131E20F8B5002301260B4C0B4D0C4F23703200E8
S1131E309A402969114206D02A619B00DB59002B84
S1131E4000D0984723780133DBB223700F2BEED9EF
S1131E50F8BDC04650030020001800405403002081
S1131E60402110B5144A82B0936905200B43936155
S1131E70002301A90B70114B9847114B052098477B
S1131E800122104C23781343237063785BB2002B38
S1131E90FBDB40220C4B00210C48984710220C4BD2
S1131EA01A6023780E3A1343064A237053785BB2C0
S1131EB0002BFBDB02B010BD00040040F12D00003C
S1131EC0552E000000180040A761000054030020B4
S1131ED000E100E0002301220360436083720233C7
S1131EE002724272C3727047F0B500230C0083B0D3
S1131EF001A94B70CB70237905000B70237A2078ED
S1131F008B70154B984700201F2D00D813480722CB
S1131F10A37A2A409200E77A002B01D008231F43BA
S1131F200F26974096403A00EB089B00C318996926
S1131F30B1430A439A61637A002B06D10122AA4075
S1131F4043699343436103B0F0BD0123AB4042694D
S1131F5013434361F7E7C046652F000000180040B3
S1131F60802200B583B001AB1A700A785A704A789F
S1131F709A708A781900DA70014B984703B000BD53
S1131F80652F000010B5490840230024814202D285
S1131F90180010BD1C00631C091A9BB28842F9D9B1
S1131FA04023FF2CF4D814800023F1E7F0B5DE467B
S1131FB0454657464E46E0B587B0934610AA147876
S1131FC00200884662434021424507D9080007B011
S1131FD03CBC90469946A246AB46F0BD002B5FD16F
S1131FE00200002120008A4CA047434600930023AE
S1131FF0202198468A461F3900278C46414681464F
S11320000193D846002200233F200291BB460FE0F3
S1132010BD4252D0A346009C019D0291BD4234D8DA
S1132020BD4250D011001C000A002300013832D3F5
S11320302021494241183AD464468C402100644628
S1132040844092185B41049466464C4616430C4205
S113205000D0320014001D0016001F00009A019BDE
S1132060A41A9D4122005C462B00049D25432C00AC
S1132070029D2943019DBD42CAD95C460299A346EB
S1132080009C019D0291BD42CAD931003C000A0066
S113209023000138CCD25F467F42C3463F0C02E0A6
S11320A00027012B15D05B4600211F808EE7514687
S11320B06446091ACC402100C1E7009DB542A9D964
S11320C05C460299DBE70099B142ABD931003C0090
S11320D0DDE7220000234E4C0021A04701240B0021
S11320E0002102008C46002000213F26A14618E072
S11320F004000D0020002900A41A9D4100940195BC
S1132100644627438B421ED81BD0BC468B4215D84D
S113211012D00098019982460C0050462100013EDD
S113212013D34F46001849414C46B7404546044333
S11321302F42DDD00D00DDE78242EAD982460C0051
S1132140EBE78242E1D96746DFE780204021800146
S1132150874200D93AE74146490F0C003F264146E1
S1132160B446C9003E3E0D00B04600215E46894695
S113217005970020674600210496A246AC4618E065
S113218004000D0020002900A41A9D414E4602942B
S11321900395009C344326008B4228D825D0B146B1
S11321A08B421FD81CD0029C039D20002900013FB4
S11321B024D3202464423C191BD44546A54000186E
S11321C04941444646460443BE40A34664460096FD
S11321D03440564635402543D2D05C460D00D1E705
S11321E08242E0D904000D00DFE78242D7D94E468F
S11321F0D5E720244546E41BE540E0E7049B059F22
S11322009B46FB00F31ADBB25B031F43BFB24AE7F2
S1132210F960000030B50E4C83B023780500002B24
S113222006D0002904D1637883420FD01D200BE02F
S113223001A91320074B0D7098471320064B9847AC
S1132240012300206570237003B030BD0020FBE73C
S11322506C020020F12D0000552E00003A4B9842EC
S113226043D00AD9394B984217D0394B984232D0CF
S1132270384B98421BD000207047374B984220D0EF
S1132280364B9842F7D1012943D000293FD0022987
S11322903BD00329EFD13248EEE7012931D00029A0
S11322A02DD002292FD00329E5D12E48E4E70129B6
S11322B03FD000293BD0022937D00329DBD12A485B
S11322C0DAE701293DD0002939D002292BD003298E
S11322D0D1D12648D0E7012923D000291FD00229D3
S11322E01BD00329C7D12248C6E7012925D00029DC
S11322F021D002290FD00329BDD11E48BCE71E48B6
S1132300BAE71E48B8E71E48B6E71E48B4E70320FC
S1132310B2E71D48B0E71D48AEE71D48ACE71D48CD
S1132320AAE71D48A8E71D48A6E71D48A4E71D48DD
S1132330A2E71D48A0E71D489EE71D489CE71D48ED
S11323409AE71D4898E7C046001000420018004272
S1132350001C00420014004200080042000C00422D
S113236003001F0003000F00030013000300070015
S11323700300190003000B0003000C0003000D0010
S113238003000E0003001E000300010003000A0006
S113239003001800030016000300170003000600E2
S11323A003001200030010000300110003000800E2
S11323B003000900030004000300050070B586B0A3
S11323C001006846154B70CB70C070CB70C0009B89
S11323D08B4211D0019B8B4211D0029B8B4211D0B6
S11323E0039B8B4211D0049B8B4211D0059B002090
S11323F08B4210D006B070BD0020C0B2FAE70120B5
S1132400C0B2F7E70220C0B2F4E70320C0B2F1E79C
S11324100420C0B2EEE70530C0B2EBE7DC62000096
S11324207047C046F8B50C4E050033780F000B4CCE
S1132430002B0DD10A4B182223606360A360E36074
S1132440236163610021074B0748984701233370D8
S1132450AD006751F8BDC0466E0200207002002036
S113246021240000A76100009403002000B583B07C
S11324706A46092313700133537001339370013397
S1132480D3700133137101335371034B98476B4677
S1132490185603B000BDC046BD23000010B5024B62
S11324A000201B68984710BD7002002010B5024B35
S11324B001205B68984710BD7002002010B5024BE4
S11324C002209B68984710BD7002002010B5024B93
S11324D00320DB68984710BD7002002010B5024B42
S11324E004201B69984710BD7002002010B5024BF0
S11324F005205B69984710BD70020020F0B54E4678
S11325004546DE465746E0B50500BC4B0C0091B08D
S113251029600800904699469847012322680600DE
S11325200520134206D011B03CBC90469946A24601
S1132530AB46F0BD0227226817301740F3D1B01C18
S11325408340AF4A1436116AF6B20B4313622D234B
S11325509A46434652469B5C0AA90B703000A94B2D
S113256098473000A84B9847524643460021985C50
S1132570A64B98474346DB7A42466B712423D35CCF
S11325800CAEAB712523D35CEB71D37E2B72137F1E
S11325906B722B6818009A46C847434637801A8ADC
S11325A0802314300292DB019A4200D1D2E000D899
S11325B0EEE0C023DB019A4200D1F7E080231B0246
S11325C09A4200D0EDE00323099300230893434685
S11325D01B68424603934346DB68049343465B69A6
S11325E0059343461B7E06932623D35C07935368C7
S11325F09B46002B00D1B7E080235B059B4500D0B0
S1132600B0E02723D35C0021002B00D1EAE043464D
S11326105B7E002B03D0434652469B7E93732A680D
S1132620029FD369002BFCD15346049A9981039BE2
S11326301343059A13435A4613431F43069B4246CA
S11326401B021F43079B5B071F432723D35C002BFD
S113265001D104331F43434642465B7E127F9B02F3
S1132660520213434246527F41461202134324222C
S11326708A5C5204134325228A5C897A1204134328
S11326804246D27A1143194343461B89FF2B00D19A
S113269091E080225204174319432C234246D35C11
S11326A0002B03D15A4B9B789B0701D580231F43F2
S11326B02A68D369002BFCD1534659602A68D36930
S11326C0002BFCD1524608A917604B73CB738B7354
S11326D043461B6B80220C9343465B6B002773605D
S11326E043469B6B0A73B3604346DB6BF360494B11
S11326F09B46494B9A46BB00F058F9B200282ED0AD
S1132700431C05D008AB1873000CC0B20BA9D0470A
S11327100137042FEFD12800002118223F4B0C3041
S1132720984700220023EA85AA626A62AA853032A9
S1132730AB540132AB540132AB540132AB54286870
S1132740C8470400364B37499847374BA400E55037
S11327500020E8E6082309930023089337E72000C4
S1132760D847CDE7002152E727234246D35C002B0C
S11327702AD041464046099B32000093896A089B4F
S1132780006A2A4FB847002800D0CCE631883EE7DB
S113279080239B019A4204D1102309930F3B089391
S11327A015E7102309930023089310E708230993DE
S11327B0073B08930BE74346DB7E002B00D16CE715
S11327C08023DB041F4368E7136AC0B21F00184B61
S11327D09847099B010000933200089B3800134F6F
S11327E0B847D0E7136AC0B21F00114B98473200B4
S11327F00100104B38009847C5E7C046BD230000D0
S113280000040040F12D0000552E000015220000A8
S1132810002000415D220000652F0000A761000038
S113282025240000FD28000094030020AD1F0000B3
S1132830852E0000851F0000931C9B00C31859605F
S11328400123934030211A00435C134343547047DF
S1132850F8B505000E0014001720002A00D1F8BDB9
S1132860EB790530002BFAD00A4B2F689847EB8D93
S1132870002B03D0084B98470520F0E7064BEC8566
S1132880984733230522AE62EA54323BBB750020DD
S1132890E5E7C04695170000D1170000F8B505001C
S11328A00E0014001720002A00D1F8BDAB790530C2
S11328B0002BFAD00F4B2F689847AB8D002B03D019
S11328C00D4B98470520F0E70B4BAC859847322316
S11328D005226E62EA542E3BBB752B7A002B01D085
S11328E02023BB756B7A0020002BDED00823BB7538
S11328F0DBE7C04695170000D1170000F8B5624B1E
S11329008000C5582C68E369002BFCD1237EA67D8A
S113291031221E403023AF5CEB5C1F400123334265
S113292019D0EA8D002A4DD0AA6A511C1378A962E5
S11329306979DBB2012900D175E09BB2DB05DB0DBF
S11329402385EB8D013B9BB2EB85002B03D1013337
S113295023750133A3750223334205D00022237566
S11329603133EA54FB073BD40423334212D0AA8DFB
S1132970002A25D0638BDBB21A0735D537221340E2
S113298035D002221A4254D01A213223E9546283E8
S11329907B0759D41023334203D0237523763B425B
S11329A016D12023334203D0237523763B0713D457
S11329B00823334203D023752376BB0604D4F8BD21
S11329C02375E7E72375C6E72B6A28009847F6E7DF
S11329D02800EB699847E4E72800AB699847E7E7E4
S11329E02800EB689847BFE73F221340C9D1238DE5
S11329F0696ADB05DB0DDAB20A706A6A511C696226
S1132A006979012929D0AB8D013B9BB2AB85002BA1
S1132A10C0D1042222752E32AB54BB07BAD528008C
S1132A202B699847B6E75178023209020B43AA6230
S1132A3084E704221A420BD101221A4213D0132133
S1132A403223E9546283A3E728006B699847A1E71E
S1132A501E213223E95462839AE71B0A53706B6A7E
S1132A6001336B62CFE710221A4204D04221322391
S1132A70E95462838CE720221A4200D188E741217D
S1132A803223E954628383E79403002010B50828B5
S1132A902BD81B4B80001B589F468020000210BD82
S1132AA0184B5869FBE7184B18481B6A9B059B0F8A
S1132AB0D840F4E7134C002023689B07EFD510227D
S1132AC01149CB681A42FCD023685B070FD4104825
S1132AD0E5E70C4B1869E2E750230B4A0020D35C6E
S1132AE05B07DCD5074BD868D9E70020D7E7094B4B
S1132AF000209847A3681B041B0C5843CFE7C0462B
S1132B00F4620000880200200008004000127A00ED
S1132B10006CDC02852E000010B5037A42899B0606
S1132B209205920D1B0C1343174A5360C1798379A4
S1132B3084880B43418821430B434178C9010B43EB
S1132B4013600378042B10D0202B0DD1037B018A52
S1132B509B060B43C1890D48090401400B43936054
S1132B6011680B4B0B43136010BD017B048A89066B
S1132B70C0892143054C0004204001439160116841
S1132B800B431360F0E7C046880200200000FF03F7
S1132B9024040000C2221E21F0B5424BD2009A60E8
S1132BA0414A0024536889B08B431A390B4353605C
S1132BB0012303AD3D4E2B70E0B229000134B04730
S1132BC0252CF9D100230022AB716A80EB716B7064
S1132BD02032374B2A701B689B0E3F2B60D02B7220
S1132BE007232B730333EB81324B28006B81FF3BAC
S1132BF0AB80314B02272B82304B98474022294C23
S1132C00236A9343403213432D4A13402362236AB9
S1132C103B4323622B4B984701236A4601930023CD
S1132C206946537006220320274E0B724B720A70BA
S1132C30B0470320254DA8471021254803683B438E
S1132C400360A784E3681942FCD083681021E3621F
S1132C504368144AA3620023A384D3681942FCD0B6
S1132C60102103689BB293840E4AD3681942FCD0A6
S1132C708021938C00200B4393840023154A6946DA
S1132C80137253729372D37201224B704B720733D7
S1132C9001920B700A72B0470020A84709B0F0BD3A
S1132CA0203B9CE70008004000400041F12D00005B
S1132CB024608000FF01000080BBFFFF192B00008F
S1132CC0FFFCFFFFD92C0000FD2C0000B12D0000FB
S1132CD088020020000400400821064A93690B433F
S1132CE093610123044A0739137013781942FCD104
S1132CF07047C04600040040000C004070B50B78DB
S1132D0006001B0203431D004B780400002B02D075
S1132D108023DB021D434B7A002B02D080231B034C
S1132D201D43486801280FD9431E18422FD1022899
S1132D3033D00223002401345B009842FBD82402E0
S1132D4080235B0334431D430B7A002B02D0802382
S1132D509B031D43124A53785BB2002BFBDB114BE0
S1132D609847114B0E4A1E7053785BB2002BFBDB65
S1132D700B4994604A7852B2002AFBDB80224B68EC
S1132D80520213402B434B60084B984770BD80237D
S1132D9004029B0234431D43D6E70024D0E7C04617
S1132DA0000C004095170000080C0040D1170000EB
S1132DB010B504000A4A53785BB2002BFBDB094BC5
S1132DC09847094B064A1C7053785BB2002BFBDB17
S1132DD0802351685B020B435360044B984710BD3A
S1132DE0000C004095170000040C0040D1170000AF
S1132DF070B504000D78114B2D0205439847104B14
S1132E00104A1C70104C63881B05190F638813400B
S1132E10638063880D4A134080226380D2016388F3
S1132E201342FCD162880B020649ADB20A40134337
S1132E306380074B9847658070BDC04695170000B6
S1132E40020C0040FFF0FFFF000C0040FFBFFFFF3B
S1132E50D117000010B50400064B9847064B074AEB
S1132E601C7080235188DB010B435380044B98472B
S1132E7010BDC04695170000020C0040000C004035
S1132E80D1170000F8B504001C4FB8471C4B1D4D6A
S1132E901C706C881C4E2405240FB0476B785BB201
S1132EA0002BFBDBB847194B164D1C706B785BB2DB
S1132EB0002BFBDB6868164BC004C00E9847070064
S1132EC0124B104A1C706D68124BED02ED0F1C7012
S1132ED053785BB2002BFBDB916809020C0CB04702
S1132EE0002D03D00134E7403800F8BD012CFBD994
S1132EF038002100084B98470700F5E795170000B4
S1132F00020C0040000C0040D1170000040C0040EB
S1132F108D2A0000080C0040CD5D000030B500286B
S1132F2013DB03240D4A831094462040C025C000BF
S1132F300630844081409B006344AD005A59A2434B
S1132F40114359510023180030BD1723421CFAD1F4
S1132F50034B890719620023F5E7C04600E100E04E
S1132F6000ED00E070B5C2090023002A04D12F4A05
S1132F7043099446DB0163441F2210401E3A8240F9
S1132F80C878002831D10878802847D080240006EA
S1132F90640220434C7802252600AE4307D18C7886
S1132FA0002C37D18024A40220435A604C78013C81
S1132FB0012C35D9A02415042D0CE4052C4304431D
S1132FC09C62D024150C24062C4304439C62CC78C8
S1132FD0002C09D1400303D58878012823D05A61F5
S1132FE049780139012913D970BDA0201404240C97
S1132FF0C00520435A609862D020140C0006204378
S11330009862C8780028EFD1497801390129EBD8B2
S11330109A60E9E7C024E4022043C6E70020B9E748
S1133020034C2040C6E79A61DAE7C04600440041F9
S1133030FFFFFBFF7047C04610B5054B9847054B93
S11330409847054B9847054B9847054B984710BD43
S1133050952B00000118000035300000611E0000AF
S113306035300000931C9B001950022A09D0032A12
S11330700CD0012393401A00037E134303760020EF
S113308070471022037E13430376F8E72022037E61
S113309013430376F3E7C04670B50126154B1D684C
S11330A02B682A7E6C7E9B7B14401C4026421AD1DE
S11330B00226264211D11026264208D12026264275
S11330C004D06B69280098472B689E7370BD2B69E8
S11330D0280098472B689E73F0E7EB682800984710
S11330E02B689E73E7E7AB68280098472B689E73AC
S11330F0DEE7C046AC03002070B50126154B5D68C1
S11331002B682A7E6C7E9B7B14401C4026421AD17D
S11331100226264211D11026264208D12026264214
S113312004D06B69280098472B689E7370BD2B6987
S1133130280098472B689E73F0E7EB6828009847AF
S11331402B689E73E7E7AB68280098472B689E734B
S1133150DEE7C046AC03002070B50126154B9D6820
S11331602B682A7E6C7E9B7B14401C4026421AD11D
S11331700226264211D11026264208D120262642B4
S113318004D06B69280098472B689E7370BD2B6927
S1133190280098472B689E73F0E7EB68280098474F
S11331A02B689E73E7E7AB68280098472B689E73EB
S11331B0DEE7C046AC03002070B50126154BDD6880
S11331C02B682A7E6C7E9B7B14401C4026421AD1BD
S11331D00226264211D11026264208D12026264254
S11331E004D06B69280098472B689E7370BD2B69C7
S11331F0280098472B689E73F0E7EB6828009847EF
S11332002B689E73E7E7AB68280098472B689E738A
S1133210DEE7C046AC03002070B50126154B1D69DE
S11332202B682A7E6C7E9B7B14401C4026421AD15C
S11332300226264211D11026264208D120262642F3
S113324004D06B69280098472B689E7370BD2B6966
S1133250280098472B689E73F0E7EB68280098478E
S11332602B689E73E7E7AB68280098472B689E732A
S1133270DEE7C046AC03002070B586B001AA0100A9
S11332801000134B70CB70C030CB30C0019B9942FF
S11332900ED0029B99420ED0039B99420ED0049B00
S11332A099420ED0059B00208B420DD006B070BD14
S11332B00020C0B2FAE70120C0B2F7E70220C0B292
S11332C0F4E70320C0B2F1E70430C0B2EEE7C04631
S11332D018630000F0B5CE46474680B5AE4B8BB0C0
S11332E005AC0F0091461900220006009C4629C92E
S11332F029C209C909C2059ABA4200D114E1626817
S1133300974200D113E1A268974200D112E1E2682A
S1133310974200D111E1002290462269974200D1E0
S11333200EE11B2203AD2A7001326A70AA70634653
S11333300132EA702A712200143303CB03C21B88C2
S113334013800023B360F360336173613376737663
S11333504346924A9B009E504B4637609B78082B0D
S11333600AD033713B8801220520DB0709D50BB055
S11333700CBC90469946F0BD42461720D207F6D5BC
S1133380EFE7FB7B1730DB06F1D4022339880B40CF
S1133390EDD14946097C002900D0D7E04B461B7F7C
S11333A0002B00D0DEE043467D4A5B00116AE35AFD
S11333B00B4313624B469B78082B00D1E4E04B4649
S11333C01B7801A90B704346EC5C764B20009847B0
S11333D0754B200098474B464A4619899B880B43F6
S11333E091789279114319434B465B78002B02D0B4
S11333F080231B0119433268D37B5BB2002BFBDBB8
S11334004B4639805B7B002B00D09CE001210022DD
S11334104B469B7B002B00D111003268D37B5BB2FF
S1133420002BFBDBFF233B71002905D03268D37BE3
S11334305BB2002BFBDB79714B46997ADB7A002B6C
S113344001D0102319434B461B7B002B01D02023B2
S113345019433268D37B5BB2002BFBDBB971326852
S1133460D37B5BB2002BFBDB3379042B1ED0082B00
S113347041D01720002B00D079E7D37B5BB2002B1F
S1133480FBDB4B461B8D3B823268D37B5BB2002B4C
S1133490FBDB4B465B8D3B833268D37B5BB2002BFB
S11334A0FBDB4B469B8D00207B8360E7D37B5BB2C9
S11334B0002BFBDB4A462823D35C3B743268D37B66
S11334C05BB2002BFBDB4A462923D35C3B75326895
S11334D0D37B5BB2002BFBDB4A462A23D35C3B76CF
S11334E03268D37B5BB2002BFBDB2B234A46D35CD5
S11334F000207B763BE7D37B5BB2002BFBDB4B46A8
S11335009B6A3B613268D37B5BB2002BFBDB4B468F
S1133510DB6ABB613268D37B5BB2002BFBDB4B46BF
S11335201B6B0020FB6122E700229046F9E6012292
S11335309046F6E602229046F3E603229046F0E631
S113354004229046EDE60521042261E702A9CB702E
S11335504B461B7E8A700B704B46187D134B4A708A
S113356098471BE7002202A9CA7024204A46012377
S1133570121812788B700A704B7020224B469B18DD
S113358018780A4B98470EE74346591C4900106ABD
S1133590635A0343136212E718630000AC0300206C
S11335A000040040F12D0000552E0000652F00009E
S11335B0F0B557464E46DE464546E0B58E7983B0B3
S11335C073B28A46002B00DA71E0002E33D00F2349
S11335D033405C00023CA50099466F4F2B199B00B9
S11335E0FB181A8A01920A8893469A7C520726D4B9
S11335F02B199B00FB18DA685A449046DA609A68E3
S113360090451AD853469B885B452BD001202C1932
S1133610A40039198B7C83438B743B59002B03D052
S1133620C96832000020984703B03CBC90469946D4
S1133630A246AB46F0BD338AFFDEDA60E6E7D9681E
S11336405A688C46986862440199544B904698474E
S11336504B460A00013B52499B0159184046514BC5
S11336609847C5E79045D1D04346D21A4E4B96B2FF
S11336709A4601999E426CD918004C4B9847534680
S11336805B1A9BB22C190199A4003F19994259D98C
S11336900422BB7C464C1343BB744B465A1E404B1E
S11336A09201D21843480B004946A047BCE7802E3C
S11336B045D00F2333405C009946631E9C00E018FC
S11336C0354F800098463B18198A1A008B4651469C
S11336D04D88D96810328C4699686544DD608D4206
S11336E03DD04E1B304BB6B29A469E4206D91800C6
S11336F059462E4B984753465E1AB6B24346E318D2
S11337009B00FB189A7C0023920707D5234B59464C
S11337103000984789B24B424B41DBB2022044440B
S1133720A4003F19BA7C5B00824313437A68BB74DC
S1133730521933004946204C1E48A04774E7002321
S11337401B8AFFDE7A6849464244194C1948A0474F
S11337506AE7124B30009847731A9BB292E7022132
S11337609C7C21420CD1012193788B4393703B586C
S1133770002B00D158E7320029000020984753E776
S113378090780D4C884390705A684946521900232A
S11337900848A04748E7C046A8020020D95E0000B8
S11337A0C003002095610000FF1F0000AD60000011
S11337B0894D0000800400203D4D000030B5040018
S11337C083B01E4B98478023226801AD9372280072
S11337D01B4B9847032329006B702000194B984713
S11337E019492000194B9847194D1A4B0222002100
S11337F02000A847184B002200212000A847174B9F
S1133800012200212000A847154D0222002120009A
S1133810A847002200212000A847012200212000FF
S1133820A84721680F4A0B891A408023DB00134301
S113383000220B810C4B1A7003B030BD2110000024
S1133840554A0000654A000000060020D14D0000E2
S1133850A5480000313C0000493E00006D380000DE
S1133860F5480000FFF3FFFFA602002010B5897998
S1133870124A4BB2002B05DB1378022B0BD0032B1F
S113388005D010BD1378012B08D0042BF9D10C48B6
S11338900C4B9847F5E702331370F2E7084C0233F8
S11338A0137009492000094B9847094B00219A6875
S11338B020000023074CA047E3E7C046A6020020EF
S11338C080040020A14C000000060020D14D00001F
S11338D0E80500203D4D0000F8B51F4D1F4E2A8815
S11338E0B489A41AA4B2002C10D01D4F3F2C23D9A4
S11338F04023002140243970B1681A488A181A4EAE
S11339000021B0472B88E4182C80F8BD17490B8898
S1133910D3189BB20B80F188994210D0104F3B789A
S1133920002B0CD17369002B04D0984700280ED1CA
S113393000232A880121DEE723000121DBE704229A
S11339400B4B0C491A7007480B4B9847DDE72C804A
S1133950B4890022CAE7C046A2020020E80500207C
S1133960A0020020800400203D4D0000A40200209D
S1133970A602002000060020D14D000010B5024B25
S11339809847024B984710BDD11000006D5A0000B3
S11339900122034B1A70BFF35F8F62B67047C046B3
S11339A0E800002070B52E4C84B020002D4E0D0090
S11339B00621B04704212000B04720002A4B0221F1
S11339C098472A4B2A4C01932378022B1ED0294B6B
S11339D09A78FF2A23D0EFF310814A424A41029297
S11339E072B6BFF35F8F002223490A709A78029857
S11339F001329A70002804D001220A70BFF35F8F4D
S1133A0062B62278002A0BD1022323702B68002B84
S1133A101FD11A4B98471A4B984704B070BDFEE764
S1133A2001A8825C985C002812D0EFF310867042E3
S1133A307041039072B6BFF35F8F00200870995CE9
S1133A400398013999540028DED00E4B9847DBE7E0
S1133A50FEE70D4B98472B68002BDCD1D9E7C04615
S1133A608004002089480000694800000003020126
S1133A702003002044030020E8000020995A00009D
S1133A808D5A000091390000A55A000030B5214B31
S1133A90214C85B001932378012B1ED01F4BDA787B
S1133AA0FF2A1CD0EFF3108251424A41029272B6AF
S1133AB0BFF35F8F00221A490A70DA780298013244
S1133AC0DA70002804D001220A70BFF35F8F62B657
S1133AD02278002A04D10123237005B030BDFEE70B
S1133AE001A8825C985C002812D0EFF31080454254
S1133AF06841039072B6BFF35F8F00200870995C31
S1133B000398013999540028E5D0064B9847E2E719
S1133B10FEE7C04600030201200300204403002006
S1133B20E80000209139000030B5214B214C85B0CC
S1133B3001932378032B1ED01F4B5A78FF2A1CD0E5
S1133B40EFF3108251424A41029272B6BFF35F8F83
S1133B5000221A490A705A78029801325A700028D1
S1133B6004D001220A70BFF35F8F62B62278002A64
S1133B7004D10323237005B030BDFEE701A8825CA5
S1133B80985C002812D0EFF31080454268410390FE
S1133B9072B6BFF35F8F00200870995C03980139F7
S1133BA099540028E5D0064B9847E2E7FEE7C04663
S1133BB0000302012003002044030020E800002049
S1133BC09139000070B5124B9A8C92061BD41A00DE
S1133BD0D021D3680B40D02BFBD10E4C0E4B0221CD
S1133BE0200098470D4D04212000A8470C4A0D4B96
S1133BF006212000984706212000A8470A4B984731
S1133C000A4B984770BD1021DA681142FCD0E4E7F2
S1133C100008004080040020894800006948000032
S1133C20A539000045480000293B0000615A000006
S1133C3070B5334D0C002B78002B06D0314B1B692B
S1133C40002B00D0984700232B702388082B0BD01F
S1133C5005232D4C2B70802120002C4B98470021EC
S1133C6020002B4B984770BD2A4C264E2378337086
S1133C7063787370E278A37812029B187380627978
S1133C80237912029B18B380E279A37912029B185C
S1133C90F380214B98470028DAD033787F2B1ED845
S1133CA0F388002B0DD000231C4A002113801C4AEA
S1133CB01548138001332B7022003F33194CA04761
S1133CC0D1E703332B70104D21002800164B984781
S1133CD0B268002300212800144CA047C3E7002346
S1133CE00E4A002113800E4A0748138002332B70BA
S1133CF022003E330B4CA0470D4B9847B3E7C04618
S1133D00A6020020E805002080040020A14C000049
S1133D10C14C00000006002011110000A402002084
S1133D20A2020020894D0000D14D00003D4D00004D
S1133D30D938000030B5264C85B004212000254B2D
S1133D4098472000244B02219847244B244C01938C
S1133D502378012B1ED0234BDA78FF2A1ED0EFF3F1
S1133D60108251424A41029272B6BFF35F8F002221
S1133D701D490A70DA7802980132DA70002804D0FA
S1133D8001220A70BFF35F8F62B62278002A06D13F
S1133D9001232370154B984705B030BDFEE701A8F9
S1133DA0825C985C002812D0EFF310804542684191
S1133DB0039072B6BFF35F8F00200870995C03987C
S1133DC0013999540028E3D0094B9847E0E7FEE70E
S1133DD080040020894800006948000000030201B3
S1133DE02003002044030020E8000020555A00006E
S1133DF09139000070B501000400104B1048984739
S1133E007F23234017D00F2301202340E2095B00C6
S1133E109B18023B9A00D3180A499B00CA18957C48
S1133E20284207D05B5885439574002B02D0D16893
S1133E302200984770BD9B7CFFDEC046514C0000B9
S1133E4080040020A8020020F8B5CE46474680B57D
S1133E503C4C2378012B0CD0022B36D03A4B1B69F7
S1133E60002B00D09847002323700CBC9046994641
S1133E70F8BD364A344E0F881088B389C519904668
S1133E80AB4225DBB3683A009C46314B60441900D1
S1133E909946304B98474346ADB21D80402F1BD006
S1133EA07369B581002B02D09847051E32D00323D5
S1133EB02370294C49462000284B9847B2680023B8
S1133EC000212000264CA047CFE7264B9847CCE79B
S1133ED01F1ABFB2C519D5E7234FF2883B885B1977
S1133EE09A42DDDDB389AB420DD17569002D11D045
S1133EF0A84700281BD042463B8812889B183B8069
S1133F0042460023138040234A460021174C12489E
S1133F10A047AAE7052323700F4C00212000144B6F
S1133F20984700212000134B9847AB7CFFDE052304
S1133F300021237008480E4B984700200E4B9847E9
S1133F4093E7C046A6020020E8050020A202002054
S1133F50000600209561000080040020D14D00007F
S1133F603D4D0000D9380000A4020020894D000016
S1133F70A14C0000514C0000F53D000000207047AA
S1133F80024B1B68188A8004400D7047800400208F
S1133F90024B1B68188A80B27047C0468004002018
S1133FA0F0B5CE464746050080B583B001AC20008D
S1133FB0214B9847214E224B290030000F27984768
S1133FC07F232F402B4035D07A00E90953181D4A2E
S1133FD0023B91469A00D3184A4601209B00D2180E
S1133FE0917C084210D0102188469044414689783B
S1133FF0814308004146887049465B58002B03D032
S1134000D16801202A00984700232100E370300082
S11340100D4B257098473900002230000B4B984710
S11340200022290030000A4B984703B00CBC90468C
S11340309946F0BD9B7CFFDE554A000080040020B9
S1134040514C0000A8020020654A0000CD48000041
S1134050A5490000F0B5C646050000B582B001AC24
S11340602000374B0E00170098472570082F20D8E2
S1134070002363707F232B4019D00F232B40EA09C0
S113408098465B009B18023B9A00D3182D4A9B006C
S1134090D3181F8203231E40012E30D0022E15D0C8
S11340A0032E12D0002002B004BC9046F0BD1B8247
S11340B0FFDE102F02D801236370DBE7202F21D904
S11340C0402F22D803236370D4E70423E3701E4EE9
S11340D0210030001D4B98470028E3D11C4B0022DF
S11340E041461C4C3000A047002229001A4C3000E5
S11340F0A047012229003000A0470120D3E7013B5B
S1134100E370E4E702236370B4E7802F06D98023C9
S11341105B009F4205D8FB3B6370ABE704236370ED
S1134120A8E780239B009F4203D8FB3BFF3B6370BF
S1134130A0E70A4B9F42B5D8072363709AE7C046AD
S1134140554A0000A802002080040020654A0000AF
S1134150B1350000A5480000F5480000FF03000049
S113416010B50100014B0248984710BD814C000076
S11341708004002070B50F24050004400020032CA7
S113418000D970BD134E29003000134B9847134BD0
S11341902900300098477F232B4018D00121EB09D8
S11341A06400E418023CA3001C190D4AA40013196E
S11341B0987C014209D0987CA45888439874002CB8
S11341C003D0D9682A000120A0470120D9E79B7CAD
S11341D0FFDEC04680040020A14C0000514C0000CA
S11341E0A80200200F2370B501000340032B1FD841
S11341F07F24044004D10F480F4B9847A37CFFDE73
S11342005C00C309E418023C0B4B0A489847A3001E
S11342101C190A4AA4001319997C0125C90701D461
S1134220280070BD997CA9439974A3589847F7E76F
S11342300025F5E780040020C14C0000A8020020FE
S1134240F0B5454657464E46DE460F24E0B588464F
S113425087B0050091461F000440032C07D90020B5
S113426007B03CBC90469946A246AB46F0BD754BA0
S113427001009B461800744B98470028EFD17F2318
S11342802B400CD1EFF3108251424A41059272B691
S1134290BFF35F8F6D4A1370059A9B7CFFDE6BB290
S11342A01A000393D20F63009E18B11E0E000191F1
S11342B0EFF310835A425341059372B6BFF35F8FF5
S11342C06349B4468A460121604A1070059B0093F5
S11342D0B300029363449B0053449E7C314253D108
S11342E00126B4466646987C30439874009B002BA4
S11342F060D1019A494694465246029B1098634401
S11343009B00D21851600021D1605146C850110061
S113431010318E784346B04602260120B44603404D
S113432046466046864304205B00334383438B70D8
S1134330039B9760002B42DB002F2ED0138A454D40
S1134340BFB298461900AF426DD9434B2800984735
S11343506B1A9BB24A4643450ED2029B04219C46EB
S1134360019B63449E005644B27C3C4B0A43B274A6
S1134370621E9201D218434621005846384CA04789
S113438043425841C0B26BE7009B002B00D166E763
S11343901170BFF35F8F62B662E701228B7893439B
S11343A08B70109B002B03D02A000021002098471B
S11343B0012055E71170BFF35F8F62B699E7002FB4
S11343C037D0244DBFB2AF4205D9118A2800224B01
S11343D098476F1ABFB2019A029B944663449B00AC
S11343E05344997C0022890707D5198A38001D4B4C
S11343F0984789B24A424A41D2B2019902208C4676
S1134400029B510063449B0053449A7C82430A43B9
S11344109A743B0021004A465846134CA047434235
S11344205841C0B21CE738000E4B98477F1ABBB204
S113443090E7937C62461A42AFD08B7893438B709B
S11344400023E7E780040020814C0000E8000020FE
S1134450A8020020FF1F0000AD600000C003002080
S1134460894D0000D95E00003D4D00008022024BC2
S113447010431B689872704780040020024B1B682D
S1134480987A4006400E70478004002030B53B4BBC
S113449085B09A8C920653D4D021DA680A40D02A87
S11344A0FBD1374B374C01932378032B1ED0364B6B
S11344B05A78FF2A43D0EFF3108251424A410292C4
S11344C072B6BFF35F8F002230490A705A7802989F
S11344D001325A70002804D001220A70BFF35F8FA2
S11344E062B62278002A30D103232370284B1B683C
S11344F05A7B022A21D002211A890A4392B21A81D4
S11345005A7B022A19D01A890A4392B21A815A7B19
S1134510022A12D01A890A4392B21A815A7B022AB9
S11345200BD01A890A4392B21A815A7B022A04D008
S11345301A890A4392B21A815B7B05B030BDFEE74B
S11345401021DA681142FCD0ABE701A8825C985CC8
S1134550002812D0EFF3108045426841039072B6F0
S1134560BFF35F8F00200870995C03980139995458
S11345700028B9D0074B9847B6E7FEE7000800408B
S1134580000302012003002044030020E80000206F
S11345908004002091390000014B98609981704794
S11345A0E805002070B5174B98470121164C174EAB
S11345B02268200013898B4313810331144AB047C6
S11345C0144A00212000B047134A01212000B047BB
S11345D0124A02212000B047114D04212000A847AF
S11345E000212000A84701212000A8470221200023
S11345F0A8470C4A06212000B04706212000A847FE
S113460070BDC046293B00008004002045480000DE
S1134610353D00007D390000BD370000C53B00007A
S113462069480000A539000070B500212D4B84B005
S11346300E2098472C4B196A8023DB01194035D191
S113464001252A4B2A4C1A6813892B439BB21381E8
S1134650032301AA5370013B937023781170D57022
S1134660012B1CD0234BD878FF281ED0EFF31080E9
S113467046427041029072B6BFF35F8F1E480170CC
S1134680D978029E0131D970002E03D00570BFF392
S11346905F8F62B6217800290BD10123237000219A
S11346A0164B0E20984704B070BDFEE7144B984794
S11346B0F5E7525C995C002912D0EFF310814D426A
S11346C06941039172B6BFF35F8F00210170995C59
S11346D00398013999540028DFD00A4B9847DCE746
S11346E0FEE7C046FD1D0000004400418004002098
S11346F02003002044030020E8000020D91D00000E
S1134700A545000091390000F0B5DE4657464E46F7
S11347104546E0B587B0EFF310835A425341029304
S113472072B6BFF35F8F0024364D01AF2C70380092
S1134730354B029E9847BC70344C3A003449354B93
S113474020009847344B20009847344B9A8C9206AB
S11347503DD41A00D021D3680B40D02BFBD1304B71
S113476003AF9946984738002E4B98470E2303937E
S113477000237B603B720333FB72023BBB722A4B08
S113478000210E209A46984739000E20274B98475F
S11347900022274B0E212748984700210E20264F40
S11347A0B8478022254BD2019B461B6A9046134290
S11347B012D1002E04D001232B70BFF35F8F62B699
S11347C007B03CBC90469946A246AB46F0BD1021CA
S11347D0DA681142FCD0C2E700210E20D0475B46C4
S11347E042461B6A134209D10121226813890B43F3
S11347F01381C84700210E20B847DAE7104B9847C9
S1134800F8E7C046E800002091530000800400202F
S113481000500041A1530000014E00000008004078
S11348208D3A0000D51E0000FD1D0000E91E0000A9
S1134830B11D000029460000D91D000000440041BC
S1134840A54500000B002E339B0010B51A50AA2278
S1134850044C52004900835A095B0B4383520020E5
S113486010BDC0464C630000064B4900CB5AAB2137
S1134870026849009383425A1A4342520268002054
S1134880138370474C630000054B4900CA5AAB219F
S11348904900435A93434352036800209A82704765
S11348A04C63000010B58C00A4183434A40004191F
S11348B04018593004496360FF3003788A5C13431D
S11348C00370002010BDC0465C63000010B50024D6
S11348D08B009B1834339B00C31840185C6059301C
S11348E0034BFF309A5C037893430370002010BDA0
S11348F05C6300000F2370B50B40C4186134284E6C
S1134900FF342578B65C35432570002A08D1002B86
S113491015D10A2303210268FF33D154002070BD4E
S1134920012A17D1002B1FD002685B01D3180A3368
S113493049B2FF33002920DB04221A70EEE7026833
S11349405B01D3180A3349B2FF33002912DB012279
S11349501A70E3E7022A13D102685B01D31810220C
S11349600A33FF331A70D9E70A230C210268FF3394
S1134970D154D3E702221A70D0E708221A70CDE787
S1134980032ACBD102685B01D3180A3349B2FF333F
S1134990002902DB20221A70C0E740221A70BDE70A
S11349A05C6300000F2370B50B40C418284D6134BC
S11349B0FF34AE5C2578B5432570002A08D1002B5E
S11349C015D1032102680933FF33D154002070BD8F
S11349D0012A17D1002B1FD002685B01D3180933B9
S11349E049B2FF33002920DB04221A70EEE7026883
S11349F05B01D318093349B2FF33002912DB0122CA
S1134A001A70E3E7022A13D102685B01D31810225B
S1134A100933FF331A70D9E70C2102680933FF33D5
S1134A20D154D3E702221A70D0E708221A70CDE7D6
S1134A30032ACBD102685B01D318093349B2FF338F
S1134A40002902DB20221A70C0E740221A70BDE759
S1134A505C63000000230370437083700133C370F0
S1134A607047C046F0B5CE4647460F2380B50C7854
S1134A70CA782340060064B2042A1AD8714D920001
S1134A80AA589746802040008046175C9038844698
S1134A90654654383D4224D140462027105C4546A3
S1134AA038435055180032680830400112188020ED
S1134AB010710720E20F5B009B18634A4C781B01BE
S1134AC0D3185A682040614C0007224002435A60C0
S1134AD08A78002A00D084E000205A6852005208E4
S1134AE05A600CBC90469946F0BD00685A01844651
S1134AF06244002C00DA8AE080256D00575D1C209A
S1134B007F07EED1505D032761E000685A018446B7
S1134B106244002C6CDB80256D00575D1C207F07F0
S1134B20DFD1505D042752E00021026808335B01A5
S1134B3099540020D5E7026880205D014000521995
S1134B40175C8146E4387F07CBD14C467027145D4F
S1134B502742C6D14C460B381055326808335B01E6
S1134B60D2182F3050713268D31880221A718B7882
S1134B70002B5BD08020344B00065A195468044340
S1134B80546054692043506107224C785D19686869
S1134B902E4E1440240730402043686049786B69E6
S1134BA00A40120733401A436A61002099E70068FB
S1134BB05A0184466244002C00DA63E780256D00C4
S1134BC0575D1C207F0700D08BE70227505D3843D8
S1134BD050551800326808304001121840205071B6
S1134BE067E78022596812060A435A60002078E772
S1134BF0802040008046175C9038844665465438CF
S1134C003D4200D06DE740464027105C47E78020D6
S1134C1040008046175C90388446654654383D42CF
S1134C2000D05EE740463027105C38E7064B581941
S1134C30426852005208426042695200520842617E
S1134C40A2E7C0463863000040060020FFFFFF8F44
S1134C500F230B40083302685B0149B2D2180029C4
S1134C6006DB402151710268D3180122DA717047C2
S1134C70802111710268D3180222DA71F7E7C04665
S1134C800F230B40026808335B01D31849B29879AB
S1134C90002902DBC006C00F70478006C00FFBE787
S1134CA00F230B40026808335B0149B2D318002973
S1134CB002DB10225A71704720225A71FBE7C0466A
S1134CC00F230B4049B230B500291BDB8324026853
S1134CD0590164005218155DF63C2C4211D082250E
S1134CE06D0054550268103452180821FF31555C88
S1134CF02C4206D05454026808335B01D3180122B5
S1134D001A7130BD83240268590164005218155D7C
S1134D10E63C2C42F5D082256D00545502682034BF
S1134D2052180821FF31555C2C42EAD054540268D1
S1134D3008335B01D31802221A71E2E770B50D0043
S1134D40046808356D012C5D1C266406640F01D1CE
S1134D50300070BD0A4C490161180C000A614A69AF
S1134D6008499B040A40626162699B0C920B92039E
S1134D7013436361036800265D1980236B71E7E7C1
S1134D8040060020FF3F00F070B50C0005680834B1
S1134D906401655D1C266D0701D1300070BD0A4DAC
S1134DA049014A5169184A68084D9B041B092A4065
S1134DB013434B604B6800269B0B9B034B600368BB
S1134DC01C1940232371E8E740060020FF3F00F050
S1134DD0094B19605A6809491140802292020A431A
S1134DE05A605A684021920B92035A6082230268E7
S1134DF05B000020D154704740060020FF3F00F0C4
S1134E000221026813780B43137002689378022B13
S1134E10FCD07047F0B545465746DE464E46E0B5F1
S1134E20CD4B83B01F6898463D682B78DB096AD167
S1134E302E8CB6B2002E33D1AB23AA225B005200D3
S1134E40FB5AAE8BBD5A00241D40C44BB6B29B46E0
S1134E5080235B009A46C24BC24F9946354063009B
S1134E60FB5A334203D042461268126893832B42A2
S1134E700CD04946062C00D179E2230042462E3359
S1134E8012689B009B584246106898470134072CCF
S1134E90E5D103B03CBC90469946A246AB46F0BD72
S1134EA001223C0094465F329346503A00239246D6
S1134EB0B946A8465934FF34320061461A41DDB27E
S1134EC011421BD01F0008377A014244D11DD27908
S1134ED00191217A2078D2B2114001405846104203
S1134EE000D06DE15046104200D089E10320104209
S1134EF000D09EE10C20104200D0BEE10133013409
S1134F00082BD9D1C5E72B8C002B71D10423AC8B92
S1134F10A4B2234205D0AB83A523FB5CDB0700D5F9
S1134F202DE1082323420BD000218F4A1160424611
S1134F301068026893839D33C35C9B0700D51BE113
S1134F404023234208D042461068026893836533A5
S1134F50C35CDB0600D5FBE02023234208D0424695
S1134F601068026893838533C35C1B0700D5ECE0AB
S1134F701023234208D04246106802689383953375
S1134F80C35C5B0700D5DDE0802323420BD0002106
S1134F90754A116042461068026893832533C35CE6
S1134FA09B0600D5CBE080235B001C420BD0002184
S1134FB06D4A116042461068026893835B3BC35C90
S1134FC05B0600D5B8E080239B001C4200D160E75B
S1134FD00021654A116042461068026893835C3B75
S1134FE0FF3BC35C7F2B00D853E7036A984750E725
S1134FF0288C5E4B80B29847060003220836730162
S1135000ED18ED790400EDB22A4213D056498C46CE
S1135010012189468140604600688843010060465A
S113502001603968C918CA7149463A19AE32127812
S1135030114257D104232B420BD00122A2404A49EA
S11350400868904342461268086012687101521859
S1135050D37108232B4212D00122A240424908688E
S11350609043424608601068720101688C466244AD
S1135070D3710319AE331B789B0700D592E010233C
S11350802B4211D00122A24037490868904342467E
S113509008601068720101688C466244D371031978
S11350A0AE331B785B076ED420232B4200D1F0E68D
S11350B00122A2402C4976010868904342460860C8
S11350C01068026894466644F3710319AE331B7882
S11350D01B0700D4DDE626490C7024010419236B58
S11350E09847D6E622490C703A689B5C9B079B0F55
S11350F0012B00D1F4E0194A6301D3185A68120154
S1135100920C4A8090B25A6882469204920C8A8029
S11351105A6891464846174A104052465860002A39
S113512003D15B689B049B0C4B80A31C1B01FB18E5
S11351305B68380098477DE7C369984743E783690C
S1135140984730E7C36898471EE7036998470FE715
S11351504369984700E7C046240300204006002026
S1135160280300204C63000034030020B9600000D1
S113517038030020FF3F00F083689847E0E67B682F
S113518038009847CDE67E4A7E4B610114705B1867
S11351905B6800211B019B0C53802301C318DB6A4D
S11351A0984781E7774B62019B18DA891F2374497A
S11351B013404B702301C3180C709B6A98475EE739
S11351C02A00454690465A01AD1808224020FF3275
S11351D0AC5C4F46204200D192E0A8544046883A45
S11351E0FF3A02436848827160220A4200D150E6C5
S11351F01B01FB18E0331B6863493800984748E6F5
S11352004F46019A1070FA186132FF321278104238
S113521000D13EE65B4A5901521852681B015A49B3
S1135220FB189204920CDC330A801B6848469847AA
S11352302FE62A00454690460822022458012D18DC
S1135240FF32AE5C4F46344264D0AC544546883A93
S11352504D4CFF3A2A43A2714A4A101842699204FB
S1135260920C62808A0700D113E60D331B01FB18F0
S11352705B684549380098470BE63A0028004F46DA
S11352804546914608220824804658012D18FF32CD
S1135290AE5C344251D0AC543A4A10180222847E97
S11352A0224202D0847E9443847680224046524235
S11352B002433548827138684A4684465201624442
S11352C0D279920700D5E4E50C220A4200D1E0E548
S11352D01B01FB18D8331B682B4938009847D8E5C5
S11352E0284A6301D3185A689204920C4A805A6877
S11352F01201920C8A805A68920B92035A6014E746
S11353002020AC5C204200D16EE7A85440461E4ADF
S1135310907169E7AC5CE407A4D56446AC5442469A
S1135320194CA271174A101842689204920C2280F8
S113533042681201920CA28094E70424AE5C3442C9
S1135340C2D0AC540F4A023C1018827A144202D0E4
S1135350827AA243827240460B4A907138684A4668
S1135360844652016244D279D207ADD591E55B46B9
S113537052461B8905491B0913400B607DE5C04655
S113538038030020400600202C03002028030020BE
S113539000220123027043708270C3707047C046BC
S11353A0F0B50023CE46474604001600984A80B55F
S11353B01360984A2160106020200D00964983B044
S11353C0CA6901AF0243CA617B70FB7006330122D4
S11353D099463B70914B39000838BA709846984703
S11353E04B46390019203B70C0476A46B37869467A
S11353F0137006208A4B98478A4B0620984701224F
S11354002B7813432B70AB78DB07FCD40321864A3B
S1135410D3788B4302210B430C21D370D3788B4375
S113542008210B43D370814B1B685B0BDA43D20614
S113543000D1EAE01F212A8D7D480B409B010240E8
S113544013432B85794B1B689B0C19401F2900D1F2
S1135450D9E01F212A8D0B408A4313432B85734BBC
S11354601968C90DCB435B0700D1CAE007222B8D15
S11354700A40704912030B4013432B857F2329787C
S113548032780B40D201134301222B7071782B78B0
S11354900A40042192008B43674813432B706862CF
S11354A0F378012B00D1A6E0002B06D10C21226851
S11354B013898B4304210B43138180235B005F4ECC
S11354C01A0000219846B047201D20220021002503
S11354D0B0478027842320006562A562E5622563C6
S11354E06563A563E56325646564A564E564256572
S11354F06565A565E56525666566A566E566256752
S11355006567A567E567E551E5500433E550043365
S1135510E5500433E5500433E5500433E5500433D7
S1135520E5500433E5500433E5540133E5540822CF
S11355300021A630B047200008220021AE30B04739
S113554020001C220021B830B047D423E550043396
S1135550E5500433E5500433E5500433E550043397
S1135560E5500433E5500433E5500433E550043387
S1135570E5500433E55043462000E5500433E5503C
S11355800433E5500433E5500433E5500433E55067
S11355900433E5500433E5500433E5500433E55057
S11355A00433E5500433E5500433E5500433E55047
S11355B00433E5500433E5500433E5500433E55037
S11355C00433E5500433E55059300433E5500822E0
S11355D004330021FF30E550B04720006130082239
S11355E00021FF30B0470020154B1F6003B00CBCF6
S11355F090469946F0BD2268083113898B43138184
S11356005BE7032132E71D2323E7052312E7C046A6
S1135610340300202403002000040040652F000010
S1135620F12D0000552E0000005000412460800040
S11356303FF8FFFFFF8FFFFF40060020A761000037
S113564000E100E0FEE7C04625492648F8B581425E
S113565009D0254B984206D2C243D218920801328F
S11356609200224B98472248224B984207D2C243C9
S1135670D21892080132920000211F4B9847FF2153
S11356801E4B1F4A8B4393609023032502240C274F
S113569008261C4AFD395B00D1501B4AD378AB4322
S11356A02343D370D378BB433343D3703022174B97
S11356B0987B9043202210439873997BB9433143DC
S11356C0997380219A7BAA4322439A73104A5368A0
S11356D00B4353600F4B98470F4B9847FEE7C04668
S11356E08863000000000020EC00002095610000A9
S11356F0EC00002034280020A76100000000000016
S113570000ED00E0007000410050004100480041FD
S1135710004000414D6100008D5800007B22036869
S113572052421A82074B1A68537E5BB2002BFBDB92
S11357300221137B0B431373537E5BB2002BFBDB01
S11357407047C0469C270020802270B5124D52013C
S1135750124B290012489847802252019446114C5A
S1135760114A236863442360934200D870BD0F4BF1
S113577098470F4B9847002809D0802128008901B9
S11357800C4B98470C4B984700232360EEE70B4BD8
S113579098470B4B9847F5E744070020651D000028
S11357A09C27002044270020FF0F0000D90100009F
S11357B0ED0B0000DD0E0000DD0100008909000092
S11357C0E101000010B50C4C00220C4920000C4BE8
S11357D0984720680B4B98470B4B1A5C1F231340C8
S11357E0012211009940094B19600121637E0B438A
S11357F0637623685A7310BD802700201D5700006C
S113580065300000793200006063000000E100E0D0
S113581010B58CB06846184B9847694600234B80F6
S1135820029302334B70013BCB7400230B73802330
S1135830DB00CB8103223323104C0A700B716A46C0
S11358400F4B10492000984723685A7E52B2002A11
S1135850FBDB80210C4A090411600F2202219A7596
S11358601A761A780A431A702268537E5BB2002BA8
S1135870FBDB0CB010BDC046391800009C2700208B
S11358807D1800000040004200E100E0F0B5DE4673
S113589057464E4645460123E0B5594C8FB0237018
S11358A0BFF35F8F62B60026564D2B71564B2E7098
S11358B06E70AE70EE709847544B9847544F002268
S11358C054493800544B98470122FB7E05961343F4
S11358D0FB766B466A469E709E7100231681537058
S11358E09372D372137393735373137413770022E5
S11358F00023089209936B466A461E855E859E8541
S11359000323137080230696444EDB00938044499E
S1135910444B300098473368DA7B52B2002AFBDBF1
S113592002211A880A431A803F4B98473F4E0121AF
S11359301720B04700211320B04701232370BFF381
S11359405F8F62B63A4B98473A4B98473A4B984721
S113595080223800394B520139499847394B002687
S113596099460F239846384B01279C4604239B46AF
S1135970364B9A4672B6BFF35F8F26702B78002B96
S11359800BD100212A0000E01900013210784B1CD1
S1135990DBB20028F8D0002B04D12770BFF35F8F4F
S11359A062B6E7E772B6BFF35F8F4B464246267096
S11359B09B691B0A1340022B06D853465A68C0231E
S11359C09B0013435246536002290FD9032905D182
S11359D063465A461B691343624613612770BFF33B
S11359E05F8F62B6BFF34F8F30BFC3E763465A463B
S11359F01B69934362461361154B5970EEE7C04629
S1135A00E800002044030020393000001158000051
S1135A109C27002049570000511D000080270020CA
S1135A2000300042D5320000C55700001D2F000091
S1135A302D0100008901000015100000651D000003
S1135A40440700200020004100ED00E00040004138
S1135A500004004010B5014B984710BD89010000B7
S1135A6010B5014B984710BDB901000010B5044BA7
S1135A701B78002B03D0034B9847034B984710BD6A
S1135A803E030020813F0000E501000010B5014BFA
S1135A90984710BD8901000010B5014B984710BD0F
S1135AA0A901000010B5014B984710BD99010000F1
S1135AB0012210B5024B1A70024B9847012010BD09
S1135AC03E0300205D5D0000002210B5024B1A70F9
S1135AD0024B984710BDC0463E030020955D000070
S1135AE010B5002902D1034B984710BD024B9847CB
S1135AF0FBE7C046CD010000C901000010B50C4B06
S1135B0098470C4B984700280BD00B4C0B4B207834
S1135B1098470B4B9847012221000A4B0A489847A3
S1135B2010BD0A4B98470A4B9847034CF1E7C0460F
S1135B30D9010000ED0B00003F0300208D0D000093
S1135B40DD0100009D2800000028002089090000D4
S1135B50E101000070B501250D4C0E4B25709847EE
S1135B60002809D131220C498B5CAB438B540B4B7D
S1135B7098470023237070BD094B9847094B9847F9
S1135B80094901220870094B03489847F1E7C046C8
S1135B9040030020010A000000280020D501000075
S1135BA0D1010000590A00004103002051280000DF
S1135BB010B50A4B1B78002B0FD1094B98473122A3
S1135BC00121084CA35C0B43A354074B9847074996
S1135BD001220870064B2000984710BD40030020A6
S1135BE0D101000000280020590A000041030020D0
S1135BF051280000FF22F8B54B4C802322819622C5
S1135C00920122620222FF3262628822DB05520381
S1135C102360E26000232C22A3540022E276227641
S1135C2022776276627703226360A372E372A362CF
S1135C3023636363A363E363636123821333A37600
S1135C401A33E2540B79022B01D13E33A3724B7900
S1135C50012B65D0022B60D08B79062B5BD0072BF0
S1135C6059D0052B57D04A780B7812021A438B78F7
S1135C702E4D1B041A43CB782E681B061343236254
S1135C8080235B03E3602A4B30002363294B2A4FB4
S1135C90636301235B42A363E363B8471F23184094
S1135CA01E3B8022834025498B502A68D369002BF0
S1135CB0FCD1022233682249934333602200214BF2
S1135CC0280098472C682000B8471F2318401E3B23
S1135CD083401A4A13602A68D369002BFCD102223C
S1135CE023682800134323603124174E00221749E8
