S02300004144435F434F4E46494755524154494F4E535F4558414D504C45312E7372656313
S113000030210020D1200000C9210000C9210000B6
S113001000000000000000000000000000000000DC
S1130020000000000000000000000000C9210000E2
S11300300000000000000000C9210000C9210000E8
S1130040C9210000C9210000C9210000C921000004
S1130050C9210000C9210000C9210000C9210000F4
S1130060050800003916000051160000691600004A
S11300708116000099160000B1160000C921000085
S1130080C9210000C9210000890100009D01000070
S1130090B1010000C5010000D9010000F514000001
S11300A0C9210000C9210000C9210000C9210000A4
S11300B00000000010B5064C2378002B07D1054B37
S11300C0002B02D0044800E000BF0123237010BDC0
S11300D0200000200000000008290000084B10B593
S11300E0002B03D00749084800E000BF0748036815
S11300F0002B00D110BD064B002BFBD09847F9E72D
S11301000000000024000020082900000829000045
S11301100000000080B584B000AFF860B960FB1D3A
S11301201A70FB1D1A78FB6802329200B968D1502C
S1130130FB1D1B78022B07D1FB681B7E1022134387
S1130140DAB2FB681A7619E0FB1D1B78032B07D182
S1130150FB681B7E20221343DAB2FB681A760DE09B
S1130160FB681B7E5AB2FB1D1B78012199400B00D2
S11301705BB213435BB2DAB2FB681A760023180051
S1130180BD4604B080BD000080B500AF0020024B26
S11301909847C046BD4680BDED01000080B500AF64
S11301A00120024B9847C046BD4680BDED010000CA
S11301B080B500AF0220024B9847C046BD4680BDC3
S11301C0ED01000080B500AF0320024B9847C04604
S11301D0BD4680BDED01000080B500AF0420024B98
S11301E09847C046BD4680BDED01000080B584B08F
S11301F000AF0200FB1D1A70FB1D1A78284B9200F9
S1130200D358FB60FB681B689B7BDBB2FA68127EE9
S11302101340DAB2FB68597E0B23FB180A401A70AC
S11302200B23FB181B780122134008D0FB689B6842
S1130230FA6810009847FB681B6801229A730B2325
S1130240FB181B780222134008D0FB68DB68FA68AD
S113025010009847FB681B6802229A730B23FB1853
S11302601B781022134008D0FB681B69FA68100041
S11302709847FB681B6810229A730B23FB181B78A2
S11302802022134008D0FB685B69FA681000984785
S1130290FB681B6820229A73C046BD4604B080BD2B
S11302A07400002080B582B000AF78607B680022C3
S11302B01A70C046BD4602B080BD000080B582B051
S11302C000AF02003960FB1D1A70FB1D1B78012B67
S11302D00AD0022B0FD0002B14D10E4B0D4A91697A
S11302E03A680A439A610FE00A4B0A4AD1693A68AC
S11302F00A43DA6108E0074B064A116A3A680A437E
S11303001A6201E0172300E000231800BD4602B082
S113031080BDC0460004004080B582B000AF786064
S11303207B6880221A707B6800225A707B680122E5
S11303309A707B680022DA70C046BD4602B080BD68
S113034080B584B000AF78607B681B68FB60FB6895
S1130350DB7BDBB21A00802313405A1E9341DBB2CD
S11303601800BD4604B080BD90B589B000AF786078
S11303700823FB180E4A13CA13C303CA03C300237A
S1130380FB610DE00823FB18FA699200D2587B68E0
S11303909A4202D1FB69DBB206E0FB690133FB61DF
S11303A0FB69042BEED900231800BD4609B090BDAB
S11303B07827000090B58DB000AFF860B9607A601E
S11303C02E23FB1800221A802D23FB1800221A70FA
S11303D02C23FB1800221A702923FC18BB68180070
S11303E0BD4B9847030023702423FB18BB4A1168B4
S11303F0196012791A711823FB18B94A03CA03C386
S113040012881A802B23FB1800221A700EE02B236B
S1130410FB181A78FB68023292000021D1502B237A
S1130420FB181A782B23FB1801321A702B23FB18A4
S11304301B78032BEBD9FB6800221A76FB68002299
S11304405A762923FB181A78A64B9200F968D150E2
S1130450FB68BA681A607B689B78082B08D129234B
S1130460FB181B7803330122134001D01723C2E188
S11304707B689A78FB681A71BB681B889BB21A0068
S11304800123134001D00523B5E1BB68DB7BDBB25C
S11304901A001023134001D01C23ACE1BB681B8855
S11304A09BB21A000223134001D01C23A3E17B68F2
S11304B01B7C002B17D01423FB1818008A4B984779
S11304C07B689B69DAB21423FB181A701423FB1897
S11304D001225A707B685B69DBB21422BA181100DE
S11304E01800824B98477B681B7F002B17D014237E
S11304F0FB1818007C4B98477B685B6ADAB21423BC
S1130500FB181A701423FB1801225A707B681B6AAB
S1130510DBB21422BA1811001800744B984729232F
S1130520FB181A781823FB185200D35A190002201A
S11305306F4B98477B689B78082B0BD12923FB18BA
S11305401B785A1C1823FB185200D35A1900022096
S1130550674B98471023FB181800664B98477B6835
S11305601A781023FB181A702923FB181B782422ED
S1130570BA18D35C1022BA18110018005E4B9847C1
S11305802923FB181B782422BA18D35C18005B4B70
S113059098477B689A787B689B791343DBB29AB25D
S11305A07B681B89134399B27B689A882E23FB18B6
S11305B00A431A807B685B78002B08D02E23FB1833
S11305C02E22BA181288802109010A431A80C046D3
S11305D0FB6818004A4B9847031EF9D1BB682E22CA
S11305E0BA1812881A807B685B7B002B03D02D23FA
S11305F0FB1804221A707B689B7B002B07D02D23E9
S1130600FB182D22BA18127801210A431A70C04629
S1130610FB6818003A4B9847031EF9D1BB68FF22C8
S11306201A712D23FB181B78002B0BD0C046FB68D6
S11306301800334B9847031EF9D1BB682D22BA1812
S113064012785A712C23FB187A68927A1A702A232A
S1130650FB1800221A701CE02A23FB181B787A6806
S1130660D318DB7A002B0DD02A23FB181B78102219
S11306709A401300D9B22C23FB182C22BA181278F2
S11306800A431A702A23FB181A782A23FB1801320A
S11306901A702A23FB181B78012BDDD9C046FB688E
S11306A01800174B9847031EF9D1BB682C22BA18BF
S11306B012789A71C046FB681800114B9847031EC4
S11306C0F9D1FB681B79042B1CD0082B00D16EE0F8
S11306D0002B49D08EE0C046690300008C2700003F
S11306E09427000074000020190300004920000032
S11306F0BD020000A5020000E11C0000251D000051
S113070041030000C046FB6818003D4B9847031E98
S1130710F9D17B6828229A5CBB681A74C046FB68CE
S11307201800374B9847031EF9D17B6829229A5C3D
S1130730BB681A75C046FB681800314B9847031E06
S1130740F9D17B682A229A5CBB681A76C046FB689A
S113075018002B4B9847031EF9D17B682B229A5C17
S1130760BB685A76002346E0C046FB681800244B59
S11307709847031EF9D17B681A8DBB681A82C0465C
S1130780FB6818001E4B9847031EF9D17B685A8DED
S1130790BB681A83C046FB681800194B9847031EB0
S11307A0F9D17B689A8DBB685A83002323E0C04645
S11307B0FB681800124B9847031EF9D17B689A6AAC
S11307C0BB681A61C046FB6818000D4B9847031EAE
S11307D0F9D17B68DA6ABB689A61C046FB68180085
S11307E0074B9847031EF9D17B681A6BBB68DA6123
S11307F0002300E017231800BD460DB090BDC0468D
S11308004103000080B582B000AF154B1B697B60CB
S1130810144B9B693B60124B9A683B681A43104B1C
S11308209A60104B104A9A6108E07B685A687B68AA
S11308301B68180090477B689B687B607B68002B73
S1130840F3D1074BDB683B60054B9B683A68D243A6
S11308501A40034B9A60C046BD4602B080BDC046F4
S11308600000002000040042FFFF0F0F80B582B09B
S113087000AF02003960FB1D1A70FB1D1B78012BB1
S11308800AD0022B0FD0002B14D10E4B0D4A9169C4
S11308903A680A439A610FE00A4B0A4AD1693A68F6
S11308A00A43DA6108E0074B064A116A3A680A43C8
S11308B01A6201E0172300E000231800BD4602B0CD
S11308C080BDC0460004004080B500AF0221022074
S11308D0074B9847074B01221A70C046054B1B78FB
S11308E0DBB21A0001231340F8D1C046BD4680BDD7
S11308F06D0800000004004280B582B000AF104BC8
S11309001B68002B12D1EFF310837B607B68002BF4
S113091009D172B6BFF35F8F0A4B00221A700A4BDB
S113092001221A7002E0084B00221A70044B1B6863
S11309305A1C034B1A60C046BD4602B080BDC04677
S11309403C000020140000204000002080B500AFCF
S11309500B4B1B685A1E0A4B1A60094B1B68002B71
S11309600AD1084B1B78DBB2002B05D0064B0122C1
S11309701A70BFF35F8F62B6C046BD4680BDC046E5
S11309803C000020400000201400002080B584B00A
S113099000AF0200FB1D1A700F23FB18FA1D12781A
S11309A0D2091A700E23FB18FA1D127852091A7014
S11309B00D4BBB600F23FB181B78002B0FD10F23AB
S11309C0FB181B789B0010229446BC446344083BEC
S11309D01A680E23FB181B78DB01D31800E00023F0
S11309E01800BD4604B080BD0044004180B582B00B
S11309F000AF0200FB1D1A70FB1D1B781800034B8F
S1130A00984703001800BD4602B080BD8D09000060
S1130A1080B582B000AF78607B6800221A707B6872
S1130A2001225A707B6800229A70C046BD4602B00B
S1130A3080BD000080B584B000AF0200FB1D1A70B9
S1130A40BB1D0A1C1A70FB1D1B7818000D4B984720
S1130A500300FB60FB1D1B781F22134001229A40F8
S1130A601300BB60BB1D1B78002B03D0FB68BA6866
S1130A709A6102E0FB68BA685A61C046BD4604B098
S1130A8080BDC046ED09000080B582B000AF3B1DBB
S1130A9018000E4B98473B1D01221A703B1D19008C
S1130AA03E200B4B984701213E200A4B98473B1DA3
S1130AB000221A703B1D01225A703B1D19000F20A1
S1130AC0034B9847C046BD4602B080BD110A0000E2
S1130AD0D9150000350A000080B582B000AF7860F7
S1130AE07B6800221A70C046BD4602B080BD00007B
S1130AF080B582B000AF02003960FB1D1A70FB1D87
S1130B001B78012B0AD0022B0FD0002B14D10E4BD3
S1130B100D4A91693A680A439A610FE00A4B0A4AFE
S1130B20D1693A680A43DA6108E0074B064A116A58
S1130B303A680A431A6201E0172300E00023180010
S1130B40BD4602B080BDC0460004004080B582B0FE
S1130B5000AF78607B6880221A707B6800225A702C
S1130B607B6801229A707B680022DA70C046BD4619
S1130B7002B080BD80B582B000AF0200FB1D1A70C8
S1130B80FB1D1B78002B02D0012B07D00DE0084B76
S1130B90074A126C02210A431A6406E0044B044A11
S1130BA0126C04210A431A64C046BD4602B080BDDB
S1130BB00008004080B584B000AF78607B681B6893
S1130BC0FB60FB685B7EDBB25BB2002B01DA0123C6
S1130BD000E000231800BD4604B080BD80B582B09B
S1130BE000AF78607B6800221A707B6800225A701C
S1130BF07B6800225A807B6800221A717B6800227D
S1130C001A767B6800221A627B680022DA617B68AC
S1130C1000229A607B6800221A737B68C02252010A
S1130C20DA817B6800221A747B6800225A747B681C
S1130C3000229A747B680022DA747B6800221A7599
S1130C407B682A22002199547B6800225A757B68AC
S1130C5000229A757B682422002199547B68002223
S1130C60DA847B6800221A857B680022DA757B6847
S1130C702B22002199547B682C2200219954C046D0
S1130C80BD4602B080BD000080B598B000AF78606A
S1130C900C23FA18154B1000190050231A00144B9A
S1130CA09847144BFB657B68132B1AD80C23FB184D
S1130CB07A689200D358FB650823FB1818000E4B82
S1130CC098470823FB1800229A700823FB18012276
S1130CD01A70FB6DDBB20822BA1811001800074B1A
S1130CE09847C046BD4618B080BDC046A027000046
S1130CF065270000FFFF00004D0B000049200000A5
S1130D00F0B589B000AF786039601F23FB1800226A
S1130D101A701023BB611723FB1800221A707B681A
S1130D201B683B610C23FB181800CE4B98473B68AB
S1130D301A780C23FB181A700C23FB1819001E20B8
S1130D40C94B98471E20C94B98473B682C229B5C93
S1130D50002B40D01623FB183A682B21525C1A70E2
S1130D603B68197B1523FB181622BA1812788A18C7
S1130D701A703B682C22995C0F23FB181522BA18B1
S1130D8012788A181A7018E01623FB181B780F22A1
S1130D9013403A68127B9B181800B54B98471523EB
S1130DA0FB181A781523FB1801321A701623FB1846
S1130DB01A781623FB1801321A701523FA180F2318
S1130DC0FB1812781B789A42DED33B68DB89180043
S1130DD0A74B984709E03B681B7B1800A44B984736
S1130DE03B68DB891800A24B98473B685B7D9B00FE
S1130DF0DAB23B691A703B689B7DDB015AB23B68EF
S1130E005B785BB213435BB2DAB23B695A703B68FE
S1130E101B79342B46D89A00964BD3181B689F46EF
S1130E201F23FB183A68527C1A701723FB183A6880
S1130E30127C1A701023BB6136E01F23FB180122B9
S1130E401A701723FB1802221A701023BB612BE0BF
S1130E501F23FB1802221A701723FB1804221A708E
S1130E601023BB6120E01F23FB1801221A701723F3
S1130E70FB1806221A701023BB6115E01F23FB1810
S1130E8000221A701723FB1808221A701023BB6162
S1130E900AE03023BB6107E02023BB6104E00023A8
S1130EA0BB6101E01723AEE11F23FB181B781B0174
S1130EB0DBB270221340DAB21723FB181B781343FA
S1130EC0DAB23B699A703B68DB7D3F2B01D917236B
S1130ED099E13B68DA7D3B69DA70C0467B681800AB
S1130EE0654B9847031EF9D13B685A88BB699BB28E
S1130EF013439AB23B6824215B5C9BB2DB009BB238
S1130F0013439AB23B681B7D9BB29B009BB2134375
S1130F109AB23B689B7C9BB2DB189BB213439AB298
S1130F203B68DB7C9BB213439AB23B699A803B6873
S1130F301B7E002B00D1C4E0BB69102B00D176E0EE
S1130F4002D8002B4DD0BCE0202B23D0302B00D076
S1130F50B7E03B68DB7C002B11D03B68DB697F2B5F
S1130F600BDC3B68DB69803307DB3B681B6A7F2B48
S1130F7003DC3B681B6A803301DA172343E13B68D7
S1130F80DB69FF2B04DC3B681B6AFF2B00DC91E070
S1130F90172338E13B68DB7C002B15D03B68DB6909
S1130FA0364A93420EDC3B68DB69354A934209DBDF
S1130FB03B681B6A314A934204DC3B681B6A304A33
S1130FC0934201DA17231EE13B68DB692D4A934201
S1130FD005DC3B681B6A2B4A934200DC6CE0172358
S1130FE011E13B68DB7C002B15D03B68DB69264AAA
S1130FF093420EDC3B68DB69244A934209DB3B687D
S11310001B6A214A934204DC3B681B6A1F4A9342D1
S113101001DA1723F7E03B68DB691D4A934204DCDD
S11310203B681B6A1A4A934248DD1723EBE03B688E
S1131030DB7C002B32D03B68DB69164A93420EDC22
S11310403B68DB69144A934209DB3B681B6A114A1B
S1131050934204DC3B681B6A0F4A93421EDA17234F
S1131060D1E0C046D90A0000E11C0000251D0000A3
S1131070890C0000F0270000B50B0000FF01000000
S113108000FEFFFFFF030000FF07000000F8FFFF62
S1131090FF0F0000FF7F00000080FFFF3B68DB695B
S11310A05B4A934204DC3B681B6A594A934207DD5E
S11310B01723A8E0C04604E0C04602E0C04600E0B2
S11310C0C046C0467B681800524B9847031EF9D1AE
S11310D03B681A7E3B691A72C0467B6818004D4B08
S11310E09847031EF9D13B68DB699AB23B699A833E
S11310F0C0467B681800474B9847031EF9D13B68EC
S11311001B6A9AB23B691A841423FB183A682C218F
S1131110525C1A701423FB181B78002B06D014237E
S1131120FB181A781423FB18013A1A701423FB18BD
S11311301B780F2B04D83B682B229B5C0F2B01D907
S1131140172360E0C0467B681800324B9847031EA3
S1131150F9D13B689B683A682B21525C1205134312
S11311601422BA181278120413433A68D28913432A
S11311703A68127B1A433B691A613B682A229A5CDB
S11311803B691A753B690F229A753B6824229B5C64
S1131190002B1ED03B68DB8C1F4A934201D91723D6
S11311A031E03B68DA8C3B699A843B6828229B5E79
S11311B01A4A934205DC3B6828229B5E184A9342F4
S11311C001DA17231FE03B6828229B5E9AB23B6931
S11311D0DA84144B1B68DB089BB21B029AB2E0232F
S11311E0DB0013409AB2104B5C681B686101DD0E92
S11311F00D43E60EABB2FF210B409BB213439AB2F0
S11312003B691A8500231800BD4609B0F0BDC046ED
S1131210FFFF0000B50B0000FF0F0000FF070000F8
S113122000F8FFFF246080002060800080B586B055
S113123000AFF860B9607A60FB68BA681A6080230E
S11312405B0219000220324B9847BB681B78DBB263
S11312501A000123134001D0052355E0BB681B7815
S1131260DBB21A000223134001D01C234CE07B683C
S11312705A78FB681A71FB681B79002B02D1012094
S1131280244B98471723FB1800221A700EE01723EB
S1131290FB181A78FB68023292000021D150172300
S11312A0FB181A781723FB1801321A701723FB183E
S11312B01B78022BEBD9FB6800229A76FB6800228C
S11312C0DA76FB6800221A83FB6800221A77124B35
S11312D0FA681A607B682A229B5C002B0AD17B681F
S11312E01B7D01225340DBB2002B03D0FB6801229B
S11312F05A7702E0FB6800225A777A68FB6811008B
S11313001800064B984703001800BD4606B080BD80
S1131310F10A0000750B000088000020010D000098
S113132080B584B000AF78607B681B68FB60FB68A5
S11313305B7EDBB25BB2002B01DA012300E0002309
S11313401800BD4604B080BD80B584B000AF78609D
S11313507B681B68FB60C0467B6818000B4B984792
S1131360031EF9D1FB681B7BDBB202221343DAB202
S1131370FB681A73C0467B681800044B9847031E29
S1131380F9D1C046BD4604B080BDC046211300005B
S113139080B584B000AF78600A00FB1C1A707B68CB
S11313A01B68FB60FB68FA1C1278DA75C046BD4600
S11313B004B080BD80B584B000AF78600A00FB1C27
S11313C01A707B681B68FB60FB68FA1C12789A75BC
S11313D0C046BD4604B080BD80B584B000AF0200F5
S11313E0FB1D1A70FB1D1A783F4B9200D358FB600B
S11313F0FB681B681B7EDBB2BB60BB680122134029
S11314003CD0FB68DB7E1A000123134036D0FB6816
S11314109B7E1A000123134030D0FB681B68012215
S11314201A76C046FB681800304B9847031EF9D162
S1131430FB685B69991CFA685161FA681268528BFF
S113144092B21A80FB681B8B9BB2013B9BB2FA6879
S1131450191C1183002B11D1FB681B7FDBB2052BF8
S11314600CD1FB6800221A77FB6801211800204B7D
S11314709847FB689B68FA6810009847BB68042289
S1131480134014D0FB681B6804221A76FB68DB7EC9
S11314901A00022313400AD0FB689B7E1A00022321
S11314A0134004D0FB68DB68FA6810009847BB68F7
S11314B00222134014D0FB681B6802221A76FB68D0
S11314C0DB7E1A00042313400AD0FB689B7E1A00BB
S11314D00423134004D0FB681B69FA681000984782
S11314E0C046BD4604B080BD880000202113000022
S11314F0B513000080B500AF0020024B9847C046EA
S1131500BD4680BDD913000080B584B000AFF8603B
S1131510B960FB1D1A70FB1D1A78FB680232920039
S1131520B968D150FB689B7E5AB2FB1D1B78012120
S113153099400B005BB213435BB2DAB2FB689A7654
S1131540C046BD4604B080BD80B584B000AFF8602D
S1131550B960BB1D1A80FB681B8B9BB2002B04D1A6
S1131560FB681B7FDBB2052B01D1052317E0FB6869
S113157005221A77FB68BA1D12881A83FB68BA68B9
S11315805A61FB6801211800074B9847FB685B7F91
S1131590002B03D0FB681800044B98470023180065
S11315A0BD4604B080BDC04691130000491300003D
S11315B080B582B000AF78607B6880221A707B6847
S11315C000225A707B6801229A707B680022DA70CC
S11315D0C046BD4602B080BD80B584B000AF0200F5
S11315E03960FB1D1A700C23FB181800104B984728
S11315F00C23FB1880221A703B681A780C23FB1802
S11316005A703B685A780C23FB189A703B689A7896
S11316100C23FB18DA700C23FA18FB1D1B7811003D
S11316201800044B9847C046BD4604B080BDC04670
S1131630B11500004920000080B500AF034B1B68C2
S113164000209847C046BD4680BDC04644000020E7
S113165080B500AF034B5B6801209847C046BD4688
S113166080BDC0464400002080B500AF034B9B689A
S113167002209847C046BD4680BDC04644000020B5
S113168080B500AF034BDB6803209847C046BD46D6
S113169080BDC0464400002080B500AF034B1B69E9
S11316A004209847C046BD4680BDC0464400002083
S11316B080B500AF034B5B6905209847C046BD4623
S11316C080BDC0464400002080B582B000AF786081
S11316D07B6801225A607B6800225A707B6806226C
S11316E01A707B6800221A727B6800225A72C04604
S11316F0BD4602B080BD80B582B000AF78607B6823
S113170003221A707B6800225A707B6801229A7047
S1131710C046BD4602B080BD80B582B000AF0200B5
S1131720FB1D1A70034AFB1D1B781372C046BD468D
S113173002B080BD0004004080B582B000AF02005A
S1131740FB1D1A70BB1D0A1C1A70FB1D1B78012B94
S113175008D0022B0BD0002B0ED10B4ABB1D1B78DB
S113176053720BE0084ABB1D1B78937206E0064ACD
S1131770BB1D1B78D37201E0172300E0002318007F
S1131780BD4602B080BDC0460004004080B582B0B2
S113179000AF0200FB1D1A70084AFB1D1B780F21C5
S11317A00B40D9B253680F20014049001E208343E7
S11317B00B435360C046BD4602B080BD00400041AB
S11317C080B500AFC046044BDB6810221340FAD04A
S11317D0C046BD4680BDC0460008004080B500AF8D
S11317E00C4B02229A840C4B98470A4A0B4B9B6879
S11317F0D362084A094B5B689362064B00229A84C1
S1131800054B9847034A054B1B689BB29384C0461B
S1131810BD4680BD00080040C11700005C000020E8
S113182080B584B000AF78601A4B1B6AFB607B689C
S11318301B781A1C03231340DAB20D23FB1803216F
S11318400A4010001A7803218A43111C021C0A431F
S11318501A707B689A780C23FB18D0011A787F21C0
S11318600A40111C021C0A431A707B685A780C2324
S1131870FB1801210A4090011A7840218A43111C67
S1131880021C0A431A70034BFA681A62C046BD462A
S113189004B080BD0008004080B582B000AF0200F3
S11318A0FB1D1A70FB1D1B78082B3BD89A00214B9B
S11318B0D3181B689F46204B1F4A126A02210A4311
S11318C01A62002331E01C4B1B4A926902210A432D
S11318D09A6129E0184A184B1B8A9BB202210B43D8
S11318E09BB2138220E0144A134B9B8A9BB20221C1
S11318F00B439BB2938217E0104B1B6802221A43DE
S11319000E4B1A600E4B98470EE00B4A0A494423CB
S1131910CB5CDBB202210B43D9B24423D15403E0A4
S1131920002302E0172300E000231800BD4602B0A4
S113193080BDC046C4280000000800405C000020B0
S1131940DD17000080B582B000AF3B0002221A70A0
S113195000237B6009E07B68DBB23A0011001800C9
S1131960054B98477B6801337B607B68242BF2D955
S1131970C046BD4602B080BDE11C000080B5A0B0E9
S113198000AF364BC222D2009A600020344B9847F5
S1131990344B98477C23FB181800334B98477C231F
S11319A0FB1800221A707C23FB1801229A707C23F6
S11319B0FB1800225A707C23FB1818002B4B984705
S11319C006202B4B98472B4B98476423FB18180091
S11319D0294B98476423FB1806221A706423FB18CA
S11319E001225A606423FB1800221A726423FB1834
S11319F000225A726423FB18190001201F4B9847D8
S1131A0001201F4B984700201E4B984700210020BF
S1131A101D4B9847002101201B4B984700210220B1
S1131A20194B98473B1D1800134B98473B1D062242
S1131A301A703B1D01225A603B1D00221A723B1D85
S1131A4000225A723B1D190000200C4B98470020BD
S1131A500B4B9847C046BD4620B080BD00080040EF
S1131A608D17000045190000F7160000211800002A
S1131A7099180000311B0000C9160000611B00000A
S1131A80851C0000191700003917000080B582B0CA
S1131A9000AF02003960FB1D1A70FB1D1B78012B7F
S1131AA00AD0022B0FD0002B14D10E4B0D4A916992
S1131AB03A680A439A610FE00A4B0A4AD1693A68C4
S1131AC00A43DA6108E0074B064A116A3A680A4396
S1131AD01A6201E0172300E000231800BD4602B09B
S1131AE080BDC0460004004080B500AF024B98475B
S1131AF0C046BD4680BDC046F908000080B500AFB1
S1131B00024B9847C046BD4680BDC0464D09000003
S1131B1080B500AF054B5B78DBB25BB2002B01DA1A
S1131B20012300E000231800BD4680BD000C0040E6
S1131B3080B500AF08210020074B9847074B0122CE
S1131B401A70C046054B1B78DBB21A000123134000
S1131B50F8D1C046BD4680BD8D1A0000000C00407F
S1131B6080B586B000AF02003960FB1D1A70FB1D02
S1131B701B787B61FB1D1B783B613B681B781B0258
S1131B801A007B6913437B613B685B78002B04D0AC
S1131B907B698022D20213437B613B685B7A002B12
S1131BA004D07B698022120313437B613B685B682A
S1131BB0012B2CD93B685A683B685B68013B134096
S1131BC01AD10023FB600223BB6005E0FB680133EC
S1131BD0FB60BB685B00BB603B685A68BB689A42A9
S1131BE0F4D8FB681B023A6913433B617B6980228A
S1131BF0520313437B610AE03B685B681B023A694A
S1131C0013433B617B698022920213437B613B68EF
S1131C101B7A002B04D07B698022920313437B61DF
S1131C20C046134B9847031EFBD1124B9847124AE8
S1131C30FB1D1B781370C0460D4B9847031EFBD148
S1131C400E4B3A699A60C046094B9847031EFBD174
S1131C500A4B0A4A51688022520211407A690A43A7
S1131C605A60074B9847C046BD4606B080BDC04683
S1131C70111B0000E91A0000080C0040000C004091
S1131C80FD1A000080B582B000AF0200FB1D1A707F
S1131C90C0460E4B9847031EFBD10D4B98470D4A87
S1131CA0FB1D1B781370C046084B9847031EFBD1DD
S1131CB0094B094A5268802149020A435A60074B7A
S1131CC09847C046BD4602B080BDC046111B000007
S1131CD0E91A0000040C0040000C0040FD1A00004A
S1131CE080B584B000AF02003960FB1D1A70FB1D83
S1131CF01B78FB603B681B781B021A00FB681343CC
S1131D00FB60FB1D1B781800044B9847044BFA68D2
S1131D1092B25A80C046BD4604B080BD6D1D00001D
S1131D20000C004080B582B000AF0200FB1D1A70A9
S1131D300A4B98470A4AFB1D1B7813700949094B43
S1131D405B889BB28022D20113439BB24B80064B2B
S1131D509847C046BD4602B080BDC046E91A00009F
S1131D60020C0040000C0040FD1A000080B584B055
S1131D7000AF0200FB1D1A701C4B98471C4AFB1D48
S1131D801B7813701B4B5B881B051B0FDBB2FB60BE
S1131D90184A538818490B405380164A154B5B88E0
S1131DA09BB216490B409BB25380C046114B5B88D3
S1131DB09BB21A008023DB011340F7D10D4AFB6864
S1131DC0DBB2191C0F230B40D9B25388081C0F2116
S1131DD00140080208490B40191C031C0B435380A3
S1131DE0074B9847C046BD4604B080BDE91A0000C1
S1131DF0020C0040000C0040FFF0FFFFFFBFFFFF9C
S1131E00FD1A000090B585B000AF0200FB1D1A70EA
S1131E10BB1D0A1C1A700F23FB1800221A70FB1D2D
S1131E201B787F2B3CD8FB1D1B785BB2002B00DAA0
S1131E3003339B105AB20E23FB181A70FB1D1B7838
S1131E405BB2224A134004D5013B0422524213439D
S1131E5001335BB2DBB2DB00DAB20D23FB180632CE
S1131E601A701B4C0E23FB181B7819490E22BA1842
S1131E701278C032920052580D2179180978032043
S1131E8088400100C9430A40B91D08780D2179181A
S1131E900978884001000A43C0339B001A510EE0C0
S1131EA0FB1D1B785BB2013305D10A4BBA1D1278B6
S1131EB092071A6203E00F23FB1817221A700F23EC
S1131EC0FB181B781800BD4605B090BD03000080C8
S1131ED000E100E000ED00E080B584B000AF020056
S1131EE0FB1D1A700F23FB18FA1D1278D2091A7001
S1131EF00E23FB18FA1D127852091A700D4BBB60A1
S1131F000F23FB181B78002B0FD10F23FB181B7812
S1131F109B0010229446BC446344083B1A680E2379
S1131F20FB181B78DB01D31800E000231800BD4622
S1131F3004B080BD0044004180B588B000AFF860B3
S1131F40B9607A600023FB617B68DB78012253402F
S1131F50DBB2002B35D07B681B78802B0BD0FB6960
S1131F60802252021343FB617B681B781B061A0014
S1131F70FB691343FB617B685B78002B03D07B68B0
S1131F805B78022B10D1FB69802292021343FB6120
S1131F907B689B78002B04D0FB698022D202134318
S1131FA0FB61FB68BA685A607B685B78012B03D0DD
S1131FB07B685B78022B07D1FB69224A1340FB61E3
S1131FC002E0FB68BA685A60BB681B041B0CBB6167
S1131FD0BB681B0C7B61BA69FB691343A022D20561
S1131FE01A43FB689A627A69FB691343D02212068A
S1131FF01A43FB689A627B68DB7801225340DBB2A8
S1132000002B1AD0FA698023DB0213400AD07B68C4
S11320109B78012B03D1FB68BA689A6102E0FB68E4
S1132020BA685A617B685B78012B03D07B685B7864
S1132030022B02D1FB68BA689A60C046BD4608B05C
S113204080BDC046FFFFFBFF80B584B000AF020037
S11320503960FB1D1A70FB1D1B7818000A4B98474A
S11320600300FB60FB1D1B781F22134001229A40D2
S11320701300BB603A68B968FB681800034B9847C3
S1132080C046BD4604B080BDD91E0000391F000003
S113209080B500AFC046BD4680BD000080B500AF2E
S11320A0064B9847064B9847064B9847064B98476C
S11320B0064B9847C046BD4680BDC0467D1900000A
S11320C0890A0000C9080000912000009120000046
S11320D080B582B000AF2F4B7B602F4B3B607A689A
S11320E03B689A420CD007E03B681A1D3A607A6854
S11320F0111D796012681A603A68284B9A42F3D32A
S1132100274B3B6004E03B681A1D3A6000221A60CA
S11321103A68244B9A42F6D3234B7B60234B7A686C
S1132120FF218A439A60224A90235B000221D15006
S1132130204AD37803218B43191C02230B43D37009
S11321401C4AD3780C218B43191C08230B43D370EE
S1132150194A937B30218B43191C20230B4393731F
S1132160154A937B0C218B43191C08230B4393734F
S1132170114A937B03218B43191C02230B43937352
S11321800E4A536880210B4353600D4B98470D4B07
S11321909847FEE7082900000000002020000020E6
S11321A0200000202C0100200000000000ED00E0D1
S11321B000700041005000410048004100400041CF
S11321C01D270000B926000080B500AFFEE700001F
S11321D080B500AF044B01221A70BFF35F8F62B663
S11321E0C046BD4680BDC0461400002080B582B004
S11321F000AF0200FB1D1A70064BFA1D1278110085
S11322001F220A40012191400A001A60C046BD46BF
S113221002B080BD00E100E080B584B000AF78601A
S11322207B681B68FB60FB685B7EDBB25BB2002BE8
S113223001DA012300E000231800BD4604B080BD8C
S113224080B584B000AF78607B681B68FB60C046D3
S11322507B681800104B9847031EF9D117200F4BC9
S11322609847FB680F229A75FB680F221A76FB6861
S11322701B78DBB202221343DAB2FB681A70C04641
S11322807B681800044B9847031EF9D100231800FB
S1132290BD4604B080BDC04619220000ED210000F7
S11322A080B584B000AF78607B681B68FB60C04673
S11322B07B6818000B4B9847031EF9D1FB681B7B06
S11322C0DBB202221343DAB2FB681A73C0467B689E
S11322D01800044B9847031EF9D1C046BD4604B00C
S11322E080BDC0461922000080B584B000AF78607C
S11322F00A00FB1C1A707B681B68FB60FB68FA1CF5
S11323001278DA75C046BD4604B080BD80B582B08F
S113231000AF78600A00FB1C1A707B68DB7E5AB23F
S1132320FB1C1B78012199400B005BB213435BB289
S1132330DAB27B68DA76FB1C1B78012B04D17B684C
S113234004211800074B9847FB1C1B78022B04D16F
S11323507B6802211800034B9847C046BD4602B073
S113236080BDC046E922000080B584B000AF78602B
S11323707B681B68FB60FB68DB7BDBB21A00802395
S113238013405A1E9341DBB21800BD4604B080BD11
S113239080B582B000AF78607B6800221A707B68D9
S11323A000229A707B6800229A807B6800229A71CE
S11323B07B6800221A817B6800225A707B680022A5
S11323C09A727B680022DA727B6800221A737B6837
S11323D000229A737B6800225A737B6800221A7465
S11323E07B6800225A617B6800229A617B68002224
S11323F01A777B6800221A627B6800225A627B6823
S113240000221A857B6800225A857B6800229A85FF
S1132410C046BD4602B080BD80B584B000AF7860D0
S11324207B681B68FB60C0467B681800074B9847B5
S1132430031EF9D1FB681B889BB2022213439AB294
S1132440FB681A80C046BD4604B080BD6923000005
S113245080B582B000AF7860044A7B68D3181B78DB
S11324605BB21800BD4602B080BDC0461800002013
S113247080B582B000AF78600A00FB1C1A707B68DC
S11324801B681800224B984703001800214B9847FB
S113249003001800204B9847FB1C1B78022B0BD120
S11324A07B685B7E10221343DAB27B685A767B68C2
S11324B01B6810225A7326E0FB1C1B78032B0BD1DC
S11324C07B685B7E20221343DAB27B685A767B6892
S11324D01B6820225A7316E07B685B7E5AB2FB1C91
S11324E01B78012199400B005BB213435BB2DAB253
S11324F07B685A767B681B68FA1C1278012191402C
S11325000A00D2B25A73C046BD4602B080BDC0466E
S11325106903000051240000ED21000080B58EB055
S113252000AF3B1D18000E4B98473B1D00229A70CC
S11325303B1D00221A703B1D8022D2009A803B1D55
S113254000221A813A1D0749074B1800074B984788
S1132550054B1800064B9847C046BD460EB080BDDB
S11325609123000000300042EC000020B50300007D
S11325701924000080B500AF0649074B002218005B
S1132580064B9847044B00211800054B9847C0465A
S1132590BD4680BD8D260000EC0000201501000022
S11325A07124000080B58CB000AF3B001800134BC1
S11325B098473B0000229A603B0000225A803B006F
S11325C002225A703B000122DA743B0000221A7383
S11325D03B008022D200DA813B0032221A713A0099
S11325E00749084B1800084B9847064B1800074B3F
S11325F09847C046BD460CB080BDC046DD0B000008
S113260000400042080100202D1200004122000079
S113261080B500AF0649074B00221800064B9847C7
S1132620044B00211800054B9847C046BD4680BDA9
S11326304126000008010020091500000D230000B8
S113264080B582B000AF78600B490C4B10221800A3
S11326500B4B98470B4B1B6810331A00094B1A603D
S1132660084B1B68084A934202D9064B00221A60A1
S1132670C046BD4602B080BD900000200801002085
S113268049150000B0000020FF1F000080B582B093
S113269000AF78607B681B683D2252421A82044B6B
S11326A01800044B9847C046BD4602B080BDC046E2
S11326B008010020A122000080B58CB000AF0D4BB2
S11326C098470D4B98470D4B98470D4B98470D4B2A
S11326D09847012117200C4B9847002113200A4BDF
S11326E098470A4B98470A490A4B102218000A4B8C
S11326F09847FEE79D200000A52500001126000054
S11327001D25000075250000051E0000D1210000D4
S113271090000020080100204915000070B5002633
S11327200C4D0D4C641BA410A64209D1002600F0E8
S1132730DBF80A4D0A4C641BA410A64205D170BDF7
S1132740B300EB5898470136EEE7B300EB589847CF
S11327500136F2E7F4280000F4280000F428000011
S1132760F8280000002310B59A4200D110BDCC5CBB
S1132770C4540133F8E70000002C0042003000424A
S11327800034004200380042003C00421B1C1C1D67
S11327901D00000000080010002000400080000020
S11327A002000000030000002800000029000000CF
S11327B004000000050000000600000007000000FF
S11327C0200000002100000022000000230000007F
S11327D0240000002500000026000000270000005F
S11327E008000000090000000A0000000B000000BF
S11327F09E0E0000A40E0000A40E0000A40E000013
S1132800A40E0000A40E0000A40E0000A40E0000FC
S1132810A40E0000A40E0000A40E0000A40E0000EC
S1132820A40E0000A40E0000A40E0000A40E0000DC
S11328307C0E0000A40E0000A40E0000A40E0000F4
S1132840A40E0000A40E0000A40E0000A40E0000BC
S1132850A40E0000A40E0000A40E0000A40E0000AC
S1132860A40E0000A40E0000A40E0000A40E00009C
S1132870980E0000A40E0000A40E0000A40E000098
S1132880A40E0000A40E0000A40E0000A40E00007C
S1132890A40E0000A40E0000A40E0000A40E00006C
S11328A0A40E0000A40E0000A40E0000A40E00005C
S11328B0920E00003A0E0000500E0000660E00005A
S11328C0200E0000D4180000241900002419000070
S11328D020190000C6180000E6180000B618000011
S11328E0F81800000A190000F8B5C046F8BC08BC86
S11328F09E467047DD000000F8B5C046F8BC08BC31
S10B29009E467047B50000007B
S1132908000000000C0000000000000000000000AF
S11329180000000001000000121314151600000046
S90320D10B
